:1000000000040020912A0000D92A0000D92A00000B
:10001000D92A0000D92A0000D92A0000D92A0000D4
:10002000D92A0000D92A0000D92A0000D92A0000C4
:10003000D92A0000D92A0000D92A0000D92A0000B4
:10004000D92A0000D92A00002D210000D92A000059
:10005000D92A0000710A0000D92A00005D210000A1
:100060009526000025270000810E0000D92A0000F7
:1000700055580000D92A0000D92A0000D92A0000CA
:10008000D92A000061260000C9260000D92A0000F4
:10009000D92A000010B5064C2378002B07D1054B58
:1000A000002B02D0044800E000BF0123237010BDE4
:1000B0008404002000000000D0A50000044B10B50F
:1000C000002B03D00349044800E000BF10BDC04628
:1000D0000000000088040020D0A500004022920209
:1000E0009A1A92467047C046174B002B00D1134B0B
:1000F0009D46FFF7F3FF00218B460F461348144A35
:10010000121A07F0E9FF0E4B002B00D098470D4B59
:10011000002B00D098470020002104000D000D485E
:10012000002802D00C4800E000BF07F09DFF20002F
:10013000290001F0D7F807F081FFC0460000080051
:1001400000000000000000000004002084040020E3
:1001500048070020000000000000000010B500F07B
:10016000FFF900F0D1FA01F0C7F800F02DF900F026
:10017000A1F90A4B180001F05FFF01F01DF901F031
:1001800061FA074B00221A6000F0A6F800F02DFB80
:10019000532001F0FFFBC04610BDC04600040140E3
:1001A000A004002000B5BDB009AB00221A70454B79
:1001B000180002F005F8031E05D0424B180002F0AB
:1001C0001BF800F089F8404B180001F0F9FF031EFE
:1001D0000AD03D4B180002F00FF8482001F0DAFB7E
:1001E0003A4B180001F070F801F052F8031E07D0E6
:1001F00009AB180001F054F809AB180001F0FEFB40
:100200006B46DA1D03AB1100180001F03BFC6B4696
:100210009A1D02AB1100180001F052FC01F09CF98C
:1002200003003B933B9B002B01D001F0B5FF029BE9
:100230003B9A9A4216D16B4606331B78180001F0A0
:10024000A9FB01F0B9FC6B4606331B78482B04D0A0
:100250006B4606331B78512B31D11D4B180001F032
:1002600033F82CE0039B3B9A9A4216D16B46073336
:100270001B78482B04D06B4607331B78512B1ED1BB
:10028000029B012B1BD0029A039B9A4217D000F0CD
:10029000ACFA532001F07EFB11E03B9B002B0ED00B
:1002A0003B9A0C4904AB180007F0D8FF04AB1800C8
:1002B00001F00AF8532001F06DFB01F06FFCC0461D
:1002C0003DB000BD000001400004014078970000EF
:1002D0007C9700008097000010B588B001F056F8B8
:1002E00003000693069B002B25D0069AFF231B02D2
:1002F00013400593069BFF2213400493059B1B0AA2
:10030000180006F0ABFB041C049806F0A7FB031CC6
:100310008721C905181C05F0E5FE031C191C201CCB
:1003200005F042FD031C0793FE218905079806F09E
:10033000C7F9031C07931C49079805F0B7FB031E78
:100340000CD01A4B180000F0BFFF194B5B6C002B50
:1003500001D001F023FC174B01221A60154B1B68DA
:10036000002B0CD01449079805F0BEFB031E06D0E5
:10037000104B00221A60114B180000F0A5FF104925
:10038000079806F077F8031C181C06F047FB0200DC
:100390000C4901AB180007F061FF01AB180000F039
:1003A00093FFC04608B010BD0000A0418497000034
:1003B00000080140A0040020000048428897000087
:1003C0000000C8428C97000000B58BB001AB012241
:1003D0001A7001AB00225A7001AB00225A6001ABC7
:1003E00064229A6001AB3222DA6001AB32221A61D8
:1003F00001AB32225A6101AB01221A7601AB002215
:100400005A7601AB0422DA6101AB20220021995413
:1004100001AB264A1900100001F086FC234B002294
:100420000021180001F0E8FD204B002201211800F6
:1004300001F0E2FD1D4B00220221180001F0DCFD5D
:100440001A4B0121180001F0C5FD01AB01221A7001
:1004500001AB00225A7001AB00229A6001AB32223C
:10046000DA6001AB32221A6101AB32225A6101AB70
:1004700000221A7601AB00225A7601AB8022D2000C
:10048000DA6101AB20220121995401AB00225A60AC
:1004900001AB074A1900100001F046FC044B012192
:1004A000180001F097FDC0460BB000BD00080140E8
:1004B0000000014000B587B001AB962292011A609E
:1004C00001AB00221A7101AB05225A7101AB002267
:1004D0009A7101AB0022DA7101AB01221A7201ABF1
:1004E00001225A7201AB01229A7201AB2322DA7205
:1004F00001AB01221A7301AB21225A7301AB002216
:100500001A6101AB034A1900100000F01FFCC0463D
:1005100007B000BD0040084010B588B005900491B8
:100520000392029306AA049B1100180004F06EFDCA
:1005300003000793079B002B01D0079B0DE0069952
:10054000029C039A05980BAB1B8801930AAB1B789E
:100550000093230004F0F4FC0300180008B010BD61
:1005600000B583B0064A0748012301930023009396
:1005700000230421FFF7D0FFC04603B000BDC046F2
:1005800089050000A404002082B001900091034B73
:1005900001221A70C04602B07047C046C004002055
:1005A00000B583B0020000916B4607331A706B46AA
:1005B00007331B78002B26D06B4607331B78012BA3
:1005C0001ED06B4607331B78022B17D06B460733C0
:1005D0001B78032B10D06B4607331B78042B08D0F5
:1005E0006B4607331B78052B01D13F230CE000231A
:1005F0000AE0F0239B0107E0F02305E0114B03E044
:10060000D323DB0100E0104B009AD34001221340BA
:1006100006D1F9239A000D4B1100180002F052FD8B
:100620000B486B4607331A780121009B9940130051
:10063000DB009B189B00C31814331960C04603B03D
:1006400000BDC0461FEF00000707000090970000A4
:100650000060004000B583B0020000916B46073394
:100660001A706B4607331B78002B26D06B46073376
:100670001B78012B1ED06B4607331B78022B17D03B
:100680006B4607331B78032B10D06B4607331B7860
:10069000042B08D06B4607331B78052B01D13F2371
:1006A0000CE000230AE0F0239B0107E0F02305E0C3
:1006B000104B03E0D323DB0100E00F4B009AD34043
:1006C0000122134005D10D4A0D4B1100180002F014
:1006D000F9FC0C486B4607331A780121009B9940BE
:1006E0001300DB009B189B00C31810331960C04631
:1006F00003B000BD1FEF0000070700001304000057
:10070000909700000060004010B5334B01211800A5
:1007100003F0B0F8002304220021002003F022FDA2
:10072000002304220121002003F01CFD00230422E9
:100730000221002003F016FD0023042208210020DE
:1007400003F010FD002304220921002003F00AFD1C
:10075000002304220A21002003F004FD00230422C8
:100760000921022003F0FEFC0023042200210220C4
:1007700003F0F8FC002301220121022003F0F2FC27
:10078000002304220721012003F0ECFC01230422B2
:100790000821012003F0E6FC0123082206210320A2
:1007A00003F0E0FC012308220721032003F0DAFC18
:1007B000012304220421032003F0D4FC002301229E
:1007C0000521032003F0CEFC002304220B2102208C
:1007D00003F0C8FCC04610BD0082040010B509211A
:1007E0000220FFF737FFC04610BD10B509210220D7
:1007F000FFF7D6FEC04610BD82B002006B4607333D
:100800001A706B4607331B787F2B0AD86B46073369
:100810001B781A001F231A40034B012191400A0044
:100820001A60C04602B0704700E100E084B0019059
:10083000019B054A934201D1044B0393039B1B7E0A
:10084000DBB2180004B0704700A00040C4040020D0
:1008500000B589B001900091019B3D4A934201D1BE
:100860003C4B0793019B3A4A934204D13A4B0121F6
:10087000180002F0FFFF019B9B6A0122134010D178
:10088000019B0122DA62019B9B6A0122134004D181
:10089000324B4121180002F015FC019B01221A6322
:1008A0000CE0019B01221A63019B9B6A0122134009
:1008B00004D02A4B4521180002F004FC009B1A7852
:1008C00002AB1A70009B1A7B02AB1A73009B9A68EA
:1008D00002AB9A60009B5A7802AB5A70009B5A6830
:1008E00002AB5A6002AA019B1100180003F066FED9
:1008F000009B1B6903221A43019B9A63019B18000A
:1009000000F02EF8019B012252421A63019B402203
:100910005A6040230693069B802213430693069B4E
:10092000202213430693069B802252001343069312
:10093000019B069A5A63019B054A934202D1052006
:10094000FFF75AFF079B00221A76C04609B000BD88
:1009500000A00040C404002000B204000898000079
:1009600084B00190019B20225A60019B5B6B039332
:10097000019B00225A63019B9A6A019B1A63019BA7
:1009800040225A60019B03225A60C046019B9A6A2A
:1009900080235B001340F9D0019B9A6A019B1A6384
:1009A000019B039A5A63019B20225A60C04604B0FF
:1009B0007047000000B587B0039002910192009348
:1009C000039B284A934201D1274B0593C046059BC0
:1009D0001B7EDBB2002BFAD1039B9A681300DB006D
:1009E0009B1A5B0104D0214BB921180002F06AFB6D
:1009F0000AAB1B78002B03D0039B1800FFF7B0FF56
:100A0000059B0B9A1A62059B00221A70059B039A9C
:100A10005A60059B029A9A60059B019ADA60059BD1
:100A2000009A5A61059A08AB1B785376059B002201
:100A3000DA61059B099A1A6108AB1B78002B03D079
:100A4000059B1B6900221A60059B01221A76039BF5
:100A500001225A60059B9B685A00039B5A62C0465C
:100A600007B000BD00A00040C404002008980000AA
:100A700000B583B0254B9A6A244B5B6B13400193FE
:100A8000224B019A1A63019B402213400DD01F4B49
:100A90009B6A4022134004D01D4BE321180002F052
:100AA00011FB1C4B180000F037F8019B802213400B
:100AB0000DD0164B9B6A8022134004D0144BE721C3
:100AC000180002F0FFFA134B180000F09DF8019B8C
:100AD0002022134003D00F4B180000F0ADF8019A0C
:100AE00080235B0013400ED0084B9A6A80235B0082
:100AF000134004D0064BEE21180002F0E3FA054B38
:100B0000180000F0E9F8C04603B000BD00A00040A6
:100B100008980000C404002000B585B0019003F0DF
:100B200041FA03000393019B1B78042B3CD059DC52
:100B3000022B35D056DC002B02D0012B09D051E01E
:100B4000019B01221A70019B5B68019AD2685A626C
:100B500050E0019B5B7E002B0FD0019B02221A709C
:100B6000019B5B6801225A60019B9B685A00019BB4
:100B70005B6801210A435A623CE0019B04221A701F
:100B8000019B1A69019BDB699B00D218019B5B6882
:100B900012685A62019BDB695A1C019BDA6129E0E9
:100BA000019B03221A7025E0019BDA69019B5B69B6
:100BB0009A4207D1019B05221A70019B5B680222B1
:100BC0005A6017E0019B1A69019BDB699B00D218F0
:100BD000019B5B6812685A62019BDB695A1C019B8E
:100BE000DA6107E08C235A00064B1100180002F06E
:100BF00069FAC046039B180003F0E0F9C04605B04F
:100C000000BDC0460898000000B585B0019003F013
:100C1000C9F90300039395235A00064B11001800ED
:100C200002F050FAC046039B180003F0C7F9C04613
:100C300005B000BD0898000000B585B0019003F034
:100C4000B1F903000393019B1B78032B31D1019B66
:100C50005B68DA69019B5B69013BDB009A4011002C
:100C6000019B1B691A68019B1B690A431A60019B5F
:100C70005B695A1E019B5A61019BDB695A1C019BEF
:100C8000DA61019B5B69002B03D0019B5B68042246
:100C90005A60019B5B69002B13D1019B05221A70DE
:100CA000019B5B6808225A60019B5B6802225A60C4
:100CB00007E0A4235A00074B1100180002F002FAC3
:100CC00000E0C046039B180003F078F9C04605B069
:100CD00000BDC0460898000000B585B0019003F043
:100CE00061F903000393019B1B78052B03D1019B42
:100CF00000221A7607E0AE235A00064B11001800B6
:100D000002F0E0F9C046039B180003F057F9C04613
:100D100005B000BD0898000082B002006B460733A2
:100D20001A706B4607331B787F2B0AD86B46073344
:100D30001B781A001F231A40034B012191400A001F
:100D40001A60C04602B0704700E100E000B587B00D
:100D500001900091464BD92200219954454B012125
:100D6000180002F087FD019B01221A61C046019B19
:100D70005B6C002BFBD1019B1B690122134004D14A
:100D80003D4B4A21180002F09DF9019B00221A6197
:100D9000C046019B5B6C002BFBD1009B5A7902ABD8
:100DA0001A70009B1A6802AB9A60009B1A7902AB1A
:100DB0001A73009B9A7902AB5A73009BDA7902ABE3
:100DC0009A73009B1A6902AB5A60009B5B7A1A0205
:100DD000019B1A6002AA019B1100180003F0E0FCBD
:100DE000C046019B5B6C002BFBD1009BDB7A1A0099
:100DF000019B1A61009B5B7B1A00019B5A611F4B90
:100E000003225A650A20FFF787FF019BC0225A6020
:100E1000C046019B5B6C002BFBD1009B1B7A1A0127
:100E2000019B5A60C046019B5B6C002BFBD1009B71
:100E30005A79019B1100180003F064FCC046019B25
:100E40009B6803221340FAD0019B9B680322134046
:100E500004D1094B6821180002F034F9019B9B6B07
:100E6000802292001A43019B9A63C04607B000BDDE
:100E7000E804002090071A00149800000040084081
:100E800000B583B0254BDA6A244B9B6B134001936A
:100E9000224B019A5A63019B0222134003D01F4B3D
:100EA000180000F03FF8019B012213400DD01B4BAE
:100EB000DB6A0122134004D0194B8221180002F092
:100EC00001F9164B180000F073F8019A80239B007B
:100ED000134003D0114B180000F096F8019A8023BC
:100EE000DB0013400ED00D4BDA6A8023DB00134089
:100EF00004D00B4B8921180002F0E4F8074B1800CE
:100F000000F0AEF8019B0422134003D0034B1800FD
:100F100000F0EEF8C04603B000BDC04600400840F7
:100F20001498000000B585B0019003F03BF8030071
:100F300003931D4B1B78022B28D11B4BD4229B58AB
:100F4000194AD3181B7A1A00019B9A62164BD422B5
:100F50009B585A1C144BD4215A50134BD4229A58E4
:100F6000114BD0215B589A4216D1019B9B6B0222F8
:100F700093431A00019B9A630B4B03221A70019B47
:100F80009B6B01221A43019B9A6305E0074BB62134
:100F9000180002F097F800E0C046039B180003F029
:100FA0000DF8C04605B000BDE8040020149800000C
:100FB00000B585B0019002F0F5FF03000393104BDC
:100FC0001B78032B0ED10E4B06221A70019B9B6BD4
:100FD000012293431A00019B9A63094BD8220021F6
:100FE000995405E0074BDD21180002F06BF8C0466C
:100FF000039B180002F0E2FFC04605B000BDC046EA
:10100000E80400201498000000B585B0019002F0BB
:10101000C9FF030003930F4B1B78002B03D009DBA0
:10102000043B012B06D8019B9B6B0B4A1A43019B87
:101030009A6308E00223FF331A00084B11001800DE
:1010400002F040F8C046039B180002F0B7FFC0460C
:1010500005B000BDC4050020040400001498000081
:1010600000B585B0019002F09DFF030003931D4B76
:101070001B78042B26D11B4BD4229B58194AD3181A
:1010800000221A72174B05221A70019B90225A6097
:10109000019B9B6B144A1A40019B9A63019B9B6BBB
:1010A000042293431A00019B9A630E4BD92201211B
:1010B0009954C046019B5B6C002BFBD1094B00226D
:1010C0001A7008E02E23FF331A00084B1100180095
:1010D00001F0F8FFC046039B180002F06FFFC04606
:1010E00005B000BDC4050020FFFBFFFF1498000001
:1010F00000B585B0019002F055FF03000393019BFA
:10110000DB6902932A4B1B78052B30D03DDC002B8A
:1011100002D0042B0DD038E0019B1B69029A9A4241
:101120003BD1234B04221A70214BD4220021995029
:1011300033E0019B1B69029A9A4207D11C4B04229F
:101140001A701B4BD4220021995029E0184BD4224D
:101150009B58029AD1B2164AD3180A1C1A72144B21
:10116000D4229B585A1C124BD4215A5018E0019B90
:101170005B69029A9A4212D05E23FF331A000D4B2C
:101180001100180001F09EFF09E0B2235A00094B3C
:101190001100180001F096FF02E0C04600E0C046D2
:1011A000039B180002F00AFFC04605B000BDC04610
:1011B000C40500201498000000B58DB00190009186
:1011C000C046019B180000F04FF8031EF9D102F051
:1011D000E9FE03000B93204BD8220121995403AB65
:1011E00000221A701D4A03AB1100180007F063F8C3
:1011F000009A03AB1100180007F050F8184A03AB2F
:101200001100180007F04AF803AB180007F05BF86C
:101210000200114BD0215A5003AA124B11001800A2
:1012200007F049F80C4B01221A700B4BD422002115
:101230009950094B019A5A60074B02221A70019B80
:101240009B6B02221A43019B9A630B9B180002F0CE
:10125000B5FEC0460DB000BDE80400202098000097
:1012600024980000F004002082B00190019B064AFF
:10127000934204D1054BD8229B5CDBB200E00023F3
:10128000180002B07047C04600400840E804002043
:10129000024BD9229B5CDBB218007047C4050020CA
:1012A00000B583B00190064A019B1100180007F0B9
:1012B00002F8044BD92200219954C04603B000BD66
:1012C000CC050020C405002000B583B00190019B2F
:1012D000034A19001000FFF76FFFC04603B000BDBE
:1012E0000040084010B504F02AFBFEF737FF04F079
:1012F00033FBFEF757FFFAE700B587B001AB0122D9
:101300001A7301AB0B4A9A6001AB01221A7001AB50
:1013100001225A7001AB00225A6001AB80225200B8
:101320001A6101AB044A19001000FFF791FAC04698
:1013300007B000BDDDFB050000A0004000B58BB08C
:1013400007900691059227236B4401221A702623E9
:101350006B4401221A700599069A0A48079B039369
:1013600026236B441B780293074B019327236B447E
:101370001B7800930B003621FFF71CFBC0460BB017
:1013800000BDC04600A00040A006002010B502220B
:1013900004210020FFF7D2FFC046054B1800FFF7DD
:1013A00045FA031EF9D1034B1B68180010BDC04657
:1013B00000A00040A006002000B589B001AB0022CB
:1013C0005A7601AB00221A7601AB134ADA6001AB00
:1013D00000229A8201AB05221A7401AB05221A7110
:1013E00001AB01225A7401AB01229A7401AB0022B5
:1013F000DA7501AB00229A7501AB00229A6001AB4D
:1014000000221A6001AB054A1900100000F0DEFF4F
:10141000C04609B000BDC046404B4C0000C400406F
:1014200010B58AB009900891079206930798089A18
:101430000999094C0823049301230393069B029303
:1014400000230193002300930300200001F06AF8B9
:10145000C0460AB010BDC04600C4004000B58BB005
:10146000099008910792089A09990948082304935A
:1014700001230393079B029301230193054B0093E0
:101480001300002201F04EF8C0460BB000BDC0466C
:1014900000C40040A406002000B585B0039002916E
:1014A00001920023012200210120FFF7B9FF002350
:1014B00001227F210420FFF7B3FF002301228021B6
:1014C0000A20FFF7ADFF029A039900230920FFF7D6
:1014D000A7FF0199002301220D20FFF7A1FF0023A0
:1014E00001220C210120FFF79BFF002201210D208A
:1014F000FFF7B4FFC046164B180001F091F8031E29
:10150000F9D1144B1B6880221A43110000230122D9
:101510000D20FFF785FF002201210420FFF79EFF29
:10152000C0460B4B180001F07BF8031EF9D1094BA4
:101530001B683022134001D0012305E0054B1B68D6
:1015400001221340E7D00023180005B000BDC046BB
:1015500000C40040A406002000B583B0002301228F
:1015600000211220FFF75CFF00230122002113203D
:10157000FFF756FF0023012226212420FFF750FF0A
:1015800000F0C4F8072201212620FFF785FF0300A1
:101590000193019B002B01D1002347E00022012190
:1015A0000620FFF75BFFC046224B180001F038F819
:1015B000031EF9D1204B1B681322134004D01F4B8C
:1015C0005A21180001F07EFD00F0A0F81C4B00939A
:1015D000009B002202211800FFF75EFF0300019329
:1015E000019B002B01D1002320E0002201210A20D1
:1015F000FFF734FFC0460F4B180001F011F8031E2F
:10160000F9D10D4B1B680093009B013B0022190090
:101610000920FFF723FFC046064B180001F000F831
:10162000031EF9D1044B1B680093009B180003B004
:1016300000BDC04600C40040A40600202898000059
:101640002093000000B583B0002301220F21012068
:10165000FFF7E6FE0023012200211220FFF7E0FE43
:101660000023012200211320FFF7DAFE00230122CC
:1016700026212420FFF7D4FE0023012280212A20E6
:10168000FFF7CEFE00230122A9212B20FFF7C8FE81
:101690000023012203212C20FFF7C2FE0023012298
:1016A000E8212D20FFF7BCFE002301224021152058
:1016B000FFF7B6FE002301223D211120FFF7B0FE07
:1016C000002201211420FFF7C9FEC0460D4B18006F
:1016D00000F0A6FF031EF9D10B4B1B680193019B81
:1016E00003221340032B09D0019B03221A4311004C
:1016F000002301221420FFF793FEC046C04603B02A
:1017000000BDC04600C40040A406002000B583B060
:10171000002201210E20FFF7A1FEC0460A4B18004F
:1017200000F07EFF031EF9D1084B1B680193019B5B
:10173000802293431900002301220E20FFF770FE40
:10174000C04603B000BDC04600C40040A40600204F
:1017500000B583B0020000916B4607331A706B46E8
:1017600007331B78002B26D06B4607331B78012BE1
:101770001ED06B4607331B78022B17D06B460733FE
:101780001B78032B10D06B4607331B78042B08D033
:101790006B4607331B78052B01D13F230CE0002358
:1017A0000AE0F0239B0107E0F02305E0114B03E082
:1017B000D323DB0100E0104B009AD34001221340F9
:1017C00006D1F9239A000D4B1100180001F07AFCA4
:1017D0000B486B4607331A780121009B9940130090
:1017E000DB009B189B00C31814331960C04603B07C
:1017F00000BDC0461FEF000007070000389800003A
:101800000060004000B583B0020000916B460733D2
:101810001A706B4607331B78002B26D06B460733B4
:101820001B78012B1ED06B4607331B78022B17D079
:101830006B4607331B78032B10D06B4607331B789E
:10184000042B08D06B4607331B78052B01D13F23AF
:101850000CE000230AE0F0239B0107E0F02305E001
:10186000104B03E0D323DB0100E00F4B009AD34081
:101870000122134005D10D4A0D4B1100180001F053
:1018800021FC0C486B4607331A780121009B9940D4
:101890001300DB009B189B00C31810331960C0466F
:1018A00003B000BD1FEF0000070700001304000095
:1018B000389800000060004000B583B0019000211E
:1018C0000020FFF745FF01210020FFF79BFF074B9A
:1018D00000220021180000F08FFB019B03481A0032
:1018E000012100F089FBC04603B000BD00080140A3
:1018F00000B583B0019000210020FFF783FF012194
:101900000020FFF725FF074B00220021180000F000
:1019100073FB019B03481A00012100F06DFBC046D8
:1019200003B000BD0008014000B583B00190002164
:101930000020FFF70DFF01210020FFF709FF074BF3
:1019400000220021180000F057FB019B03481A00F9
:10195000012100F051FBC04603B000BD000801406A
:1019600010B500210020FFF7F3FE01210020FFF752
:10197000EFFE074B00220021180000F03DFB044B56
:1019800000220121180000F037FBC04610BDC04600
:101990000008014000B585B002006B4607331A709D
:1019A0003C2303936B4607331B78483B0B2B1CD817
:1019B0009A00114BD3181B689F46039B1800FFF732
:1019C0007BFF15E0039B1800FFF792FF10E0FEF786
:1019D00005FFFFF7C5FF0BE0FFF7C2FF08E0039B21
:1019E000143B1800FFF7A0FF02E0FFF7B9FFC04665
:1019F000C04605B000BDC046B098000000B589B033
:101A0000019004AB2C221A800023069304AA019BA8
:101A10001100180006F05EFC0300079329E0069B06
:101A2000174A134004D5013B0222524213430133AB
:101A3000012B0ED1079B1A7803AB1A7003AB1A78EF
:101A4000059B1100180000F065F8069B0133069312
:101A500008E0079B180006F0EBFA03000593069BCD
:101A60000133069304AB1900002006F033FC030099
:101A70000793079B002BD2D1C046C04609B000BDDA
:101A80000100008082B0019000910C4B1B681B6824
:101A9000002B0AD0094B1B681A68019B1A60074B80
:101AA0001B681A79009B1A7005E0019B01221A60DD
:101AB000009B00221A70C04602B07047A8060020A2
:101AC00082B001900091124B1B68002B06D1019B44
:101AD00001221A60009B00221A7017E00C4B1B6851
:101AE0009B68002B06D1019B01221A60009B0022FB
:101AF0001A700BE0064B1B689B681A68019B1A6002
:101B0000034B1B689B681A79009B1A7002B07047E0
:101B1000A806002000B585B001900A006B4603338B
:101B20001A700C2006F0C4FA03000393039B6A4664
:101B3000033212781A71039B019A1A60039B0022E8
:101B40009A60094B1B68002B03D1074B039A1A605C
:101B500003E0064B1B68039A9A60044B039A1A60D1
:101B6000C04605B000BDC046A8060020AC06002057
:101B700000B585B00190019B039308E0039B9B682F
:101B80000293039B180006F09DFA029B0393039BAC
:101B9000002BF3D1C046C04605B000BD10B5054BC3
:101BA0001B681800FFF7E4FF024B1B6800229A60D5
:101BB000C04610BDA806002000B583B0074B1B68C7
:101BC0000193064B1B689A68044B1A60019B18002E
:101BD00006F078FAC04603B000BDC046A806002053
:101BE00082B002006B4607331A706B4607331B78CE
:101BF0007F2B0AD86B4607331B781A001F231A4025
:101C0000034B012191400A001A60C04602B07047A0
:101C100000E100E082B00190019B0A4A934207D0A4
:101C2000019B094A934203D0019B084A934201D188
:101C3000012300E000231A1C01231340DBB218002B
:101C400002B070470000014000040140000801405C
:101C500082B00190014B180002B07047FFFF0000F6
:101C600000B585B0039002910192039B1800FFF725
:101C7000EFFF0200019B934205D9084A084B11006F
:101C8000180001F01FFA039A029B03331B01D318BB
:101C90000433019A1A60C04605B000BD020300007B
:101CA000E098000000B583B001900A006B46033352
:101CB0001A70019B1800FFF7ADFF031E06D1D12358
:101CC0009A000A4B1100180001F0FCF96B4603332F
:101CD0001B78002B03D0019B01225A6002E0019B7C
:101CE00002225A60C04603B000BDC046E098000022
:101CF00000B583B001900091019B1800FFF7A8FF89
:101D00000200009B934205D9054A064B11001800BA
:101D100001F0D8F9019B009ADA61C04603B000BD1A
:101D200076040000E098000030B591B00190009179
:101D30009E4B180001F000FE03000A93019B9C4A91
:101D400093420AD10220FFF74BFF9A4B0121180062
:101D500001F090FD984B00221A60019B974A934234
:101D600007D10720FFF73CFF954B0121180001F038
:101D700081FD019B934A934207D11420FFF730FF66
:101D8000914B0121180001F075FD05AB00225A713D
:101D900005AB0022DA7005AB00221A71009B1A789D
:101DA00005AB5A7005AB00225A7205AB00221A70BF
:101DB00005AB00229A7105AB00221A7205AB002216
:101DC000DA7205AB00229A7205AB0022DA7105AB1C
:101DD00000221A73009BDB69042B02D105AB02229F
:101DE0009A70009BDA698023DB009A4202D105AB2E
:101DF0000A229A7005AA019B1100180002F084FDC6
:101E0000009B9B68002B04D10022704B0E920F9315
:101E100008E0009B9B68180005F08EFF02000B0095
:101E20000E920F930A9805F087FF04000D00009BA7
:101E3000DB69180005F080FF0E9A0F9B05F046F94C
:101E400002000B002000290004F04AFE02000B00F3
:101E50001000190000225E4B05F0A6FB02000B00EB
:101E60001000190003F0B6FE03000993099A019BC4
:101E700011001800FFF73CFF02AB02225A7102ABBF
:101E800003221A7102AB00225A7202AB0022DA70EE
:101E900002AB03225A7002AB00221A7002AB00227E
:101EA000DA7102AB03229A7102AB00229A7202AB82
:101EB00000221A7202AB0022DA7202AB00229A7080
:101EC00002AA019B0021180002F09AFD02AA019BC0
:101ED0000121180002F094FD02AA019B02211800C2
:101EE00002F08EFD009BDB68099A534364211800C1
:101EF00003F03EFD03000D93009B1B69099A5343B9
:101F00006421180003F034FD03000C93009B5B690F
:101F1000099A53436421180003F02AFD03000B9330
:101F2000009BDB68642B02D1099B01330D93009B5E
:101F30001B69642B02D1099B01330C93009B5B69E5
:101F4000642B02D1099B01330B930D9A019B002155
:101F50001800FFF785FE0C9A019B01211800FFF77E
:101F60007FFE0B9A019B02211800FFF779FE009B70
:101F70005A68009B1B7E19000B00DB005B1A1A439A
:101F8000009B5B7E19000B00DB005B1ADB011A4330
:101F9000019B9A62009B20229B5C002B02D0019B3C
:101FA0000122DA60C04611B030BDC0464081040055
:101FB0000000014000020400B006002000040140BF
:101FC0000012040000080140002204000000D03F7D
:101FD0000000F03F00B583B001900A006B46033368
:101FE0001A706B4603331A78019B11001800FFF733
:101FF00059FEC04603B000BD00B587B00390029102
:102000000192019B642B04D1039BDB69013305938F
:1020100009E0039BDB69019A53436421180003F034
:10202000A7FC03000593059A0299039B1800FFF78C
:1020300017FEC04607B000BD00B589B00190354B12
:10204000180001F079FC03000793019B324A934288
:102050000AD10720FFF7C4FD304B0121180001F021
:1020600009FC2F4B00221A6002AB00225A7102AB0E
:102070000022DA7002AB00221A7102AB00225A7001
:1020800002AB00225A7202AB00221A7002AB00228D
:102090009A7102AB00221A7202AB0122DA7202AB11
:1020A0000A229A7002AB00229A7202AB0022DA7105
:1020B00002AB00221A7302AA019B1100180002F061
:1020C00023FC079805F038FE0022164B04F008FDAB
:1020D00002000B00100019000022134B05F064FAF7
:1020E00002000B001000190003F074FD03000693BA
:1020F000069A019B11001800FFF7FAFD019B0122CF
:10210000DA60054B01211800FFF764FFC04609B0F3
:1021100000BDC046408104000004014000120400DC
:10212000B4060020000070400000F03F82B0094B70
:102130001A69084BDB6813400193064B019A9A61B8
:10214000019B0122134002D0034B01221A60C046BA
:1021500002B0704700000140B006002000B583B017
:10216000084B1A69074BDB6813400193054B019A32
:102170009A61019B0122134001D000F005F8C0468E
:1021800003B000BD00040140024B01221A60C046AA
:102190007047C046B406002010B5084B9B6801226A
:1021A000134005D1054B01211800FFF713FF02E092
:1021B000024B00225A62C04610BDC04600040140D6
:1021C00082B00190019B084A934202D1074B1B68E1
:1021D00007E0019B064A934202D1064B1B6800E0D0
:1021E0000023180002B0704700000140B006002034
:1021F00000040140B406002082B00190019B084A0F
:10220000934202D1074B00221A60019B064A934277
:1022100003D1064B00221A6000E0C04602B07047AE
:1022200000000140B006002000040140B406002078
:1022300082B002006B4607331A706B4607331B7877
:102240007F2B0AD86B4607331B781A001F231A40CE
:10225000034B012191400A001A60C04602B070474A
:1022600000E100E000B583B0020000916B46073347
:102270001A706B4607331B78002B26D06B4607334A
:102280001B78012B1ED06B4607331B78022B17D00F
:102290006B4607331B78032B10D06B4607331B7834
:1022A000042B08D06B4607331B78052B01D13F2345
:1022B0000CE000230AE0F0239B0107E0F02305E097
:1022C000114B03E0D323DB0100E0104B009AD34015
:1022D0000122134006D1F9239A000D4B110018007A
:1022E00000F0F0FE0B486B4607331A780121009B83
:1022F00099401300DB009B189B00C318143319602E
:10230000C04603B000BDC0461FEF00000707000035
:10231000589900000060004000B583B002000091B1
:102320006B4607331A706B4607331B78002B26D099
:102330006B4607331B78012B1ED06B4607331B7887
:10234000022B17D06B4607331B78032B10D06B463C
:1023500007331B78042B08D06B4607331B78052BFB
:1023600001D13F230CE000230AE0F0239B0107E0AA
:10237000F02305E0104B03E0D323DB0100E00F4B1B
:10238000009AD3400122134005D10D4A0D4B110094
:10239000180000F097FE0C486B4607331A780121AD
:1023A000009B99401300DB009B189B00C31810335F
:1023B0001960C04603B000BD1FEF00000707000012
:1023C00013040000589900000060004010B588B068
:1023D00001900091019B4B4A93420ED14A4B01213F
:1023E000180001F047FA1120FFF722FF1220FFF733
:1023F0001FFF464B212200219954019B444A9342DE
:102400000ED1444B0121180001F034FA0820FFF7E7
:102410000FFF0920FFF70CFF3F4B212200219954A9
:10242000019B1B6C0122134010D1019B01225A64B5
:10243000019B1B6C0122134004D1384B2221180050
:1024400000F040FE019B01229A640CE0019B0122F6
:102450009A64019B1B6C0122134004D02F4B262150
:10246000180000F02FFE019B180002F023FC02ABC5
:102470002B4A13CA13C313CA13C3009B5A7C02AB63
:102480005A73009B5A7E02AB5A75009B1A7E02ABB0
:102490001A75009BDA6802AB9A60009B1A7C02AB4B
:1024A0001A7302AB00221A70009B9A7C02AB9A73DB
:1024B000009BDA7D02ABDA74009B9A7D02AB9A74C2
:1024C000009B9A6802AB5A60009B9A8A02AB1A8200
:1024D00002AA019B1100180002F078FB019BC022A8
:1024E0001201DA60009B1B680B221A43019B5A659C
:1024F000009B1A79019B1100180002F035FBC046C1
:1025000008B010BD00C0004000320400B806002032
:1025100000C4004000420400E8060020D0990000FA
:10252000DC99000000B587B00390029101920093FE
:10253000039B374A934201D1364B0593039B364A9E
:10254000934201D1354B0593C046059B21229B5CEC
:10255000DBB2002BF9D101F025FD03000493059BAC
:10256000212201219954059B009A5A61059B089AE2
:102570001A61059B029ADA60059B019A9A60059B95
:10258000039A5A60059B01221A70059B009A9A6172
:10259000059B0022DA61059B09AA202112785A5472
:1025A000059B0A9A5A62059B0BAA282112785A5455
:1025B000059B0C9ADA62059B1B6900221A60039B3B
:1025C000C0221201DA60059B28229A5C059BDB6A17
:1025D00019001000FFF746FE039B0222DA6409ABE4
:1025E0001B78002B06D0039BDB6C04221A43039B51
:1025F000DA6406E0039BDB6C042293431A00039B1E
:10260000DA64049B180001F0D9FCC04607B000BD95
:1026100000C00040B806002000C40040E8060020CA
:1026200082B00190019B0A4A934204D1094B2122B6
:102630009B5CDBB209E0019B074A934204D1074B44
:1026400021229B5CDBB200E00023180002B070473F
:1026500000C00040B806002000C40040E80600208A
:1026600000B583B0094B1A6C084BDB6C1340019327
:10267000064B019A9A64019B0422134003D0044B39
:10268000180000F031F9C04603B000BD00C00040A2
:10269000B806002000B583B0094B1A6C084BDB6C00
:1026A00013400193064B019A9A64019B0422134044
:1026B00003D0044B180000F017F9C04603B000BD6A
:1026C00000C40040E806002000B583B0124B1A6C2D
:1026D000114BDB6C134001930F4B019A9A64019BE1
:1026E0000222134003D00D4B180000F049F8019B63
:1026F000012213400DD0084B1B6C0122134004D063
:10270000074B9621180000F0DDFC044B180000F088
:10271000BFF8C04603B000BD00C00040B8060020AE
:10272000D099000000B583B0124B1A6C114BDB6CD2
:10273000134001930F4B019A9A64019B02221340AC
:1027400003D00D4B180000F01BF8019B0122134031
:102750000DD0084B1B6C0122134004D0074BA42161
:10276000180000F0AFFC044B180000F091F8C046D0
:1027700003B000BD00C40040E8060020D09900006E
:1027800000B583B00190019B1B78012B02D0022B76
:1027900010D071E0019B02221A70019B20229B5CE9
:1027A000DB011900019BDB685A00019B5B680A434F
:1027B0005A6368E0019B20229B5C002B29D0019B7F
:1027C000DB695A1C019BDA61019BDA69019B5B6939
:1027D0009A420BD3019B5B68DA6C019B5B68022118
:1027E0008A43DA64019B5B6800225A63019BDA69C1
:1027F000019B5B699A4245D2019B20229B5CDB01D5
:102800001900019BDB685A00019B5B680A435A630D
:1028100038E0019BDB695A1C019BDA61019BDA6994
:10282000019B5B699A4212D3019B5B68DA6C019B46
:102830005B6802218A43DA64019B03221A70019BC0
:102840005B68DA6C019B5B6801210A43DA64019BD7
:10285000DA69019B5B699A4214D8019B9A68019BD3
:102860005969019BDB69CB1ADB00DA40019B5B688D
:10287000FF210A405A6305E0044BCB21180000F009
:1028800021FC00E0C046C04603B000BDD099000066
:1028900000B583B00190019B1B78032B18D1019BDD
:1028A00004221A70019B5B68DA6C019B5B68012152
:1028B0008A43DA64019B212200219954019B28223A
:1028C0009A5C019BDB6A19001000FFF725FD05E00B
:1028D000044BE021180000F0F5FBC046C04603B0F1
:1028E00000BDC046D099000000B585B00190019BA5
:1028F0005B68DB690393019B1B78022B42D1019B30
:102900009A69019B5B699A4205D1019B9B695A1E9A
:10291000019B9A613FE0019B1B691968019B9B69C0
:10292000DB00039A9A40019B1B690A431A60019BD2
:102930009B69002B20D1019B5B68DA6C019B5B6873
:1029400004218A43DA64019B5B68DA6C019B5B6853
:1029500002218A43DA64019B212200219954019BC0
:1029600028229A5C019BDB6A19001000FFF7D4FC57
:10297000019B04221A700EE0019B9B695A1E019B69
:102980009A6108E00623FF331A00044B1100180077
:1029900000F098FBC046C04605B000BDD0990000CD
:1029A00010B50521112001F067F9094B012118002C
:1029B00000F060FF074B0321180001F05DF9064BA2
:1029C0000321180001F058F90023180010BDC0467B
:1029D000D0233E0002001E0003002000024BDB6CEF
:1029E0001B0EDBB218007047B081E00F10B582B04B
:1029F0000C4B01221A646B46DC1DFFF7EFFF03004E
:102A000023706B4607331B78812B08D8064B074A87
:102A10001A60074B1A68064B06490A401A60C046FE
:102A200002B010BD00000C4018600C40050000040E
:102A3000E4800C40FFFFFFFE10B5FFF7D7FF02F068
:102A400007FAFFF7ADFF02F089F9C04610BD10B5D7
:102A500000F014F8C04610BD10B502F01DFAC046D3
:102A600010BDC0467047C0467047C0467047C0465C
:102A70007047C0467047C0467047000010B5034B12
:102A8000180000F009F9C04610BDC046F4990000D6
:102A900000B585B000F0CAF80C4B03930C4B0293C1
:102AA0000B4B01930B4B00930AE0039A131D039306
:102AB000029B191D029112681A60019B0433019355
:102AC000019A009B9A42F0D3FDF70EFBD8A50000B7
:102AD0000004002084040020FEE7000000B583B05D
:102AE00000F01CF803000193074B5B680F221340B2
:102AF000019ADA4013000193044B019A1A60019B7A
:102B0000180003B000BDC04600800C400C0400203B
:102B1000014B18007047C04600366E0100B583B007
:102B2000384BDB6A384A13408022D204934220D0CB
:102B30008022D20493421FD88022920193420CD06B
:102B400080229201934217D88022120193420CD026
:102B500080225201934204D00EE02C4B1B6801935B
:102B600041E080231B0201933DE0294B1B68019348
:102B700039E0284B019336E0224BDA68E023DB0092
:102B800013408022D20093421AD08022D200934276
:102B900025D8C0229200934215D0C02292009342C1
:102BA0001DD880229200934210D08022920093423E
:102BB00015D8002B10D080225200934209D00EE08D
:102BC000154B01930EE0154B01930BE0144B019351
:102BD00008E0144B019305E0134B019302E000233E
:102BE0000193C046C046074B1B689B0B072213404E
:102BF00001331900019802F0BBFE0300180003B076
:102C000000BDC04600800C40003C000408040020C9
:102C10000404002000366E01406F4001809FD50003
:102C2000C0D8A70040B56400804F1200024B034A91
:102C30009A60C0467047C04600ED00E0000000000A
:102C400080231B0218007047FA239B00180070476E
:102C5000014B1B68180070470804002084B00190E5
:102C60000B4B1A68019BD2180A4B9A4202D90123D6
:102C70005B4209E0064B1B680393054B1A68019BF6
:102C8000D218034B1A60039B180004B07047C0466B
:102C9000100400200020002000B583B00190019BAB
:102CA0005A68019B1B68180090470300180003B086
:102CB00000BD82B001900091019B1A68009BDA4030
:102CC000130001221340180002B0704700B583B012
:102CD000020000916B4607331A706B4607331B786E
:102CE000002B26D06B4607331B78012B1ED06B467A
:102CF00007331B78022B17D06B4607331B78032B47
:102D000010D06B4607331B78042B08D06B46073373
:102D10001B78052B01D13F230CE000230AE0F023B0
:102D20009B0107E0F02305E0114B03E0D323DB0117
:102D300000E0104B009AD3400122134006D1F92342
:102D40009A000D4B1100180000F0BCF90B486B46BF
:102D500007331A780121009B99401300DB009B1870
:102D60009B00C31814331960C04603B000BDC046B1
:102D70001FEF0000070700000C9A000000600040F1
:102D800000B583B0020000916B4607331A706B46A2
:102D900007331B78002B26D06B4607331B78012B9B
:102DA0001ED06B4607331B78022B17D06B460733B8
:102DB0001B78032B10D06B4607331B78042B08D0ED
:102DC0006B4607331B78052B01D13F230CE0002312
:102DD0000AE0F0239B0107E0F02305E0124B03E03B
:102DE000D323DB0100E0114B009AD34001221340B2
:102DF00005D10F4A0F4B1100180000F063F96B4624
:102E000007331A781300DB009B189B000C330A4A27
:102E100094466344009A11001800FFF74AFF03002C
:102E2000180003B000BDC0461FEF000007070000F8
:102E3000FE0300000C9A00000060004000B583B063
:102E4000020000916B4607331A706B4607331B78FC
:102E5000002B26D06B4607331B78012B1ED06B4608
:102E600007331B78022B17D06B4607331B78032BD5
:102E700010D06B4607331B78042B08D06B46073302
:102E80001B78052B01D13F230CE000230AE0F0233F
:102E90009B0107E0F02305E0104B03E0D323DB01A7
:102EA00000E00F4B009AD3400122134005D10D4A98
:102EB0000D4B1100180000F005F90C486B46073364
:102EC0001A780121009B99401300DB009B189B009E
:102ED000C31810331960C04603B000BD1FEF0000D7
:102EE00007070000130400000C9A00000060004077
:102EF00000B583B0020000916B4607331A706B4631
:102F000007331B78002B26D06B4607331B78012B29
:102F10001ED06B4607331B78022B17D06B46073346
:102F20001B78032B10D06B4607331B78042B08D07B
:102F30006B4607331B78052B01D13F230CE00023A0
:102F40000AE0F0239B0107E0F02305E0104B03E0CB
:102F5000D323DB0100E00F4B009AD3400122134042
:102F600005D10D4A0D4B1100180000F0ABF80C48CC
:102F70006B4607331A780121009B99401300DB0050
:102F80009B189B00C31818331960C04603B000BDDE
:102F90001FEF0000070700002E0400000C9A00003D
:102FA0000060004000B585B00190019B03930D4B7C
:102FB0000121180000F05EFC0B4B0121180000F00D
:102FC00059FC039B1878039B5B781900039B9B7843
:102FD0005A425341DBB2042201F0C4F80023180026
:102FE00005B000BD408104000082040000B585B03A
:102FF0000190019B0393039B9B78002B08D1039BBB
:103000001A78039B5B7819001000FFF75FFE07E05A
:10301000039B1A78039B5B7819001000FFF70EFFE3
:10302000C04605B000BD00B585B00190019B03937B
:10303000039B9B78002B08D1039B1A78039B5B783A
:1030400019001000FFF7FAFE07E0039B1A78039BB4
:103050005B7819001000FFF739FEC04605B000BDCF
:1030600000B585B00190019B0393039B1A78039BE5
:103070005B7819001000FFF73BFFC04605B000BDAC
:1030800000B585B00190019B0393039B1A78039BC5
:103090005B7819001000FFF773FE02000B236B44EE
:1030A0001A70039B9B78002B06D10B236B441B7873
:1030B0005A425341DBB202E00B236B441B781800E9
:1030C00005B000BD82B001900091FEE700B583B06D
:1030D0000190019B1F2B07D93023FF331A00064BA9
:1030E00011001800FFF7EEFF0122019B9A40130028
:1030F000180003B000BDC046849A000000B587B038
:10310000039002910192029B1F2B04D90D4B912138
:103110001800FFF7D7FF039B1B6805930122029B52
:103120009A401300DB431A00059B1A40019B0121C2
:103130001940029B99400B001A43039B1A60C0463A
:1031400007B000BD009B000082B001900091019B80
:103150001A68009BDA40130001221340180002B0E5
:103160007047000000B585B00190019B002B04D092
:10317000019A80231B029A4205D9094A094B110082
:103180001800FFF79FFF019802F0B8FC0300DBB2C4
:103190001A001F239B1A0393039B180005B000BD60
:1031A000350C0000789B0000024BDB6C1B0EDBB281
:1031B00018007047B081E00F00B583B0274B5A6903
:1031C000E023DB001340E022D200934236D0E0221D
:1031D000D200934235D8C0229200934212D0C0222E
:1031E000920093422DD880229200934215D08022E3
:1031F0009200934225D8002B1DD08022520093428A
:1032000016D01EE0FFF7D0FF0300122B02D9144B9B
:1032100001931FE0134B01931CE0FFF7C5FF030070
:10322000122B02D9104B019314E0104B019311E0C3
:103230000F4B01930EE00F4B01930BE00E4B0193EC
:1032400008E0002301930D4A0D4B11001800FFF711
:1032500039FFC046019B180003B000BD00800C4040
:10326000804F120040420F0040B56400C0CF6A009A
:10327000C0D8A700809FD500406F4001C212000057
:10328000F09B000010B582B06B46DC1C114B18009F
:1032900000F01CFC030023706B4603331B78072BE4
:1032A00006D0092B09D1FFF739FC030001930DE08B
:1032B000FFF782FF0300019308E000230193064A11
:1032C000064B11001800FFF7FDFEC046019B1800D9
:1032D00002B010BD06000E00FC120000F09B0000C2
:1032E00084B0019000910F4B5B6807221340039359
:1032F000019B0D4A934202D80023039305E0019BF2
:103300000A4A934201D801230393064B5B680722C4
:1033100093431900034B039A0A435A60C04604B012
:103320007047C04600000C400024F4000048E8014B
:1033300000B583B00D4BDA6B6B460733511E8A41E3
:103340001A700A4B0A4ADA63FFF7E2FB0300002116
:103350001800FFF7C5FF6B4607331B78002B02D020
:10336000024B0022DA63C04603B000BD00000C40EF
:10337000711B000000B585B0019000910D4BDA6B18
:103380000F236B44511E8A411A700A4B0A4ADA63B2
:10339000009A019B11001800FFF7A2FF0F236B4456
:1033A0001B78002B02D0034B0022DA63C04605B025
:1033B00000BDC04600000C40711B000000B585B088
:1033C000019000230293019B494A934212D0019B32
:1033D000474A934207D8019B464A93420AD0019B31
:1033E000454A934206D0454A454B11001800FFF765
:1033F00069FE00E0C046019B180000F067FB030077
:103400000393019B3A4A934219D0019B384A934255
:103410001CD8019B374A934204D0019B364A934201
:1034200006D013E0374B9B6A03221340039314E04A
:10343000344B9B6A9B080322134003930DE0314BEE
:103440009B6A1B0903221340039306E02E4A2C4B70
:1034500011001800FFF736FEC046039B032B18D05F
:10346000039B032B36D8039B022B0DD0039B022B0F
:1034700030D8039B002B12D0039B012B2AD1FFF7DE
:10348000DFFB030002932FE0FFF7E2FB0300029350
:103490002AE0FFF723FB03005B08029324E00023EC
:1034A0000293019B134A934203D0019B124A934219
:1034B00019D1144B9A6A019B0E498B4201D11023FA
:1034C00000E01423DA40131E0DD0FFF7BDFB03000C
:1034D000029308E0002302930C4A094B11001800E4
:1034E000FFF7F0FD00E0C046029B180005B000BDEC
:1034F0000400220002001E00030020003A15000014
:10350000F09B000000800C4069150000941500003D
:1035100082B00190074B5B6D0122134006D1C0467B
:10352000044B1B6D019A1340FAD100E0C04602B073
:103530007047C04600800C40C0467047C046704788
:1035400000B585B00190019B1B090F221340029327
:10355000029B0D2B67D8029B9A00394BD3181B682E
:103560009F46384B1B689B0B072213400133039384
:1035700062E0344B9B680F2213400393039B1800B7
:10358000FFF7A4FD0300039356E02E4B5B680F2268
:1035900013400393039B1800FFF798FD0300039368
:1035A0004AE0284B5B681B0A012213400393039BEC
:1035B00001331800FFF78AFD030003933CE0019BF1
:1035C000214A93420BD11F4B9B6E0F221340039352
:1035D000039B1800FFF77AFD0300039308E0012323
:1035E00003931A4A1A4B11001800FFF76BFDC046EF
:1035F00022E0019B174A93420BD1124B1B6F03220F
:1036000013400393039B1800FFF760FD030003932F
:1036100008E001230393104A0D4B11001800FFF737
:1036200051FDC04608E0012303930C4A084B1100EA
:103630001800FFF747FDC046039B180005B000BD0A
:10364000689C000000800C408006120056180000A4
:10365000F09B000090071A006F1800007618000019
:1036600000B585B001900091019B1B090F2213400A
:103670000393039B0D2B00D9D3E0039B9A006E4B61
:10368000D3181B689F46009B002B02D0009B082B81
:1036900005D96A4A6A4B11001800FFF713FDFFF7BE
:1036A00047FE684B1B68684A13401900009B013BAA
:1036B0009A03644B0A431A60FFF710FA030002935F
:1036C000029B00211800FFF755FEB1E0009B002B84
:1036D00004D0009A80239B009A4205D95B4A584B3C
:1036E00011001800FFF7EEFC009B1800FFF73AFDF1
:1036F00003000093534B9B680F2293431900514BD7
:10370000009A0A439A6093E0009B1800FFF72AFD95
:103710000300013B00934B4B5B684D4A134019007B
:10372000009B1A02474B0A435A6081E0009B002B22
:1037300004D0009A80239B009A4205D9454A404B09
:1037400011001800FFF7BEFCFFF7F2FD009B180008
:10375000FFF708FD030000933A4B5B680F22934389
:103760001900384B009A0A435A60FFF7B7F9030073
:103770000293029B00211800FFF7FCFD58E0019B1B
:10378000354A93421DD1009A80231B029A4205D9E3
:10379000324A2B4B11001800FFF794FC0420FFF76E
:1037A000B7FE009B1800FFF7DDFC03000093254BDC
:1037B0009B6E0F2293431900224B009A0A439A668C
:1037C00006E0274A1E4B11001800FFF77BFCC0469D
:1037D0002EE0019B234A93421BD1009B082B05D965
:1037E000214A174B11001800FFF76CFC4020FFF72F
:1037F0008FFE009B1800FFF7B5FC03000093114BF0
:103800001B6F0322934319000E4B009A0A431A6759
:1038100006E0164A0A4B11001800FFF753FCC04699
:1038200006E0134A064B11001800FFF74BFCC04698
:10383000C04605B000BDC046A09C0000A318000013
:10384000F09B000000800C40FF3FFEFFB618000018
:10385000FFFEFFFFCC18000080061200EA180000EF
:103860002519000090071A002E1900004B190000BE
:103870005119000000B587B001900A006B46033370
:103880001A7000230493019B1B0A0F2213400A2B7A
:1038900020D89A001E4BD3181B689F461D4B0593DA
:1038A0001FE01D4B05931CE01C4B059319E01C4BBE
:1038B00005930123049314E01A4B059310230493FA
:1038C0000FE0194B059380235B00049309E0174B2D
:1038D000059306E0164A174B11001800FFF7F2FB9C
:1038E00013E0019B1B0B1F2213400393049B002B2F
:1038F00003D0049B1800FFF70BFE6B4603331A78C6
:103900000399059B1800FFF7F9FB07B000BDC046FF
:10391000D89C000040800C4008800C4044800C4043
:1039200058800C4060800C4064800C4078800C40D3
:10393000D7190000F09B000010B584B00190019AE7
:10394000F8239B031340F8229203934200D196E0A0
:10395000F8229203934200D9A0E08022920393427E
:1039600000D16CE080229203934200D996E0F022CD
:10397000520393424DD0F0225203934200D98DE07E
:10398000D0225203934261D0D0225203934200D9F5
:1039900084E090225203934242D0902252039342F9
:1039A00000D97BE080225203934263D080225203ED
:1039B000934200D972E0E0221203934255D0E022F4
:1039C000120393426AD88022D20293420FD08022FF
:1039D000D202934262D8002B04D0802292029342FA
:1039E00012D05BE0FFF79AF8030003935FE0FFF764
:1039F00095F803000393304B9B680F221340039A02
:103A0000DA401300039352E0FFF768F803000393D2
:103A10004DE02A4B1800FFF7D1FC0300039346E06A
:103A2000264B1800FFF7CAFC03000393224B9B6E42
:103A30000F221340039ADA401300039337E0204B20
:103A40001800FFF7BBFC0300039330E01C4B180089
:103A5000FFF7B4FC03000393174B1B6F03221340C3
:103A6000039ADA401300039321E0FFF70BFC0300F5
:103A700003931CE0FFF7A0FB0300039317E0FFF79D
:103A80002DF80400019B1800FFF75AFD03001900F0
:103A9000200001F06DFF0300039308E0002303936F
:103AA000084A094B11001800FFF70CFBC046039BA6
:103AB000180004B010BDC04600800C4002001E007B
:103AC00003002000071B0000F09B000000B585B03C
:103AD00001900F236B4401221A70019B0F221340A7
:103AE0000293029B062B00D9AAE0029B9A005D4B31
:103AF000D3181B689F465C4BDB6A5C4A13408022EC
:103B0000D204934223D08022D204934224D880222C
:103B1000920193420CD08022920193421CD88022C1
:103B2000120193420ED080225201934205D013E03D
:103B30000F236B4402221A7013E00F236B440322FD
:103B40001A700EE00F236B4404221A7009E00F2351
:103B50006B440B221A7004E00F236B4405221A7089
:103B6000C04678E0404B9B6A03221340032B0FD0E2
:103B700013D8012B02D0022B05D00EE00F236B448B
:103B800003221A7015E00F236B4402221A7010E012
:103B90000F236B4406221A700BE0334B9A6A802382
:103BA0005B02134004D00F236B440C221A7000E018
:103BB000C04650E02C4B9B6A0C2213400C2B0FD0BC
:103BC00013D8042B02D0082B05D00EE00F236B4432
:103BD00003221A7015E00F236B4402221A7010E0C2
:103BE0000F236B4406221A700BE01F4B9A6A802346
:103BF0005B03134004D00F236B440C221A7000E0C7
:103C0000C04628E0184B9B6A30221340102B02D08C
:103C1000202B05D009E00F236B4403221A7009E022
:103C20000F236B4402221A7004E00F236B4401221D
:103C30001A70C0460FE00F236B4407221A700AE087
:103C40000F236B4400221A70094A0A4B1100180016
:103C5000FFF738FAC0460F236B441B78180005B0F5
:103C600000BDC046049D000000800C40003C0004E4
:103C7000271F0000F09B000000B589B001900A00EA
:103C80006B4603331A70032307931B236B440322F1
:103C90001A7000230493019B0F2213400393039B8C
:103CA000042B00D1B6E0039B042B00D9E2E0039B78
:103CB000012B09D0039B002B00D1DBE0039B023BCF
:103CC000012B00D9D6E055E06B4603331B780C2B53
:103CD0002ED89A006C4BD3181B689F460423079379
:103CE0001B236B4400221A7029E0032307931B2334
:103CF0006B4401221A7022E0022307931B236B44BA
:103D000002221A701BE0012307931B236B4403223A
:103D10001A7014E0052307931B236B4405221A70C5
:103D20000DE05A4A5A4B11001800FFF7CBF9A8E0F2
:103D3000584A574B11001800FFF7C4F9A1E01B23A4
:103D40006B441B7801220121180000F0B5F8FFF741
:103D5000EFFAFFF7F1FB504B079A5A62FEF7BEFEEF
:103D600003000293029B00211800FFF703FBFFF7FB
:103D7000E5FB86E06B4603331B780C2B25D89A00B5
:103D8000464BD3181B689F460023059324E001226D
:103D90000121002000F090F8022305931CE001228D
:103DA0000121012000F088F80123059314E03C4B29
:103DB000012202211800FFF7A1F9032305930BE06C
:103DC000002305930123049306E0364A304B11008B
:103DD0001800FFF777F954E0039B022B0CD12E4B10
:103DE0009B6A314A1A40059B1A431100049B1A042E
:103DF000294B0A439A6244E0274B9B6A2B4A1A409C
:103E0000059B9B001A431100049B1A05224B0A4391
:103E10009A6236E06B4603331B78032B10D017DC15
:103E2000012B02D0022B03D012E00023059316E0F1
:103E300001220121002000F03FF8022305930EE04B
:103E400001220121012000F037F80123059306E04B
:103E5000174A0F4B11001800FFF734F911E00E4B11
:103E60009B6A302293431900059B1A010A4B0A43AF
:103E70009A6206E00F4A064B11001800FFF722F97C
:103E8000C04609B000BDC046209D0000E81F0000EC
:103E9000F09B0000ED1F000000800C40549D0000CE
:103EA00040800C4096200000FCFFFEFFF3FFEFFF78
:103EB000C72000002622000010B586B004000800CC
:103EC00011006B460733221C1A706B460633021C26
:103ED0001A706B4605330A1C1A706B4607331B7841
:103EE000052B32D89A002A4BD3181B689F46012312
:103EF000049302230393012305932DE004230493E9
:103F0000082303930323059326E01023049320231F
:103F10000393052305931FE0402304938023039319
:103F20000723059318E080235B00049380239B0004
:103F30000393092305930FE08023DB000493802380
:103F40001B0103931623059306E0124A124B11003E
:103F50001800FFF7B7F819E06B4606331B78002B03
:103F600011D00E4B049A1A626B4605331B78002B56
:103F70000CD0C046059B0A4A19001000FFF7E4F870
:103F8000031EF7D002E0054B039A1A6206B010BD7B
:103F9000889D000074260000F09B000000800C400B
:103FA0002C800C4082B0EFF310830093009B0193B0
:103FB00072B6C046019B180002B0704782B00190F3
:103FC000019B002B01D162B6C046C04602B07047CB
:103FD00082B0EFF310830093009B019372B6C0464A
:103FE000019B180002B0704782B00190019B002B2A
:103FF00001D162B6C046C04602B0704700B583B07A
:10400000020000916B4607331A706B4607331B782A
:10401000002B26D06B4607331B78012B1ED06B4636
:1040200007331B78022B17D06B4607331B78032B03
:1040300010D06B4607331B78042B08D06B46073330
:104040001B78052B01D13F230CE000230AE0F0236D
:104050009B0107E0F02305E0114B03E0D323DB01D4
:1040600000E0104B009AD3400122134006D1F923FF
:104070009A000D4B11001800FFF724F80B486B460F
:1040800007331A780121009B99401300DB009B182D
:104090009B00C31814331960C04603B000BDC0466E
:1040A0001FEF000007070000189E0000006000409E
:1040B00000B583B0020000916B4607331A706B465F
:1040C00007331B78002B26D06B4607331B78012B58
:1040D0001ED06B4607331B78022B17D06B46073375
:1040E0001B78032B10D06B4607331B78042B08D0AA
:1040F0006B4607331B78052B01D13F230CE00023CF
:104100000AE0F0239B0107E0F02305E0104B03E0F9
:10411000D323DB0100E00F4B009AD3400122134070
:1041200005D10D4A0D4B11001800FEF7CBFF0C48CE
:104130006B4607331A780121009B99401300DB007E
:104140009B189B00C31810331960C04603B000BD14
:104150001FEF00000707000013040000189E000076
:104160000060004000B585B00291110001930F235B
:104170006B44021C1A700E236B440A1C1A700F2326
:104180006B441B78002B26D00F236B441B78012B2C
:104190001ED00F236B441B78022B17D00F236B44C8
:1041A0001B78032B10D00F236B441B78042B08D0F3
:1041B0000F236B441B78052B01D13F230CE0002318
:1041C0000AE0F0239B0107E0F02305E04C4B03E0FD
:1041D000D323DB0100E04B4B029AD3400122134072
:1041E00007D11E23FF331A00474B11001800FEF7BA
:1041F00069FF0E236B441B78002B13D0019B002B0F
:1042000008D0029A0F236B441B7811001800FFF7A7
:104210004FFF07E0029A0F236B441B781100180030
:10422000FFF7ECFE029B072B26D838490F236B447F
:104230001A781300DB009B189B00CB1804331B6813
:10424000029A92000F2191400A00D24313400E229D
:104250006A441178029A920091400A0011002B489A
:104260000F226A44127819431300DB009B189B004D
:10427000C3180433196027E024490F236B441A78CC
:104280001300DB009B189B00CB1808331B68029AB5
:10429000083A92000F2191400A00D24313400E22A7
:1042A0006A441178029A083A920091400A0011007B
:1042B00016480F226A44127819431300DB009B183A
:1042C0009B00C318083319600E236B441B78002B26
:1042D00013D1019B002B08D0029A0F236B441B784B
:1042E00011001800FFF7E4FE07E0029A0F236B4469
:1042F0001B7811001800FFF781FEC04605B000BD15
:104300001FEF000007070000909E000000600040C3
:1043100082B001900091019B009A1A63C04602B0DE
:104320007047000000B587B0039002910192029B94
:104330001F2B04D90D4B91211800FEF7C3FE039BE0
:104340001B6805930122029B9A401300DB431A006D
:10435000059B1A40019B01211940029B99400B00CB
:104360001A43039B1A60C04607B000BD089F0000B7
:1043700000B587B0039002910192FFF713FE03008E
:104380000593039B1B68029AD2431A40019B029932
:104390000B401A43039B1A60059B1800FFF70EFEA3
:1043A000C04607B000BD000000B589B0039002917F
:1043B00001921A006B4603331A70019B002B07D140
:1043C0001023FF331A00614B11001800FEF77AFE2C
:1043D000019B002B00D1B5E06B4603336A460332E4
:1043E000127803210A401A70039B1B68584A1A402E
:1043F000039B1A6003986B4603331B781B021A0059
:10440000C0239B001900FFF7B3FF029B002B12D1C2
:10441000039B504A934206D14F4B1800FFF78CFA8A
:104420000300029307E02A23FF331A00474B1100D1
:104430001800FEF747FE01235B420793039B1B68AE
:104440000222134013D06B4603331B78022B0BD090
:1044500021DC002B02D0012B03D01CE03F4B079343
:104460001CE03F4B079319E03E4B079316E06B4669
:1044700003331B78022B0BD00FDC002B02D0012B57
:1044800003D00AE0384B079308E0384B079305E068
:10449000374B079302E0C04600E0C046029A079BF4
:1044A0009A4206D8AF235A00284B11001800FEF795
:1044B00009FE6B4603331B782E4AD35C0593059B9C
:1044C000019A53430493049B002B08D17023FF33BC
:1044D0001A001E4B11001800FEF7F4FD33E0019B9B
:1044E0009B00029AD21A049BD318013B049918002E
:1044F00001F03EFA0300013B0693069B002B07DA0E
:104500007623FF331A00114B11001800FEF7DAFD75
:10451000069A80239B009A4206D3BB235A000B4B7A
:1045200011001800FEF7CEFD039B1B68022213400A
:1045300004D0069B002B01D101230693069A039B0E
:104540001A6100E0C04609B000BDC046809F00006F
:10455000FFFCFFFF00A0004000B204004016400036
:10456000C0D8A7008050740180841E004054890088
:10457000002D3101B09F000000B583B001900A000A
:104580006B4603331A70019B0A4A934207D090236B
:10459000FF331A00084B11001800FEF793FD019835
:1045A0006B4603331B781A000021FFF7BBFEC046A1
:1045B00003B000BD00A00040809F000000B583B0A4
:1045C00001900091019B184A934206D0D2235A00D1
:1045D000164B11001800FEF775FD019B00225A636F
:1045E000134A019B11001800FFF792FE0198009BEF
:1045F0005B7801225340DBB21A000121FFF792FEE3
:10460000009B5968009B9A68009B1B7B0198FFF7F1
:10461000CBFE009B1A78019B11001800FFF7ACFF3E
:10462000C04603B000BDC04600A00040809F00000F
:10463000FFFF010082B001900091019B1B6C0122E1
:10464000134006D1C046019B5B6C009A1340FAD11F
:1046500000E0C04602B0704700B587B003900291F9
:104660000192019B002B04D1224BFE211800FEF782
:1046700029FD029B002B14D1039B1F4A934208D1B2
:104680001E4B0593059B1800FFF756F90300029394
:1046900007E093235A00174B11001800FEF712FD94
:1046A00025E0029B5B010199180001F061F903000C
:1046B0000493049B203B0493049BDB000493049B22
:1046C0000F4A934207D93423FF331A00094B1100D4
:1046D0001800FEF7F7FC049B094A13400493039B60
:1046E00004211800FFF7A6FF039B049ADA6007B0C5
:1046F00000BDC046B49F00000040084090071A006B
:10470000F87F000000B585B001900A006B460333C6
:104710001A70019B134A934207D05823FF331A00A3
:10472000114B11001800FEF7CDFC6B4603331B78CC
:10473000DB430393039B052213400393039B5B001E
:1047400003936B4603331B78039A13430393019B34
:1047500002211800FFF76EFF019B039A5A60C046C2
:1047600005B000BD00400840B49F000082B0019039
:104770000A006B4603331A706B4603331B78002B19
:1047800008D0C046019B5B6C002BFBD1019B012232
:104790001A6402E0019B00221A64C04602B070470E
:1047A00000B583B001900091019B1D4A934206D051
:1047B000DC235A001B4B11001800FEF783FC019B01
:1047C00002211800FFF736FF019B0A225A60019B65
:1047D00001211800FFF7CAFF019B1B681C229343AD
:1047E000009A127B1343009A527B1343009A927BE8
:1047F0001A43019B1A60009B5968009B9A68019BB1
:104800001800FFF729FF009B1B781A00019B5A60D4
:10481000019B00211800FFF7A9FFC04603B000BDAF
:1048200000400840B49F000000B585B001900091A1
:10483000019B012B04D9104BA4211800FEF742FC68
:10484000009B1B0E1B0604D00B4BA9211800FEF782
:1048500039FC019B002B03D0019B012B03D008E006
:10486000064B039302E0064B0393C046039B009A5A
:104870001A6005B000BDC04660A0000008000840F6
:104880000C00084084B00190019B1B78002B02D0E3
:104890000123039301E000230393019B5B78002B2A
:1048A00003D0039B022213430393019B9B78002BAD
:1048B00003D0039B042213430393034B039A1A6010
:1048C000C04604B07047C0460000084082B0019066
:1048D000019B0A4A934207D0019B094A934203D0A5
:1048E000019B084A934201D1012300E000231A1CD6
:1048F00001231340DBB2180002B0704700000140F2
:10490000000401400008014000B585B0019000910D
:10491000019B1800FFF7DAFF031E04D1374B9A21E1
:104920001800FEF7CFFB00230393009B1B780122A6
:104930005340DBB2002B02D0019B02225A60019B44
:1049400000225A62009B9B781A06009BDB781B04AE
:104950001A43009B9B799B021A43009BDB791B0245
:104960001343009A127A1A43009B5B78002B01D004
:10497000402300E000231A43009B5B7A002B01D008
:10498000802300E000231A43009B9B7A002B01D078
:10499000202300E000231A43009BDB7A002B01D088
:1049A000102300E000231A43009B1B7B002B01D047
:1049B000082300E0002313430393009B1B79002B83
:1049C00002D080239A0100E00022009B5B79002B3B
:1049D00002D080235B0500E000231343039A1343B6
:1049E0000393019B039A1A60009B1B78002B02D053
:1049F000019B01225A60C04605B000BD50A10000D5
:104A000000B585B0039002910192039B1800FFF757
:104A10005DFF031E04D12B4BEA211800FEF752FB69
:104A2000029B022B04D9274BEB211800FEF74AFB0F
:104A3000019B1B789A06019B5B781B061A43019B1E
:104A40009B781B041A43019BDB781B031A43019BD1
:104A50001B799B021A43019B5B791B021343019A4A
:104A600092791A43019BDB79002B02D080239B03B0
:104A700000E000231A43019B1B7A002B02D0802305
:104A80005B0300E000231A43019B5B7A002B01D0FB
:104A9000102300E000231A43019B9B7A002B01D0D6
:104AA000042300E000231A43019BDB7A1B071A430F
:104AB0001100039B029A03321201D150C04605B087
:104AC00000BDC04650A1000082B001900A006B46B4
:104AD00003331A706B4603331B7810221343DBB287
:104AE0001A00019B9A65C04602B0704700B587B0B6
:104AF000039002910192019B002B06D1A2239A0000
:104B0000154B11001800FEF7DDFA029B002B05D1B2
:104B1000124B1800FEF710FF03000293029B5A1E6F
:104B2000019B5B001900100000F022FF03000593B9
:104B3000059B1B020593059B094A134005D0094AB2
:104B4000054B11001800FEF7BDFA039B059A5A6148
:104B5000C04607B000BDC04684A1000040810400EB
:104B60000700E0FFA502000000B585B001900A0033
:104B70006B4603331A70019B104A934209D0019B84
:104B80000F4A934205D00F4A0F4B11001800FEF751
:104B900099FA6B4603331B78DB430393039B05228F
:104BA00013400393039B5A00019BDA606B46033367
:104BB0001A78019BDA60C04605B000BD00C0004015
:104BC00000C40040BE02000084A1000000B583B014
:104BD00001900091019B344A93420AD0019B334AD1
:104BE000934206D0D6239A00314B11001800FEF7ED
:104BF00069FA019B180000F05DF8019B1A68009BA0
:104C00001B8A01210B439BB21900009B9B7B002B4D
:104C100002D08023DB0000E000230B431A43019BFA
:104C20001A60019B1A68009B1B7D002B02D0802319
:104C30009B0500E000231A43019B1A60009B9B7CAC
:104C4000002B06D0009BDA7C019B11001800FFF7B7
:104C50003BFF009B1B7B1A0080235B011A43019BD7
:104C60005A60009B5968009B9A68019B1800FFF7E7
:104C70003DFF009B5B7B002B02D0019B1022DA6082
:104C8000009B5B7D002B06D0019B1B68802252029B
:104C90001A43019B1A60009B1B781A00019BDA6083
:104CA000C04603B000BDC04600C0004000C4004084
:104CB00084A1000000B583B00190019B204A93427B
:104CC00009D0019B1F4A934205D01F4A1F4B110078
:104CD0001800FEF7F7F9019B1D4ADA60019B0022DC
:104CE0001A60019B1B4A5A60019B00229A60019B3B
:104CF00000225A61019B0022DA64019B164A9A64E1
:104D0000019B00225A65019B0D4A934203D0019BEF
:104D10000C4A934202D1019B00221A65019B00229A
:104D20009A65019B064A934203D0019B054A934230
:104D300002D1019B0022DA65C04603B000BDC04627
:104D400000C0004000C400402E04000084A1000008
:104D5000AA0E000005100000F91F00000023180033
:104D60007047000010B582B0020000916B46073317
:104D70001A706B4607331B787F2B2CD8324A6B4650
:104D800007331B785BB29B08C0339B009B586A4675
:104D900007321278110003220A40D200FF2191400D
:104DA0000A00D2431A401100009B9B01FF221A40C7
:104DB0006B4607331B78180003230340DB009A403F
:104DC00021486B4607331B785BB29B080A43C0330C
:104DD0009B001A5035E01D4A6B4607331B781900BB
:104DE0000F230B40083B9B0806339B00D31804336A
:104DF0001B686A4607321278110003220A40D2006B
:104E0000FF2191400A00D2431A401100009B9B01F0
:104E1000FF221A406B4607331B7818000323034018
:104E2000DB009A4009486B4607331B781C000F23B0
:104E30002340083B9B080A4306339B00C3180433F6
:104E40001A60C04602B010BD00E100E000ED00E0D5
:104E500000B583B06B460733FB221A7011E06B4636
:104E600007331B785BB201211800FFF77BFF6B460D
:104E700007331B785BB2DBB20133DAB26B46073320
:104E80001A706B4607331B785BB2142BE7DD0023E7
:104E9000180003B000BD000030B583B0FFF798F8EC
:104EA000030001931E4B1B7801225340DBB2002B01
:104EB0002ED01C4B00221A601B4B00221A601B4B89
:104EC00000221A8000F0C0FB012000F061FC00F01D
:104ED000B7FC0200164B1A60154B1B68002B05D15E
:104EE000019B1800FFF780F8232316E0104B1B6886
:104EF0001C0000231D0022002B000E480E4900F06C
:104F00001BFE02000B000D4B1A60054B01221A70AC
:104F1000019B1800FFF768F80023180003B030BDAC
:104F20002807002020070020240700201807002061
:104F30001C07002018FCFFFFE70300002C070020DF
:104F400010B58AB0079006910592049327236B440D
:104F500000221A70079B002B01D122231DE027227B
:104F60006A44079B1100180000F01AF827236B44CD
:104F70001B78002B01D002230FE0059C069A0699AE
:104F800007980DAB1B8802930CAB1B780193049B15
:104F90000093230000F062FA030018000AB010BD6D
:104FA00000B585B001900091019B002B02D0009BC1
:104FB000002B01D1222324E0009B00221A70FFF76E
:104FC00007F803000293104B1B6803930AE0039A4F
:104FD000019B9A4203D1009B01221A7002E0039BBD
:104FE0009B680393039B002B06D0009B1B78012238
:104FF0005340DBB2002BEAD1029B1800FEF7F4FF0E
:105000000023180005B000BD2007002030B583B094
:105010000190009113490968019888421DD80199AF
:105020000C0000210D00104909680A0000210B0046
:105030002000290000F0A0FD02000B001000190064
:10504000FA229200002300F077FD02000B0013000B
:105050005A1C009B1A60002300E02123180003B0B3
:1050600030BDC0462C0700201C070020F0B58DB0D5
:1050700002006B4607331A706B4607331B78012218
:1050800013400ED07E4B1B889BB201339AB27C4BEF
:105090001A8000F0ABF97B4B1B68002B01D000F0AD
:1050A0008BF96B4607331B780222134000D1E4E0F2
:1050B00000230A930023099322236B4400221A80C1
:1050C000FEF786FF03000B9300F090F9AFE06D4B05
:1050D0001B6807936B4B1B680A93002306930022FF
:1050E0000023049205930F236B4400221A700AE0F8
:1050F0000A9B1A79079B1B799A4201D9079B0A934D
:10510000079B9B680793079B002B03D0079B5B695A
:10511000002BEDD00B9B1800FEF766FF0A9B1B6966
:10512000002B23D00A9B1B6904930023059300F0F6
:10513000BDFA02000A9B9B69D31A0693069B1C00CA
:10514000DB171D00059BAB4205DB059BAB420DD178
:10515000049BA3420AD20F236B4401221A700A9BBC
:105160009A690A9B1B69D2180A9B9A610F236B44A8
:105170001B7801225340DBB2002B0BD0FEF728FF37
:1051800003000B930A9B180000F0DCF80B9B18003F
:10519000FEF72AFF0A9B1B69002B2FD00F236B44BD
:1051A0001B7801225340DBB2002B27D0069B1E0048
:1051B000DB171F00049A059B921BBB4104920593C9
:1051C000059B002B05DA304A304B11001800FDF723
:1051D00079FFFEF7FDFE03000B93049A0A9B110072
:1051E000180000F057F80A9B9A690A9B1B69D218AD
:1051F0000A9B9A610B9B1800FEF7F6FE22236B4474
:105200000A9AD2881A80099B013309930A9BDB68AA
:10521000002B06D00A9BDA680A9B19680A9B1800C3
:105220009047FEF7D5FE03000B9300F0DFF8154B17
:105230001B68002B05D0134B1B685B69002B00D14A
:1052400045E7134B00221A70099B012B07D122233B
:105250006B441B88022B02D10D4B01221A70094BA3
:105260001B68002B02D000F0A7F802E0022000F03B
:10527000BFFA0B9B1800FEF7B7FEC0460DB0F0BD9D
:10528000180700202007002002040000B8A1000039
:105290003007002086B001900091009B0593019B90
:1052A000059A5A61264B1B68002B40D000230493BB
:1052B000234B1B6803930CE0039B5B69059AD31A8D
:1052C0000593019B059A5A61039B0493039B9B687A
:1052D0000393039B002B13D0039B5B69059A9A42AF
:1052E000EAD2039B5B69002BE6D0039B5B69059ABE
:1052F0009A4205D1019B1A79039B1B799A42DBD80C
:10530000049B002B03D0049B019A9A6002E00C4B93
:10531000019A1A60019B039A9A60039B002B0CD0A0
:10532000039B5A69059BD21A039B5A6105E0044B03
:10533000019A1A60019B00229A60C04606B070472D
:105340002007002084B0019000230393194B1B68B1
:10535000029304E0029B0393029B9B680293029BCF
:10536000002B03D0029A019B9A42F3D1029A019B2F
:105370009A4201D0022319E0039B002B04D0019B29
:105380009A68039B9A6003E0019B9A68094B1A6034
:10539000019B9B68002B08D0019B9B685969019B6E
:1053A0005A69019B9B688A185A610023180004B04F
:1053B0007047C0462007002000B583B0094B1B682A
:1053C0005A69094B1B68D3180193022000F0E0F9D9
:1053D000019B180000F092F900F098F8C04603B065
:1053E00000BDC046200700202407002000B585B07E
:1053F00000F05CF903000193164B1B680393164BF6
:105400001B68019AD31A029318E0039B5B69029A06
:105410009A4208D8039B5A69029BD21A039B5A618D
:105420000023029307E0039B5B69029AD31A02935D
:10543000039B00225A61039B9B680393039B002BF1
:1054400002D0029B002BE0D1034B019A1A60C046A8
:1054500005B000BD200700202407002000B587B05C
:105460000390029101920093039B09AA12781A718A
:10547000039B089A1A60039B00229A60039B019A7F
:105480001A61039B009ADA60039B0AAA1288DA80E9
:1054900000F00CF90200019BD218039B9A61029B59
:1054A000002B15D1039B00225A61039BDB68002B64
:1054B00006D0039BDA68039B1968039B180090478A
:1054C000019B002B02D0019B029301E0002317E017
:1054D000FEF77EFD03000593FFF788FF029A039B0A
:1054E00011001800FFF7D6FE074B1B68039A9A427B
:1054F00001D1FFF761FF059B1800FEF775FD002342
:10550000180007B000BDC0462007002082B0134B32
:105510001B68019300230093114B00221A7014E0C2
:10552000019BDB881A000223134003D00C4B01229D
:105530001A700FE0019B9B680193019B002B08D020
:10554000019B5B69009AD3180093009B012BE7D95C
:1055500000E0C046C04602B07047C04620070020A9
:105560002907002082B002006B4607331A706B4691
:1055700007331B787F2B0AD86B4607331B781A003A
:105580001F231A40034B012191400A001A60C046B4
:1055900002B0704700E100E082B002006B460733C2
:1055A0001A706B4607331B787F2B0BD86B4607337B
:1055B0001B781A001F231340044901229A40C0237C
:1055C0005B00CA50C04602B07047C04600E100E030
:1055D000014B5B68180070470000084082B00190E2
:1055E000024B019A5A60C04602B070470000084062
:1055F00082B00190024B019A9A61C04602B0704796
:105600000000084082B00190044BDA69019BD94345
:10561000024B0A40DA61C04602B070470000084001
:1056200082B00190044BD969034B019A0A43DA61B5
:10563000C04602B07047C04600000840014B1B69DD
:10564000180070470000084000B583B001AB154A50
:105650001188198092789A70134B01211800FDF778
:10566000FFFF114B01211800FEF704F901AB0022E6
:105670009A7001AB01221A7001AB1800FFF702F912
:105680000720FFF7BFFF0720FFF7B2FF0020FFF75B
:10569000A5FF0C20FFF780FF0C20FFF763FFC0463B
:1056A00003B000BD44A200008006120000B583B024
:1056B000FFF78EFF030001930F4B1B78DAB26B46A6
:1056C00002331A80FFF7BAFF0300012213400AD009
:1056D000FFF77EFF030001936B4602331A886B4687
:1056E000023301321A806B4602331B881A06019B73
:1056F0001343180003B000BD3107002000B585B08A
:105700000190FFF7D3FF03000293019B0393FFF780
:1057100095FF0300042213400ED11C4B1B68029A14
:105720001100180000F002F90300032B04D8174BF6
:105730001B68029A9A4226D1029A039B1100180014
:1057400000F0F4F80300022B02D8029B033303930A
:10575000039B5A1E0D4B1A600C4B1A68029BD21AFF
:1057600080235B049A420BD2084B1B681B021B0A66
:1057700019000120FFF758F8022000F009F802E0B4
:10578000022000F035F8C04605B000BD3407002007
:1057900000B585B002006B4607331A7000230393EF
:1057A0006B4607331B780122134003D0039B012271
:1057B000134303936B4607331B78022213400DD02B
:1057C0000A4B1B78002B05D00420FFF711FF074B75
:1057D00000221A70039B042213430393039B1800B7
:1057E000FFF71EFFC04605B000BDC04614040020F0
:1057F00000B585B002006B4607331A70002303938F
:105800006B4607331B780122134003D0039B012210
:10581000134303936B4607331B780222134006D0D1
:10582000039B042213430393044B01221A70039B2E
:105830001800FFF7E7FEC04605B000BD14040020C5
:1058400010B5034B1800FEF777F80300180010BDE1
:105850008006120000B585B00F236B4400221A7039
:1058600000230293FEF7B4FB03000193FFF7E6FE6B
:1058700003000093009B012213402ED0294B1B787C
:10588000DBB21A06FF231B069A4207D10F236B4493
:105890000F226A44127801210A431A70214B1B78A7
:1058A000DBB20133DAB21F4B1A701F4B1B68029335
:1058B0001C4B1B78DBB21B061A00029B9B1A02933F
:1058C000029A80235B049A4207D2029B19000120AE
:1058D000FEF7AAFF0220FFF75BFF009B04221340A4
:1058E00007D00F236B440F226A44127802210A4327
:1058F0001A70009B052213401800FFF779FE0F2352
:105900006B441B78002B05D00F236B441B781800C9
:10591000FFF7ACFB019B1800FEF766FBC04605B025
:1059200000BDC046310700203407002082B001903E
:105930000091019A009BD31A180002B0704710B56D
:10594000FDF77AF8FDF783F8FDF786F8FDF789F89B
:10595000FDF789F8C04610BD10B5FDF786F8FDF7D4
:1059600086F8FDF786F8FDF786F8C04610BD000002
:10597000002243088B4274D303098B425FD3030A8E
:105980008B4244D3030B8B4228D3030C8B420DD3A1
:10599000FF22090212BA030C8B4202D3121209022F
:1059A00065D0030B8B4219D300E0090AC30B8B426D
:1059B00001D3CB03C01A5241830B8B4201D38B031B
:1059C000C01A5241430B8B4201D34B03C01A5241C0
:1059D000030B8B4201D30B03C01A5241C30A8B4203
:1059E00001D3CB02C01A5241830A8B4201D38B02EE
:1059F000C01A5241430A8B4201D34B02C01A524192
:105A0000030A8B4201D30B02C01A5241CDD2C30903
:105A10008B4201D3CB01C01A524183098B4201D37F
:105A20008B01C01A524143098B4201D34B01C01A6A
:105A3000524103098B4201D30B01C01A5241C308E2
:105A40008B4201D3CB00C01A524183088B4201D351
:105A50008B00C01A524143088B4201D34B00C01A3D
:105A60005241411A00D20146524110467047FFE7A9
:105A700001B5002000F006F802BDC0460029F7D0AD
:105A800076E770477047C046844608006146FFE7E6
:105A90001FB500F0ABFC002801D40021C8421FBD97
:105AA00010B500F037FC4042013010BD10B500F0D9
:105AB0009DFC002801DB002010BD012010BDC04668
:105AC00010B500F093FC002801DD002010BD01207E
:105AD00010BDC04610B500F043FC002801DC0020DA
