S0130000455645455F504F435F50574D2E73333728
S113000000040020F50C0000F10C0000F10C0000CD
S1130010F10C0000F10C0000F10C0000F10C0000E8
S1130020F10C0000F10C0000F10C0000F10C0000D8
S1130030F10C0000F10C0000F10C0000F10C0000C8
S1130040F10C0000F10C0000F10C0000F10C0000B8
S1130050F10C0000F10C0000F10C0000F10C0000A8
S1130060A90B0000090C0000F10C0000F10C0000C9
S113007031230000F10C0000F10C0000F10C000031
S1130080F10C0000890B0000C90B0000F10C00000A
S1130090F10C000010B5064C2378002B07D1054B5A
S11300A0002B02D0044800E000BF0123237010BDE0
S11300B07C04002000000000602C0000044B10B5FC
S11300C0002B03D00349044800E000BF10BDC04624
S11300D00000000080040020602C000040229202F6
S11300E09A1A92467047C046174B002B00D1134B07
S11300F09D46FFF7F3FF00218B460F461348144A31
S1130100121A02F084FB0E4B002B00D098470D4BC3
S1130110002B00D098470020002104000D000D485A
S1130120002802D00C4800E000BF02F043FB20008E
S1130130290000F0DDF802F027FBC04600000800AB
S11301400000000000000000000400207C040020E7
S1130150400500200000000000000000074B10B51F
S1130160C3400400DB0704D4F9210548890000F0EA
S113017077FF0123A340034AD36510BD1FEF00009E
S11301803C2800000060004010B500F06DF90C4BF5
S1130190984205D180220B4B52009A65092007E052
S11301A0094B984207D180220820064B92009A6599
S11301B0FFF7D4FF10BD0820FFF7D0FFEEE7C046DD
S11301C05A96ED29006000401A73ABE1F0B589B08E
S11301D001256B469D8032230493059306936B4659
S11301E0002664270E4C9D83200001A902960397E4
S11301F000F0EAF92900200000F096FA32003100FC
S1130200200000F0C7FA29002000192200F0C2FAE9
S11302103A000221200000F0BDFA09B0F0BDC0464A
S11302200000014010B500F00FF800F023F8FFF7CC
S1130230CDFF00F067F800F06FF910BD0122014B0B
S11302401A707047B40400201FB5042003A901F0FC
S113025007FF031E07D10122009001920399034A6C
S1130260034801F0D3FE05B000BDC0463D020000C6
S11302709804002010B501211C4801F09DF80023CA
S113028004221900180001F06BFB0023042218005B
S1130290012101F065FB002304221800022101F072
S11302A05FFB002304220921022001F059FB0023F3
S11302B004220821022001F053FB00230422190028
S11302C0022001F04DFB012200231100022001F065
S11302D047FB002304220721012001F041FB0123F5
S11302E004220821180001F03BFB10BD0082040029
S11302F010B502F059F8FFF795FF02F061F8FFF727
S113030043FFFAE7052300B50A4A89B0049206229E
S113031001A90B710023FF320A82053AFF3A06480D
S11303200B8306938B608A74019300F019FB09B068
S113033000BDC046404B4C0000C4004010B508242A
S113034086B0029300230494073C01930093039422
S113035013000A000100024800F078FB06B010BD4B
S113036000C400407FB50B0008210292064A0491A4
S1130370073903910191009201000022034800F023
S113038065FB07B000BDC046B804002000C40040AF
S1130390002201210E2010B5FFF7E4FF064800F00B
S11303A0DBFB031EFAD1054A0E201168802291431B
S11303B07F3AFFF7C3FF10BD00C40040B80400201B
S11303C070B500231400012205000E00100019006E
S11303D0FFF7B4FF002301227F210420FFF7AEFFC3
S11303E00023012280210A20FFF7A8FF0023320006
S11303F029000920FFF7A2FF0023012221000D207C
S1130400FFF79CFF01220C2110000023FFF796FF49
S1130410002201210D20FFF7A5FF114800F09CFBED
S1130420031EFAD180210F4C0D20226801251143AF
S11304300122FFF783FF3026002229000420FFF762
S113044091FF074800F088FB0028FAD123681800C0
S11304503040334202D12B42EED070BD0120FCE784
S113046000C40040B8040020002310B51900012284
S11304701220FFF763FF0023012219001320FFF766
S11304805DFF0122262124200023FFF757FFFFF7F9
S11304907FFF072201212620FFF792FF002801D1C8
S11304A0002010BD002201210620FFF75BFF164843
S11304B000F052FB0028FAD11323144C22681A428C
S11304C003D05A21124800F0CBFDFFF761FF002250
S11304D002211048FFF774FF0028E1D00022012117
S11304E00A20FFF73FFF084800F036FB021EFAD14E
S11304F023680920591EFFF735FF034800F02CFB41
S11305000028FAD12068CCE700C40040B8040020D9
S1130510B328000020930000012210B5100000232E
S11305200F21FFF70BFF0023012219001220FFF710
S113053005FF0023012219001320FFF7FFFE00230B
S1130540012226212420FFF7F9FE00230122802125
S11305502A20FFF7F3FE00230122A9212B20FFF715
S1130560EDFE0023012203212C20FFF7E7FE0023E8
S11305700122E8212D20FFF7E1FE00230122402182
S11305801520FFF7DBFE01223D2111200023FFF798
S1130590D5FE002201211420FFF7E4FE084800F0F4
S11305A0DBFA031EFAD1074A03211268100008403F
S11305B0884204D0114314200122FFF7BFFE10BD6E
S11305C000C40040B8040020F0B504008DB04F48CA
S11305D00D0001F005F84E4B06009C4206D10422A2
S11305E04C4B01214C481A6000F0E6FE2A7808A919
S11305F000234A70022220008A704B71CB700B7169
S11306004B720B708B710B72CB728B72CB710B7341
S113061001F034FAAB683000990001F0E5FE030004
S1130620013B01938023019A00905B029A4203D319
S11306303A493B4800F014FD019B00210227E36185
S1130640032305AE3200200033717370B3717771E8
S11306507172F1703170F171B1723172F172B17005
S113066001F072FA32000121200001F06DFA32002B
S11306703900200001F068FA6B69E8682F69009E70
S11306800393642805D0019B6421584301F0ACFE18
S11306900600009B0293642F05D0019864217843DF
S11306A001F0A2FE0290039B642B05D00198642103
S11306B0584301F099FE009080277F02BE4203D385
S11306C01849174800F0CCFC029B6663BB4203D375
S11306D01449134800F0C4FC029B009A636480230D
S11306E05B029A4203D30F490D4800F0B9FC009B0A
S11306F0636507232A7E697E5343E02292004A43BE
S113070013436A681343A3620DB0F0BD4081040033
S11307100000014000E100E0000204007604000053
S1130720C028000002030000836870B504000D00B7
S1130730DB0711D400290FD0124B98420AD0124B78
S1130740984207D0114B984204D0D1211048890017
S113075000F086FC01236360A368DB0711D5002D3C
S11307600FD1084B9C420AD0074B9C4207D0074B41
S11307709C4204D0D1210648890000F071FC022378
S1130780636070BD000001400004014000080140A6
S1130790C028000070B504000E00642A0ED1C5699B
S11307A0013580235B029D4203D30849084800F0C9
S11307B057FC03363601A419656070BDC069642115
S11307C0504301F011FE0500EBE7C04602030000B0
S11307D0C028000070B504000D0000280FD00128C7
S11307E019D002281AD003281AD004281AD03F237B
S11307F0052805D00D490E4800F032FC03E00D4BEE
S1130800EB40DB07F6D501232420AB4044430A4ADE
S1130810A418236170BDD323DB01F1E7074BEFE795
S1130820F023EDE7F0239B01EAE7C0461304000040
S11308303C28000007070000006000401FEF000094
S1130840426870B504000078D169022821D1A369F7
S11308506569AB4202D1013BA36119E0DB00994019
S11308600B00256929680B432B60A369002BF2D187
S11308700425D16CA943D164D16C8143D164A21CF9
S1130880D377230028331878E16AFFF7A3FF257094
S113089070BD06210248FF3100F0E2FBF8E7C046D4
S11308A038290000017870B5012906D002290FD03B
S11308B0CB211C4800F0D4FB09E002230370431C45
S11308C0DB7FC2684168DB01520013434B6370BD98
S11308D0C369441CE47F5D1C42694368C561002C04
S11308E007D0AA4219D8DA6C8A43DA6400225A6320
S11308F0EDE7AA4205D9521BD1008268CA40D2B2A0
S1130900F5E7DC6C8C430321DC640170DC6C023998
S11309102143D964AA42DAD1EDE78022C1684900B3
S11309200A43E4E7382900000278030010B5032ADB
S11309300FD10132027041680120CA6C8243CA643B
S113094000219A1CD17726321078D96AFFF742FF2A
S113095010BDE021014800F083FBF9E738290000CD
S1130960F0B5314B04000D0087B0984244D1012109
S11309702E4800F021FD80222D4B92021A60802225
S1130980D2021A602B4B00220233DA770123226C45
S11309901A4240D16364226C1A4203D122212648B0
S11309A000F05EFB0123A364200001F05FF96946B7
S11309B00A00224BC1CBC1C2C1CBC1C200230B7000
S11309C0AB7CAA688B734A606B69EA6804938A609B
S11309D02B8B2A8A20008A818B8201F07DF9C02327
S11309E01B01E3600B232A68200013436365297904
S11309F001F020F907B0F0BD114B9842C6D1012196
S1130A00104800F0D9FC8022094B52001A60921859
S1130A101A600D4BB7E7A364226C1A42C4D0262196
S1130A20054800F01DFBBFE700C000400032040091
S1130A3000E100E0BC040020382900004429000043
S1130A4000C4004000420400EC040020F0B589B06A
S1130A5002930EAB80CB05001B78384C039311AB8B
S1130A601E78374B06910792984200D1354CA31C4F
S1130A700493049BDB7FDAB20192002BF9D100F0DE
S1130A80F5FE0123049A0590D377029A23706261DC
S1130A90069A029BE260079AA361019BA260039AF3
S1130AA0E361631C27616560DA77109B636223004E
S1130AB028331E70129BE362019B3B60C0231B0121
S1130AC0EB60002E10D0012E29D0022E2AD0032E46
S1130AD02AD0042E2AD03F23052E06D0F9211A4805
S1130AE0890000F0BDFA04E0184B129AD340DB07EA
S1130AF0F4D50122129B9A4024235E43144BF6182A
S1130B0002237261039AEB64DB18002A11D0EA6CA9
S1130B101343EB64059800F0ADFE09B0F0BDD32398
S1130B20DB01E2E70B4BE0E7F023DEE7F0239B0178
S1130B30DBE7EA6C9A43EA64ECE7C046BC040020B5
S1130B4000C40040EC0400203C280000070700001B
S1130B50006000401FEF0000074A0300904204D1E8
S1130B60064B0233D87FC0B27047054A0020934237
S1130B70FAD1044BF5E7C04600C00040BC04002095
S1130B8000C40040EC040020054A10B5116CD36C7D
S1130B900B4093645B0702D50248FFF751FE10BD7A
S1130BA000C00040BC040020054A10B5116CD36C91
S1130BB00B4093645B0702D50248FFF741FE10BD6A
S1130BC000C40040EC04002070B50C4D2B6CEC6CA0
S1130BD01C40AC64A30702D50948FFF763FE012358
S1130BE01C4209D02A6C1A4203D09621054800F011
S1130BF037FA0348FFF798FE70BDC04600C00040B6
S1130C00BC0400203829000070B50C4D2B6CEC6C32
S1130C101C40AC64A30702D50948FFF743FE012337
S1130C201C4209D02A6C1A4203D0A421054800F0C2
S1130C3017FA0348FFF778FE70BDC04600C40040B1
S1130C40EC0400203829000010B50521112000F023
S1130C5061FD0121064800F0AFFB0321054800F0C7
S1130C6059FD0548032100F055FD002010BDC04684
S1130C70D0233E0002001E000300200001220B4B83
S1130C8010B51A640A4BDB6C1B0E812B07D8094B79
S1130C90094A0A491A600A4A13680B40136001F0B2
S1130CA067F8FFF7D1FF01F061F810BD00000C40B8
S1130CB0B081E00F18600C4005000004FFFFFFFE48
S1130CC0E4800C4010B500F00BF810BD10B501F035
S1130CD041F910BD704770477047704770477047BF
S1130CE010B5024800F0AAF810BDC0465C29000007
S1130CF0FEE7000010B500F08DF8054B0549064AE3
S1130D008B4201D3FFF7F0F901CA01C3F8E7C046EB
S1130D10000400207C040020682C00000048704778
S1130D2000366E01264B2749DA6A10B50A40802145
S1130D3089018A4225D01ED8802109018A4229D0FE
S1130D4080218020490100028A421CD0E022D86818
S1130D50D20010408022920090422AD01CD8002851
S1130D6029D00138FF38421E9041174A40421040B2
S1130D70164A801807E08021C9048A42E6D1144843
S1130D8001E0144A10681968C903490F013101F0E0
S1130D902BFB10BD104AF5E7C022920090420CD004
S1130DA00E4A8018421E90410D4A404210400D4A9E
S1130DB0DFE70D48E7E70D48E5E70D48E3E7C04600
S1130DC000800C40003C0004C04A9BFF40B5640016
S1130DD000366E010C0400200804002000FCFFFF14
S1130DE0C090BFFE406F4001C0D8A700804F1200E2
S1130DF0809FD50010B5FFF795FF0F22034B5B686A
S1130E001340D840024B186010BDC04600800C400F
S1130E1004040020014A024B9A607047000000005D
S1130E2000ED00E0802000027047FA208000704747
S1130E30014B18687047C0460C04002010B509C85F
S1130E40984710BD70B504000D00002810D001288B
S1130E501AD002281BD003281BD004281BD03F2300
S1130E60052806D0F9210D48890000F0F9F803E0BF
S1130E700B4BEB40DB07F5D501232420AB40444367
S1130E80084AA418636170BDD323DB01F1E7064B64
S1130E90EFE7F023EDE7F0239B01EAE73C280000AD
S1130EA007070000006000401FEF000070B5040059
S1130EB00D0000280FD0012819D002281AD00328C9
S1130EC01AD004281AD03F23052805D00D490E480E
S1130ED000F0C6F803E00D4BEB40DB07F6D5012329
S1130EE02420AB4044430A4AA418236170BDD32391
S1130EF0DB01F1E7074BEFE7F023EDE7F0239B017C
S1130F00EAE7C046130400003C280000070700007D
S1130F10006000401FEF000010B5040001210848E4
S1130F2000F04AFA0121074800F046FAA378207835
S1130F305A4253416178042200F012FD002010BD92
S1130F404081040000820400030010B559789B78A6
S1130F500078002B02D1FFF775FF10BDFFF7A6FF45
S1130F60FBE7030010B559789B780078002B02D179
S1130F70FFF79CFF10BDFFF765FFFBE770B5047832
S1130F804578002C0FD0012C19D0022C1AD0032C38
S1130F901AD0042C1AD03F23052C05D00D490E4835
S1130FA000F05EF803E00D4BEB40DB07F6D50122C1
S1130FB02423AA405C430A4BE418A26170BDD323E6
S1130FC0DB01F1E7074BEFE7F023EDE7F0239B01AB
S1130FD0EAE7C0462E0400003C2800000707000092
S1130FE0006000401FEF000070B5047805004678EB
S1130FF0002C0FD0012C1ED0022C1FD0032C1FD08C
S1131000042C1FD03F23052C05D01049104800F0B4
S113101027F803E00F4BF340DB07F6D524235C43AA
S11310200D4BAA78E41820680123F0401840002AE8
S113103000D1584070BDD323DB01ECE7074BEAE74E
S1131040F023E8E7F0239B01E5E7C046FE03000038
S11310503C280000070700000C6000401FEF000060
S1131060FEE7012383401800704700008023421EDE
S113107010B51B0204009A4203D305490548FFF743
S1131080EFFF200001F03CFA1F23181A10BDC046E0
S1131090350C000074290000034B5A6DD20702D4AA
S11310A01A6D0242FCD1704700800C40E02280217E
S11310B01A4BD2005B6910B5134089008B421FD0D4
S11310C00BD8002B26D080225200934224D01448FF
S11310D01449FFF7C5FF002011E0C02189008B42AD
S11310E003D09342F3D1104809E012200F4BDB6C7C
S11310F01B0E984280410E4B18400E4BC01810BD79
S113110012200A4BDB6C1B0E984280410A4B18409C
S11311100A4BF3E70A48F2E70A48F0E700800C407C
S1131120EA290000C2120000406F4001B081E00FC4
S1131130400D030040420F0080E5F9FFC0CF6A0074
S1131140809FD500C0D8A70009490A4B10B50022DA
S11311504C68984205D9084B0132984201D90632AD
S1131160224007204B68834313434B6010BDC046A5
S113117000000C400024F4000048E80170B5064B60
S1131180064CE56BE363FFF7C9FDFFF7DDFF002DB8
S113119001D00023E36370BD711B000000000C400C
S11311A070B5054C054BE56BE363FFF7CDFF002DF0
S11311B001D00023E36370BD00000C40711B0000EC
S11311C003000006000F013810B50C2833D801F0D5
S11311D001F90732320D3232121D29323232150032
S11311E0164B1868C003400F013010BD134B9868AC
S11311F00F23184007E0114B5868F9E70F4B586864
S1131200C005C00F0130FFF72CFFEEE70C4A9342F4
S113121002D10A4B986EEBE70A490B48FFF720FF0F
S11312200120E2E7094A934203D1044B186F0323D8
S1131230DFE70749F1E70749EFE7C04600800C40C4
S11312408006120056180000EA29000090071A00D0
S11312506F1800007618000003000006000F013824
S113126010B50C000C2800D987E001F0B3F807860C
S1131270861D86863C516E8686863000013C072C8E
S113128003D93F493F48FFF7EBFEFFF777FF3E4A9C
S11312903E491368A4030B401C431460FFF7AAFDE6
S11312A00021FFF77DFF11E080224B1E9200934244
S11312B003D337493348FFF7D3FE2000FFF7D6FEA8
S11312C00F21314A93688B430343936010BD080098
S11312D0FFF7CCFE2C4A2F495368013800020B401B
S11312E018435060F2E780224B1E9200934203D3CE
S11312F029492448FFF7B4FEFFF740FF2000FFF719
S1131300B5FE0F21204A53688B4303435360C5E75E
S1131310224A934214D180231B02994203D92049C3
S11313201848FFF79DFE0420FFF7B6FE2000FFF7E4
S11313309DFE0F21144A936E8B4303439366C5E7C6
S113134018491048FFF78CFEC0E7174A934212D1A0
S1131350082903D915490B48FFF782FE4020FFF7FF
S11313609BFE2000FFF782FE0321074A136F8B4385
S113137003431367AAE70E49E3E70E49E1E7C046D2
S1131380A3180000EA29000000800C40FF3FFEFF84
S1131390B6180000FFFEFFFFCC1800008006120004
S11313A0EA1800002519000090071A002E19000001
S11313B04B1900005119000070B504000005000F1E
S11313C001380E00092823D801F004F8052A272241
S11313D02215181B221F0020134DE403E40E0028DD
S11313E001D0FFF759FE0122A240A6402B68934387
S11313F01E432E6010E001200C4DEEE710200C4D32
S1131400EBE780200B4D4000E7E700200A4DE4E7BE
S11314100A490B48FFF724FE70BD0020094DDCE7A4
S11314200020094DD9E7C04608800C4058800C4084
S113143060800C4064800C4078800C40D719000018
S1131440EA29000040800C4044800C400F231840DF
S1131450013810B5052851D800F0BCFF03203043F3
S113146050562A4B2A4ADB6A0220134080229201FA
S113147093420BD00BD8802200181201934205D05E
S1131480802201305201934200D1023810BD8022E3
S11314900520D2049342F9D10630F7E703211B4A11
S11314A0936A0B40013B022B02D81A4AD05CEDE749
S11314B0936A0120DB03E9D50B30E7E70C221349DB
S11314C002208B6A1340082BE0D004309342DDD015
S11314D00338042BDAD08B6A0238DB02D6D510002D
S11314E0D4E73022094B03209B6A1340102BCDD044
S11314F0203B1800434258410130C7E706480749DA
S1131500FFF7AEFD0020C1E70720BFE700800C40D5
S1131510003C00045F2A0000EA290000271F0000A5
S113152070B5284D0400A84206D0274B984203D03A
S113153026492748FFF794FD2000FFF787FF0600A0
S1131540AC420ED0204B9C4216D0214C21492000A5
S1131550FFF786FD032E2FD8300000F03BFF311536
S1131560181B1D4B986A032318400138022818D809
S113157000F030FF0A0D1000174A906A0007800F30
S113158000F028FF0C020508FFF74CFC70BDFFF7C4
S11315904FFCFBE7FFF72EFC4008F7E700209C42D6
S11315A0F4D10D4B986A1023AC4200D00433D840D8
S11315B0ECD0FFF73AFCE9E720000849FFF750FDBB
S11315C00020E3E702001E00030020003A1500009B
S11315D0EA2900006915000000800C409415000001
S11315E0F82203009021920370B5134004004903CC
S11315F08B4245D018D88022D202934235D00BD8E2
S1131600002B2FD080229202934236D024482549C1
S1131610FFF726FD002027E0234A9B18234A1342A4
S1131620F4D1FFF743FD1FE0802189038B422DD0C5
S11316300BD8D022520393422AD0F0225203934271
S1131640E4D11B48FFF76CFF0EE09342DED1FFF7B5
S1131650D1FB05002000FFF7B3FD0100280000F0D6
S1131660C3FE01E0FFF75EFB70BDFFF75BFB114BB0
S11316709B680F221340D840F6E7FFF7BBFBF3E764
S11316800B48FFF74DFF0B4B9B6EF2E70A48D9E777
S11316900948FFF745FF074B03221B6FEAE7C046E3
S11316A0EA290000071B00000000F2FFFFFFFDFF16
S11316B002001E0000800C400300200010B5052825
S11316C007D80D4B4400002908D10C4A125B1A625A
S11316D003E00B490B48FFF7C3FC10BD0A49095C42
S11316E00A48005B1862002AF7D001238B4008499E
S11316F00A681A42FCD0F0E700800C40742A00000B
S113170074260000EA290000622A0000682A00000A
S11317102C800C4070B50C220F2605000C000640EE
S11317201540104206D1023210423CD1012E0ED097
S113173044492DE0042EFBD1022900D16BE003299A
S113174000D175E0012900D079E0002468E0881E0A
S11317500A2821D800F03EFE22062516202020204B
S113176020181B000120032601221100FFF7A6FF09
S1131770FFF704FD344B5E62FFF73CFB0021FFF7EB
S11317800FFD70BD0320EFE705200600ECE72F49AD
S11317902F48FFF765FCF4E72E49F9E700200426FB
S11317A0E2E70220F1E7481E0B2829D800F012FED8
S11317B02A131A2828212828282828060023012546
S11317C0214A916A022E1FD123482D0401400B4364
S11317D02B439362D5E7012200201100FFF76EFF2F
S11317E00223EDE7012211001000FFF767FF012338
S11317F0E6E70421194A13680B4313600323DFE768
S11318001749C5E70023DBE716489B002D052B434A
S113181001400B43DDE7012200201100FFF74EFFDA
S11318203022094B2401986A904304439C62A8E740
S1131830012211001000FFF741FF0124F0E70A49DB
S1131840A6E7C0462622000000800C40E81F0000E6
S1131850EA290000ED1F0000FCFFFEFF40800C4061
S113186096200000F3FFEFFFC7200000EFF3108085
S113187072B67047002800D162B67047EFF310804B
S113188072B6704710B5FFF7F5FF10BD70B50400D0
S11318900D0000280FD0012819D002281AD00328DF
S11318A01AD004281AD03F23052805D00D490E4824
S11318B0FFF7D6FB03E00D4BEB40DB07F6D5012326
S11318C02420AB4044430A4AA418236170BDD323A7
S11318D0DB01F1E7074BEFE7F023EDE7F0239B0192
S11318E0EAE7C046130400003C2800000707000094
S11318F0006000401FEF000070B504000D000028D8
S113190010D001281AD002281BD003281BD0042889
S11319101BD03F23052806D0F9210D488900FFF785
S11319209FFB03E00B4BEB40DB07F5D501232420A1
S1131930AB404443084AA418636170BDD323DB0160
S1131940F1E7064BEFE7F023EDE7F0239B01EAE72D
S11319503C28000007070000006000401FEF000063
S1131960F8B504000D0016001F00002810D001284F
S113197032D0022833D0032833D0042833D03F2375
S1131980052806D01E212248FF31FFF769FB03E03A
S1131990204BEB40DB07F5D5002E05D029002000B5
S11319A0002F23D0FFF772FF242363431A4A9B18A6
S11319B0072D1ED80F21A80081405A688A433100A0
S11319C081400A435A60002E05D129002000002FCF
S11319D01BD0FFF75BFFF8BDD323DB01D9E70F4B27
S11319E0D7E7F023D5E7F0239B01D2E7FFF784FF85
S11319F0DAE729000F200839890088409A68824371
S1131A003000884002439A60DDE7FFF775FFE2E7A4
S1131A10802A000007070000006000401FEF00005C
S1131A2070B504000D00012803D9A4210848FFF76C
S1131A3017FB2B0E03D0A9210548FFF711FB002C3F
S1131A4004D0012C01D1034B1D6070BD024BFBE798
S1131A50F62A00000C000840080008404278037889
S1131A60002A01D0022213438278002A01D00422E2
S1131A701343014A1360704700000840F0B52E4B31
S1131A8005000C0087B0984209D02C4B984206D030
S1131A902B4B984203D09A212A48FFF7E1FA237886
S1131AA09C46002B01D102336B6000236B62E27809
S1131AB0A37812040092A2791B0692020192E279A1
S1131AC012020292227A03926278511E8A41920192
S1131AD00492627A511E8A41D2010592A77AE67A6B
S1131AE07A1E9741207B2179721E9641421E9041B5
S1131AF04A1E914162797F01541EA241009C360125
S1131B002343039CC0002343019C49032343029CB9
S1131B1012072343049C2343059C23431F4363462A
S1131B203E43304301430A432A60002B01D0012382
S1131B306B6007B0F0BDC0460000014000040140E6
S1131B40000801406B2B0000F8B5234B06000D0084
S1131B501400984209D0214B984206D0204B984259
S1131B6003D0EA211F48FFF77BFA022D03D9EB21AA
S1131B701C48FFF775FA237862789B061206134314
S1131B80A279E7791343A278207A12041343E27806
S1131B90617A120313432279033592021343627963
S1131BA02D01120213439C467A1E9741421E904116
S1131BB04A1E9141A27AE47A531E9A41634624074D
S1131BC07F0523433B4300050901034392000B4374
S1131BD01343AB51F8BDC04600000140000401406E
S1131BE0000801406B2B000070B505000C00161EA8
S1131BF004D1A2210B488900FFF732FA002C03D14B
S1131C000948FFF7EDFC0400601E710000F0ECFBD6
S1131C10064B04021C4203D005490248FFF720FA90
S1131C206C6170BD9C2B0000408104000700E0FF44
S1131C30A5020000094B70B504000D00984206D0BF
S1131C40074B984203D007490748FFF709FAEB43CB
S1131C500A225B001340E360E56070BD00C00040F1
S1131C6000C40040BE0200009C2B000070B5134D60
S1131C700400A84206D0124B984203D011491248DE
S1131C80FFF7EEF9114B124AE36000232360626010
S1131C90104AA3606361E364A2646365AC4202D04A
S1131CA0074A944200D123650023A365AC4202D0C5
S1131CB0034A944200D1E36570BDC04600C00040B1
S1131CC000C400402E0400009C2B0000AA0E00005B
S1131CD005100000F91F0000214B70B504000D0031
S1131CE0984207D01F4B984204D0D6211E48890041
S1131CF0FFF7B6F92000FFF7B9FF01212A8A23680C
S1131D001143AA7B0B43501E82419202134323606A
S1131D102B7D2268591E8B415B0713432360AB7CE8
S1131D20002B03D01023EA7C1343A36580232A7B72
S1131D305B01134363602000AA686968FFF754FFDE
S1131D406B7B002B01D01023E3606B7D002B04D050
S1131D50802322685B02134323602B78E36070BD09
S1131D6000C0004000C400409C2B000000207047CD
S1131D700F230522F0B59C46FF264027524203203C
S1131D8033001040C00083403C00DB438440D1B2A8
S1131D9010060ED4C0250D48910889000918AD001D
S1131DA0485903401C434C510132152AE7D1002005
S1131DB0F0BD6046014008390548890889000918C2
S1131DC0C86903401C43CC61EEE7C04600E100E073
S1131DD000ED00E030B500250F4C41612368AB42B3
S1131DE009D12060836014E0891A9A681D0041615A
S1131DF0002A06D013005A698A42F5D9002D09D069
S1131E001A001300A8608360002B02D05A69511A8B
S1131E10596130BD2060F6E73405002010B500F0AC
S1131E2013FA0B4B0B4C19682368C31A002901D011
S1131E30002B01D1206010BD4A699A4204D3D21A02
S1131E4000234A618968F1E79B1A0022F9E7C0463A
S1131E50340500202005002070B50F4B0F4D1C6881
S1131E602B6802205B69E41800F0FEF9200000F002
S1131E7029FA002302200A492A680B70D4880442F4
S1131E8002D001230B7070BD9268002AFBD0546904
S1131E901B19012BF2D9F6E7200500203405002098
S1131EA02805002070B50400160004AA0D0002CA1B
S1131EB0266121600021107806AA12882071A16091
S1131EC0E360E28000F0C0F98019A061002D09D11F
S1131ED0E3686561002B02D0200021689847002E3A
S1131EE012D03500FFF7CAFC0600FFF797FF290060
S1131EF02000FFF76FFF054B1B68A34201D1FFF7DA
S1131F00ABFF3000FFF7BEFC002070BD340500209D
S1131F100300002110B50E4C2268002A11D09A4209
S1131F200CD19A68002910D08A609A68101E0BD0D0
S1131F305B6951690020CB18536105E01100926878
S1131F40EBE70220002BECD010BD2260EDE7C04689
S1131F503405002070B5FFF791FC144E0500347869
S1131F60002C1ED1124B1C60124B1C60124B1C80A7
S1131F7000F03AF9012000F077F900F0D1F90F4BA5
S1131F80021E186004D12800FFF77CFC232070BDDA
S1131F9023000B480B4900F0D1FA0B4B18600123C6
S1131FA033702800FFF76EFC0020F0E71C050020CA
S1131FB034050020200500202A05002030050020DB
S1131FC018FCFFFFE70300002405002070B505009E
S1131FD00C002220002D10D000290ED000230B70FD
S1131FE0FFF74CFC0121084B1B68002B02D0227820
S1131FF0002A03D0FFF746FC002070BDAB4201D19C
S11320002170F2E79B68F0E734050020F0B589B051
S113201004930EAB1B78160005930FAB1F880023A7
S113202002AA04000D002220D3759C4215D0173358
S11320309B1819002000FFF7C9FF02ABDB7D0220CB
S1132040002B0AD1059B2A000193049B29000093CD
S1132050200033000297FFF725FF09B0F0BD000010
S11320600B4B02001B6810B521200C0093420DD3CA
S1132070084B18680023190000F080FAFA220023A4
S1132080920000F05BFA01302060002010BDC046D1
S11320902405002030050020F0B5040087B0C307F4
S11320A00CD54C4A138801339BB21380FFF7B6FE5C
S11320B0494B1B68002B01D0FFF7CEFEA3071CD5AC
S11320C0FFF7DCFB002706003D00FFF7A7FE424BAD
S11320D01C68002C02D06369002B10D000223F4BF7
S11320E01A70012D02D1022F00D11D70002C5DD079
S11320F0FFF7B2FE3000FFF7C5FB07B0F0BD2300C9
S113210021791A79914200D91C009B68002B02D0D6
S11321105A69002AF4D03000FFF7B4FB2669002E78
S113212048D000230096019300F08EF8A36901992A
S1132130C61AF2178A4241D1009A96423ED92269C0
S1132140D318A36101232269002A21D0002B1FD1B7
S1132150F31704960593049A059B009E019FB61AF3
S11321609F4102960397039B002B03DA1C491D48E9
S1132170FEF776FFFFF782FB070002992000FFF7C6
S113218029FEA369226938009B18A361FFF77AFB33
S1132190E368E7880135002B02D0200021689847C6
S11321A0FFF76CFB0600FFF739FE90E7022000F012
S11321B075F89FE70022002300920193FFF75EFB6E
S11321C007002000FFF7A4FE3800FFF75BFB0023A5
S11321D0B9E7C0462A050020340500202C0500205C
S11321E002040000CD2B000013B5134C0322134945
S11321F001A800F003FB20000121FFF72DF80121C5
S11322002000FFF7D9F800246B466A469C7101232D
S113221001A81371FFF722FC0721094BDA698A43ED
S1132220DA61802299615C607A31064B5201FF3198
S11322305A501A6013BDC04680061200562C000086
S11322400000084000E100E0054A064B51681B7895
S11322501069C00701D55168013318060843704757
S1132260000008403C05002001220A49024083077F
S113227004D41300CA691343CB617047064B187822
S1132280002803D00420886100201870042313431D
S1132290F0E7C046000008401004002001220100BD
S11322A01140830705D40B000449CA699A43CA61E3
S11322B0704704230B4302490A70F5E70000084005
S11322C01004002010B50400FFF7BEFF124B1A697A
S11322D0124B520706D41A68121A032A02D81A6833
S11322E0824214D1221A022A00D8C41C013C1C6068
S11322F01A68101A80225204904209D219680120E7
S11323000902090AFFF78CFB0220FFF7ADFF10BD9D
S11323100220FFF7C3FFFAE7000008403805002059
S113232010B50248FFF75CF910BDC04680061200E4
S1132330F8B5FFF7A3FA06000120184F00243D6901
S113234005421AD08022164B52041C782406A41885
S1132350624254411A78E4B21218D2B21A70114A85
S113236011681B781B06C91A80235B04994204D2A6
S1132370FFF756FB0220FFF777FF6B0701D5022317
S11323801C4305231D40BD61002C02D02000FFF733
S113239083FE3000FFF776FAF8BDC046000008401F
S11323A03C0500203805002010B5FEF767FCFEF759
S11323B089FCFEF78BFCFEF78DFCFEF78CFC10BD50
S11323C010B5FEF789FCFEF788FCFEF787FCFEF7E4
S11323D086FC10BD02B4714649084900095C4900F5
S11323E08E4402BC7047C046002243088B4274D31B
S11323F003098B425FD3030A8B4244D3030B8B4202
S113240028D3030C8B420DD3FF22090212BA030C0A
S11324108B4202D31212090265D0030B8B4219D3EB
S113242000E0090AC30B8B4201D3CB03C01A52410B
S1132430830B8B4201D38B03C01A5241430B8B4253
S113244001D34B03C01A5241030B8B4201D30B033C
S1132450C01A5241C30A8B4201D3CB02C01A524163
S1132460830A8B4201D38B02C01A5241430A8B4226
S113247001D34B02C01A5241030A8B4201D30B020F
S1132480C01A5241CDD2C3098B4201D3CB01C01A29
S1132490524183098B4201D38B01C01A5241430933
S11324A08B4201D34B01C01A524103098B4201D321
S11324B00B01C01A5241C3088B4201D3CB00C01A8E
S11324C0524183088B4201D38B00C01A5241430806
S11324D08B4201D34B00C01A5241411A00D201462B
S11324E0524110467047FFE701B5002000F006F89E
S11324F002BDC0460029F7D076E770477047C04652
S11325001C2101231B04984201D3000C10391B0A1F
S1132510984201D3000A08391B09984201D30009E3
S1132520043902A2105C40187047C046040302023A
S1132530010101010000000000000000002B11D186
S1132540002A0FD1002900D1002802D00021C9435C
S1132550080007B4024802A14018029003BDC04617
S11325609DFFFFFF03B4684601B5029800F034F8FC
S1132570019B9E4602B00CBC7047C046F0B5CE46E7
S1132580474680B5070099463B0C9C4613041B0C38
S11325901D000E0061460004140C000C45434B431F
S11325A060436143C0182C0C20188C46834203D925
S11325B080235B029846C444494679437243030C22
S11325C063442D042D0CC918000440198918C0BC9B
S11325D0B946B046F0BDC046F0B557464E464546EE
S11325E0DE46E0B504000D009246994683B08B4266
S11325F030D82DD04946504600F0BAF829000600DC
S1132600200000F0B5F8331A9846203B9B4633D49B
S11326105A465346934042461F00534693401E0079
S1132620AF423AD8AF4200D178E05B46A41BBD412B
S1132630002B00DA75E000220023009201930123AD
S11326405A4693400193012342469340009328E065
S11326508242CFD900220023009201930C9B002BCD
S113266001D01C605D600098019903B0F0BCBB46CA
S1132670B246A946A046F0BD424620239B1A5246C4
S1132680DA40414613004A468A40170042461F4337
S1132690534693401E00AF42C4D900220023009247
S11326A001934346002BD9D0FB0772081A434646D0
S11326B07B080EE0AB4201D1A2420CD8A41A9D4182
S11326C0012024196D410021013E24184D41002EA2
S11326D006D0AB42EED9013E24196D41002EF8D14B
S11326E0009801995B4600196941002B24DB2B00FB
S11326F05A464446D3402A00E2401C005B4615007B
S1132700002B2ADB26009E40330026004746BE40AD
S11327103200801A9941009001919FE7A342BCD8EE
S113272083E74246202300219B1A00220091019254
S11327300122DA40019286E7424620239B1A2A00AE
S113274046469A402300F340444613432A00E2409D
S11327501C005B461500002BD4DA42462F002023D0
S1132760260097409B1ADE403B003343CDE7C0462A
S113277010B5002903D1FFF7C3FE203002E00800A2
S1132780FFF7BEFE10BDC046084B10B50400002B79
S113279002D0002100E000BF054B1868836A002BBB
S11327A000D09847200000F03BF8C046000000002D
S11327B05C2C000070B500260C4D0D4C641BA4105D
S11327C0A64209D1002600F02DF80A4D0A4C641BDC
S11327D0A410A64205D170BDB300EB58984701364A
S11327E0EEE7B300EB5898470136F2E77404002093
S11327F0740400207404002078040020002310B521
S11328009A4200D110BDCC5CC4540133F8E70300F4
S11328108218934200D1704719700133F9E7000020
S1132820FEE7C046F8B5C046F8BC08BC9E467047F3
S1132830F8B5C046F8BC08BC9E4670472F4170707E
S11328406C69636174696F6E732F53696D706C6921
S1132850636974792053747564696F2E6170702F85
S1132860436F6E74656E74732F45636C6970736522
S11328702F646576656C6F7065722F73646B732F4C
S11328806765636B6F5F73646B5F73756974652FE2
S113289076332E322F2F706C6174666F726D2F65D4
S11328A06D6C69622F696E632F656D5F6770696F08
S11328B02E68002E2E2F6D6672633532322E630021
S11328C02F4170706C69636174696F6E732F536903
S11328D06D706C69636974792053747564696F2EC3
S11328E06170702F436F6E74656E74732F45636CE3
S11328F0697073652F646576656C6F7065722F738C
S1132900646B732F6765636B6F5F73646B5F737561
S11329106974652F76332E322F2F706C6174666F55
S1132920726D2F656D6C69622F696E632F656D5FC3
S113293074696D65722E68002E2E2F757361727422
S11329402E630000050000000000000040420F005C
S11329500501000000000000000000000004002049
S1132960190F0000490F0000630F00007D0F0000E5
S1132970E90F00002F4170706C69636174696F6EB8
S1132980732F53696D706C6963697479205374751E
S113299064696F2E6170702F436F6E74656E74730B
S11329A02F45636C697073652F646576656C6F7011
S11329B065722F73646B732F6765636B6F5F7364EA
S11329C06B5F73756974652F76332E322F2F706C9D
S11329D06174666F726D2F656D6C69622F696E63C9
S11329E02F656D5F636D752E68002F4170706C6983
S11329F0636174696F6E732F53696D706C69636979
S1132A0074792053747564696F2E6170702F436FED
S1132A106E74656E74732F45636C697073652F648F
S1132A206576656C6F7065722F73646B732F676561
S1132A30636B6F5F73646B5F73756974652F763353
S1132A402E322F706C6174666F726D2F656D6C69B8
S1132A50622F7372632F656D5F636D752E63000360
S1132A6002060907030105160001400004000100E5
S1132A70100000040002800008000200200000088A
S1132A802F4170706C69636174696F6E732F536941
S1132A906D706C69636974792053747564696F2E01
S1132AA06170702F436F6E74656E74732F45636C21
S1132AB0697073652F646576656C6F7065722F73CA
S1132AC0646B732F6765636B6F5F73646B5F7375A0
S1132AD06974652F76332E322F706C6174666F7251
S1132AE06D2F656D6C69622F7372632F656D5F67FF
S1132AF070696F2E63002F4170706C696361746933
S1132B006F6E732F53696D706C69636974792053A8
S1132B10747564696F2E6170702F436F6E74656E87
S1132B2074732F45636C697073652F646576656C87
S1132B306F7065722F73646B732F6765636B6F5F60
S1132B4073646B5F73756974652F76332E322F70DF
S1132B506C6174666F726D2F656D6C69622F737230
S1132B60632F656D5F7274632E63002E2E2F67656D
S1132B70636B6F5F73646B5F332E322E332F706C15
S1132B806174666F726D2F656D6C69622F73726309
S1132B902F656D5F74696D65722E63002E2E2F672D
S1132BA065636B6F5F73646B5F332E322E332F70EC
S1132BB06C6174666F726D2F656D6C69622F7372D0
S1132BC0632F656D5F75736172742E63002F41709E
S1132BD0706C69636174696F6E732F53696D706C87
S1132BE069636974792053747564696F2E617070B8
S1132BF02F436F6E74656E74732F45636C697073C5
S1132C00652F646576656C6F7065722F73646B7382
S1132C102F6765636B6F5F73646B5F73756974654E
S1132C202F76332E322F706C6174666F726D2F7332
S1132C306572766963652F736C65657074696D651B
S1132C40722F7372632F736C5F736C656570746934
S1132C506D65722E63000100010000001404002061
S10B2C607CD4FF7F0100000099
S1132C6800000100809FD50000366E01008000003E
S1132C780100000000000000000000000000000047
S1132C880000000000000000000000000000000038
S1132C980000000000000000000000000000000028
S1132CA80000000000000000000000000000000018
S1132CB80000000000000000000000000000000008
S1132CC800000000000000000000000000000000F8
S10F2CD800000000BD000000950000009A
S9030CF5FB
