S0120000455645455F41545F4F4E452E73333788
S113000000040020ED1E0000351F0000351F000015
S1130010351F0000351F0000351F0000351F00008C
S1130020351F0000351F0000351F0000351F00007C
S1130030351F0000351F0000351F0000351F00006C
S1130040351F0000351F0000B1150000351F0000EA
S1130050351F0000B1080000351F0000E115000045
S1130060F11A0000811B0000351F0000351F00003D
S1130070814A0000351F0000351F0000351F0000B5
S1130080351F0000BD1A0000251B0000351F0000AD
S1130090351F000010B5064C2378002B07D1054B03
S11300A0002B02D0044800E000BF0123237010BDE0
S11300B07C04002000000000E0790000044B10B52F
S11300C0002B03D00349044800E000BF10BDC04624
S11300D00000000080040020E07900004022920229
S11300E09A1A92467047C046174B002B00D1134B07
S11300F09D46FFF7F3FF00218B460F461348144A31
S1130100121A06F0B5FE0E4B002B00D098470D4B8B
S1130110002B00D098470020002104000D000D485A
S1130120002802D00C4800E000BF06F07DFE20004D
S1130130290000F011FD06F061FEC0460000080031
S11301400000000000000000000400207C040020E7
S113015068050020000000000000000000B583B026
S1130160020000916B4607331A706B4607331B7805
S1130170002B26D06B4607331B78012B1ED06B4611
S113018007331B78022B17D06B4607331B78032BDE
S113019010D06B4607331B78042B08D06B4607330B
S11301A01B78052B01D13F230CE000230AE0F02348
S11301B09B0107E0F02305E0114B03E0D323DB01AF
S11301C000E0104B009AD3400122134006D1F923DA
S11301D09A000D4B1100180002F084F90B486B468D
S11301E007331A780121009B99401300DB009B1808
S11301F09B00C31814331960C04603B000BDC04649
S11302001FEF0000070700009C6E00000060004024
S113021000B583B0020000916B4607331A706B4639
S113022007331B78002B26D06B4607331B78012B32
S11302301ED06B4607331B78022B17D06B4607334F
S11302401B78032B10D06B4607331B78042B08D084
S11302506B4607331B78052B01D13F230CE00023A9
S11302600AE0F0239B0107E0F02305E0104B03E0D4
S1130270D323DB0100E00F4B009AD340012213404B
S113028005D10D4A0D4B1100180002F02BF90C4852
S11302906B4607331A780121009B99401300DB0059
S11302A09B189B00C31810331960C04603B000BDEF
S11302B01FEF000007070000130400009C6E0000FD
S11302C00060004010B500F02DF900F04BF900F08B
S11302D04DFC00F08DF8054B180001F0F9F800F022
S11302E0A5FC00F0E9FDC04610BDC0460004014075
S11302F010B586B03C230593394B180001F0A2F9E0
S1130300031E30D0364B180001F0AEF900F078FC33
S113031003000493049B002B25D0049AFF231B02A3
S113032013400393049BFF2213400293039B1B0A75
S1130330180005F079FA041C029805F075FA031CFC
S11303408721C905181C04F0A9FF031C191C201CD3
S113035004F006FE031C0193FE218905019805F0B3
S1130360B5F8031C019300F031FD03000493049BD2
S1130370002B01D001F052F9049B1A4A934213D185
S113038000210020FFF744FF01210020FFF7E6FED3
S1130390154B00220021180001F07AF8059B124841
S11303A01A00012101F074F8049B104A934213D1FE
S11303B000210020FFF7D2FE01210020FFF7CEFE2E
S11303C0094B00220021180001F062F8064B0022BC
S11303D00121180001F05CF8C04606B010BDC0460B
S11303E000000140D3C6048800080140D3B6048845
S11303F000B58BB001AB01221A7001AB00225A7018
S113040001AB00225A6001AB64229A6001AB322234
S1130410DA6001AB32221A6101AB32225A6101ABBC
S113042001221A7601AB00225A7601AB0422DA616A
S113043001AB20220021995401AB264A1900100077
S113044000F0BEFE234B00220021180001F020F82A
S1130450204B00220121180001F01AF81D4B002244
S11304600221180001F014F81A4B0121180000F0C1
S1130470FDFF01AB01221A7001AB00225A7001ABDF
S113048000229A6001AB3222DA6001AB32221A6197
S113049001AB32225A6101AB00221A7601AB002271
S11304A05A7601AB8022D200DA6101AB202201210D
S11304B0995401AB00225A6001AB074A190010009D
S11304C000F07EFE044B0121180000F0CFFFC0466F
S11304D00BB000BD000801400000014010B588B019
S11304E0059004910392029306AA049B110018003C
S11304F003F0A2FE03000793079B002B01D0079B88
S11305000DE00699029C039A05980BAB1B88019396
S11305100AAB1B780093230003F028FE03001800A5
S113052008B010BD00B583B0064A07480123019303
S11305300023009300230421FFF7D0FFC04603B03B
S113054000BDC0464D0500009804002082B0019013
S11305500091034B01221A70C04602B07047C04696
S1130560B404002010B5334B0121180002F092FBB3
S1130570002304220021002003F004F800230422B5
S11305800121002002F0FEFF0023042202210020AA
S113059002F0F8FF002304220821002002F0F2FFF9
S11305A0002304220921002002F0ECFF002304228E
S11305B00A21002002F0E6FF002304220921022080
S11305C002F0E0FF012304220A21022002F0DAFFF4
S11305D0012304220821022002F0D4FF0023042274
S11305E00021022002F0CEFF00230122012102207B
S11305F002F0C8FF002304220721012002F0C2FFF9
S1130600012304220821012002F0BCFF0123082257
S11306100621032002F0B6FF01230822072103204C
S113062002F0B0FF002304220B21022002F0AAFFF3
S1130630C04610BD0082040082B002006B4607333E
S11306401A706B4607331B787F2B0AD86B46073327
S11306501B781A001F231A40034B012191400A0002
S11306601A60C04602B0704700E100E084B0019017
S1130670019B054A934201D1044B0393039B1B7EC8
S1130680DBB2180004B0704700A00040B80400209A
S113069000B589B001900091019B3D4A934201D17C
S11306A03C4B0793019B3A4A934204D13A4B0121B4
S11306B0180002F0EFFA019B9B6A0122134010D14B
S11306C0019B0122DA62019B9B6A0122134004D13F
S11306D0324B4121180001F005FF019B01221A63EE
S11306E00CE0019B01221A63019B9B6A01221340C7
S11306F004D02A4B4521180001F0F4FE009B1A781F
S113070002AB1A70009B1A7B02AB1A73009B9A68A7
S113071002AB9A60009B5A7802AB5A70009B5A68ED
S113072002AB5A6002AA019B1100180003F056F9AB
S1130730009B1B6903221A43019B9A63019B1800C7
S113074000F02EF8019B012252421A63019B4022C1
S11307505A6040230693069B802213430693069B0C
S1130760202213430693069B8022520013430693D0
S1130770019B069A5A63019B054A934202D10520C4
S1130780FFF75AFF079B00221A76C04609B000BD46
S113079000A00040B804002000B20400146F000060
S11307A084B00190019B20225A60019B5B6B0393F0
S11307B0019B00225A63019B9A6A019B1A63019B65
S11307C040225A60019B03225A60C046019B9A6AE8
S11307D080235B001340F9D0019B9A6A019B1A6342
S11307E0019B039A5A63019B20225A60C04604B0BD
S11307F07047000000B587B0039002910192009306
S1130800039B284A934201D1274B0593C046059B7D
S11308101B7EDBB2002BFAD1039B9A681300DB002A
S11308209B1A5B0104D0214BB921180001F05AFE38
S11308300AAB1B78002B03D0039B1800FFF7B0FF13
S1130840059B0B9A1A62059B00221A70059B039A5A
S11308505A60059B029A9A60059B019ADA60059B8F
S1130860009A5A61059A08AB1B785376059B0022BF
S1130870DA61059B099A1A6108AB1B78002B03D037
S1130880059B1B6900221A60059B01221A76039BB3
S113089001225A60059B9B685A00039B5A62C0461A
S11308A007B000BD00A00040B8040020146F000091
S11308B000B583B0254B9A6A244B5B6B13400193BC
S11308C0224B019A1A63019B402213400DD01F4B07
S11308D09B6A4022134004D01D4BE321180001F011
S11308E001FE1C4B180000F037F8019B80221340D6
S11308F00DD0164B9B6A8022134004D0144BE72181
S1130900180001F0EFFD134B180000F09DF8019B57
S11309102022134003D00F4B180000F0ADF8019AC9
S113092080235B0013400ED0084B9A6A80235B003F
S1130930134004D0064BEE21180001F0D3FD054B03
S1130940180000F0E9F8C04603B000BD00A0004064
S1130950146F0000B804002000B585B0019002F0C7
S113096031FD03000393019B1B78042B3CD059DC1D
S1130970022B35D056DC002B02D0012B09D051E0DC
S1130980019B01221A70019B5B68019AD2685A622A
S113099050E0019B5B7E002B0FD0019B02221A705A
S11309A0019B5B6801225A60019B9B685A00019B72
S11309B05B6801210A435A623CE0019B04221A70DD
S11309C0019B1A69019BDB699B00D218019B5B6840
S11309D012685A62019BDB695A1C019BDA6129E0A7
S11309E0019B03221A7025E0019BDA69019B5B6974
S11309F09A4207D1019B05221A70019B5B6802226F
S1130A005A6017E0019B1A69019BDB699B00D218AD
S1130A10019B5B6812685A62019BDB695A1C019B4B
S1130A20DA6107E08C235A00064B1100180001F02C
S1130A3059FDC046039B180002F0D0FCC04605B027
S1130A4000BDC046146F000000B585B0019002F0EF
S1130A50B9FC0300039395235A00064B11001800B8
S1130A6001F040FDC046039B180002F0B7FCC046ED
S1130A7005B000BD146F000000B585B0019002F010
S1130A80A1FC03000393019B1B78032B31D1019B31
S1130A905B68DA69019B5B69013BDB009A401100EA
S1130AA0019B1B691A68019B1B690A431A60019B1D
S1130AB05B695A1E019B5A61019BDB695A1C019BAD
S1130AC0DA61019B5B69002B03D0019B5B68042204
S1130AD05A60019B5B69002B13D1019B05221A709C
S1130AE0019B5B6808225A60019B5B6802225A6082
S1130AF007E0A4235A00074B1100180001F0F2FC90
S1130B0000E0C046039B180002F068FCC04605B034
S1130B1000BDC046146F000000B585B0019002F01E
S1130B2051FC03000393019B1B78052B03D1019B0C
S1130B3000221A7607E0AE235A00064B1100180073
S1130B4001F0D0FCC046039B180002F047FCC046ED
S1130B5005B000BD146F000010B504F006F8FFF7EF
S1130B60B1FB04F00FF8FFF7C3FBFAE700B587B059
S1130B7001AB01221A7301AB0B4A9A6001AB01224B
S1130B801A7001AB01225A7001AB00225A6001AB0A
S1130B90802252001A6101AB044A19001000FFF7C9
S1130BA077FDC04607B000BDDDFB050000A0004096
S1130BB000B58BB007900691059227236B44012260
S1130BC01A7026236B4401221A700599069A0A4862
S1130BD0079B039326236B441B780293074B0193D3
S1130BE027236B441B7800930B003621FFF702FE8A
S1130BF0C0460BB000BDC04600A00040DC0400208D
S1130C0010B5022204210020FFF7D2FFC046054B95
S1130C101800FFF72BFD031EF9D1034B1B681800C6
S1130C2010BDC04600A00040DC04002000B589B01F
S1130C3001AB00225A7601AB00221A7601AB134AAB
S1130C40DA6001AB00229A8201AB05221A7401AB6F
S1130C5005221A7101AB01225A7401AB01229A7464
S1130C6001AB0022DA7501AB00229A7501AB0022B8
S1130C709A6001AB00221A6001AB054A190010000A
S1130C8000F0D2FDC04609B000BDC046404B4C0048
S1130C9000C4004010B58AB00990089107920693E9
S1130CA00798089A0999094C08230493012303938C
S1130CB0069B02930023019300230093030020006A
S1130CC000F05EFEC0460AB010BDC04600C400403D
S1130CD000B58BB0099008910792089A09990948C0
S1130CE00823049301230393079B02930123019395
S1130CF0054B00931300002200F042FEC0460BB0E7
S1130D0000BDC04600C40040E004002000B585B02A
S1130D100390029101920023012200210120FFF798
S1130D20B9FF002301227F210420FFF7B3FF002332
S1130D30012280210A20FFF7ADFF029A03990023C4
S1130D400920FFF7A7FF0199002301220D20FFF7D7
S1130D50A1FF002301220C210120FFF79BFF0022A9
S1130D6001210D20FFF7B4FFC046164B180000F018
S1130D7085FE031EF9D1144B1B6880221A4311000F
S1130D80002301220D20FFF785FF0022012104200A
S1130D90FFF79EFFC0460B4B180000F06FFE031ECA
S1130DA0F9D1094B1B683022134001D0012305E01F
S1130DB0054B1B6801221340E7D00023180005B03F
S1130DC000BDC04600C40040E004002000B583B06C
S1130DD00023012200211220FFF75CFF00230122DF
S1130DE000211320FFF756FF00230122262124208F
S1130DF0FFF750FF00F0C4F8072201212620FFF777
S1130E0085FF03000193019B002B01D1002347E0E0
S1130E10002201210620FFF75BFFC046224B180089
S1130E2000F02CFE031EF9D1204B1B681322134043
S1130E3004D01F4B5A21180001F054FB00F0A0F815
S1130E401C4B0093009B002202211800FFF75EFF59
S1130E5003000193019B002B01D1002320E0002219
S1130E6001210A20FFF734FFC0460F4B180000F0A1
S1130E7005FE031EF9D10D4B1B680093009B013B3B
S1130E80002219000920FFF723FFC046064B180073
S1130E9000F0F4FD031EF9D1044B1B680093009B82
S1130EA0180003B000BDC04600C40040E0040020A8
S1130EB0206F00002093000000B583B000230122BE
S1130EC00F210120FFF7E6FE00230122002112205A
S1130ED0FFF7E0FE0023012200211320FFF7DAFED2
S1130EE00023012226212420FFF7D4FE002301221F
S1130EF080212A20FFF7CEFE00230122A9212B20E6
S1130F00FFF7C8FE0023012203212C20FFF7C2FEB5
S1130F1000230122E8212D20FFF7BCFE002301223B
S1130F2040211520FFF7B6FE002301223D211120A8
S1130F30FFF7B0FE002201211420FFF7C9FEC046CE
S1130F400D4B180000F09AFD031EF9D10B4B1B68E2
S1130F500193019B03221340032B09D0019B03221D
S1130F601A431100002301221420FFF793FEC04608
S1130F70C04603B000BDC04600C40040E0040020E9
S1130F8000B583B0002201210E20FFF7A1FEC04668
S1130F900A4B180000F072FD031EF9D1084B1B68C0
S1130FA00193019B802293431900002301220E2008
S1130FB0FFF770FEC04603B000BDC04600C4004049
S1130FC0E004002082B002006B4607331A706B46BF
S1130FD007331B787F2B0AD86B4607331B781A001C
S1130FE01F231A40034B012191400A001A60C04696
S1130FF002B0704700E100E082B00190019B0A4A10
S1131000934207D0019B094A934203D0019B084AAB
S1131010934201D1012300E000231A1C0123134051
S1131020DBB2180002B07047000001400004014028
S11310300008014082B00190014B180002B07047D3
S1131040FFFF000000B585B0039002910192039B5D
S11310501800FFF7EFFF0200019B934205D9084AED
S1131060084B1100180001F03DFA039A029B033368
S11310701B01D3180433019A1A60C04605B000BDA1
S113108002030000306F000000B583B001900A0035
S11310906B4603331A70019B1800FFF7ADFF031E64
S11310A006D1D1239A000A4B1100180001F01AFA54
S11310B06B4603331B78002B03D0019B01225A603B
S11310C002E0019B02225A60C04603B000BDC04644
S11310D0306F000000B583B001900091019B1800AF
S11310E0FFF7A8FF0200009B934205D9054A064B6F
S11310F01100180001F0F6F9019B009ADA61C0466C
S113110003B000BD76040000306F000000B583B06A
S1131110020000916B4607331A706B4607331B7845
S1131120002B26D06B4607331B78012B1ED06B4651
S113113007331B78022B17D06B4607331B78032B1E
S113114010D06B4607331B78042B08D06B4607334B
S11311501B78052B01D13F230CE000230AE0F02388
S11311609B0107E0F02305E0104B03E0D323DB01F0
S113117000E00F4B009AD3400122134005D10D4AE1
S11311800D4B1100180001F0ADF90C486B46073304
S11311901A780121009B99401300DB009B189B00E7
S11311A0C31810331960C04603B000BD1FEF000020
S11311B00707000013040000A86F0000006000404F
S11311C030B591B0019000919E4B180001F0C4FD20
S11311D003000A93019B9C4A93420AD10220FFF721
S11311E0F1FE9A4B0121180001F054FD984B0022A6
S11311F01A60019B974A934207D10720FFF7E2FE4A
S1131200954B0121180001F045FD019B934A93423F
S113121007D11420FFF7D6FE914B0121180001F0ED
S113122039FD05AB00225A7105AB0022DA7005AB1B
S113123000221A71009B1A7805AB5A7005AB002284
S11312405A7205AB00221A7005AB00229A7105ABE5
S113125000221A7205AB0022DA7205AB00229A72E0
S113126005AB0022DA7105AB00221A73009BDB691F
S1131270042B02D105AB02229A70009BDA69802309
S1131280DB009A4202D105AB0A229A7005AA019B9F
S11312901100180002F04EFC009B9B68002B04D147
S11312A00022704B0E920F9308E0009B9B6818007D
S11312B005F028FC02000B000E920F930A9805F02B
S11312C021FC04000D00009BDB69180005F01AFCEA
S11312D00E9A0F9B04F0E0FD02000B002000290091
S11312E004F0E4FA02000B001000190000225E4B27
S11312F005F040F802000B001000190003F046FD51
S113130003000993099A019B11001800FFF7E2FEFC
S113131002AB02225A7102AB03221A7102AB002201
S11313205A7202AB0022DA7002AB03225A7002AB8B
S113133000221A7002AB0022DA7102AB03229A7106
S113134002AB00229A7202AB00221A7202AB002294
S1131350DA7202AB00229A7002AA019B00211800E3
S113136002F064FC02AA019B0121180002F05EFC59
S113137002AA019B0221180002F058FC009BDB68C2
S1131380099A53436421180003F008FC03000D93E9
S1131390009B1B69099A53436421180003F0FEFB68
S11313A003000C93009B5B69099A53436421180062
S11313B003F0F4FB03000B93009BDB68642B02D166
S11313C0099B01330D93009B1B69642B02D1099B7C
S11313D001330C93009B5B69642B02D1099B01339D
S11313E00B930D9A019B00211800FFF72BFE0C9A1A
S11313F0019B01211800FFF725FE0B9A019B022196
S11314001800FFF71FFE009B5A68009B1B7E190003
S11314100B00DB005B1A1A43009B5B7E19000B0078
S1131420DB005B1ADB011A43019B9A62009B2022BA
S11314309B5C002B02D0019B0122DA60C04611B0F4
S113144030BDC04640810400000001400002040099
S1131450E4040020000401400012040000080140DC
S1131460002204000000D03F0000F03F00B583B02C
S113147001900A006B4603331A706B4603331A78E3
S1131480019B11001800FFF7FFFDC04603B000BD2B
S113149000B587B0039002910192019B642B04D1A3
S11314A0039BDB690133059309E0039BDB69019A24
S11314B053436421180003F071FB03000593059A5C
S11314C00299039B1800FFF7BDFDC04607B000BD9D
S11314D000B589B00190314B180001F03DFC0300C8
S11314E00793019B2E4A934207D10720FFF76AFD19
S11314F02C4B0121180001F0CDFB02AB00225A71E4
S113150002AB0022DA7002AB00221A7102AB002295
S11315105A7002AB00225A7202AB00221A7002AB5C
S113152000229A7102AB00221A7202AB0122DA7213
S113153002AB0A229A7002AB00229A7202AB00221A
S1131540DA7102AB00221A7302AA019B110018007F
S113155002F0F0FA079805F0D5FA0022124B04F0D5
S1131560A5F902000B001000190000220F4B04F033
S113157001FF02000B001000190003F007FC030038
S11315800693069A019B11001800FFF7A3FD019B27
S11315900122DA60C04609B000BDC04640810400A3
S11315A00004014000120400000070400000F03FFD
S11315B082B0094B1A69084BDB6813400193064B50
S11315C0019A9A61019B0122134002D0034B01222C
S11315D01A60C04602B0704700000140E4040020D5
S11315E000B583B0084B1A69074BDB6813400193BD
S11315F0054B019A9A61019B0122134001D000F02E
S113160005F8C04603B000BD0004014010B50B212D
S11316100220FFF77BFDC04610BD000010B5084B4B
S11316209B680122134005D1054B01211800FFF7E7
S11316301DFF02E0024B00225A62C04610BDC046A4
S11316400004014082B00190019B054A934202D1FB
S1131650044B1B6800E00023180002B07047C0462A
S113166000000140E404002082B00190019B054A7F
S1131670934203D1044B00221A6000E0C04602B03A
S11316807047C04600000140E404002082B002001C
S11316906B4607331A706B4607331B787F2B0AD8C7
S11316A06B4607331B781A001F231A40034B012192
S11316B091400A001A60C04602B0704700E100E0A1
S11316C000B583B0020000916B4607331A706B4675
S11316D007331B78002B26D06B4607331B78012B6E
S11316E01ED06B4607331B78022B17D06B4607338B
S11316F01B78032B10D06B4607331B78042B08D0C0
S11317006B4607331B78052B01D13F230CE00023E4
S11317100AE0F0239B0107E0F02305E0114B03E00E
S1131720D323DB0100E0104B009AD3400122134085
S113173006D1F9239A000D4B1100180000F0D2FED7
S11317400B486B4607331A780121009B994013001C
S1131750DB009B189B00C31814331960C04603B008
S113176000BDC0461FEF0000070700002070000006
S11317700060004000B583B0020000916B4607335F
S11317801A706B4607331B78002B26D06B46073341
S11317901B78012B1ED06B4607331B78022B17D006
S11317A06B4607331B78032B10D06B4607331B782B
S11317B0042B08D06B4607331B78052B01D13F233C
S11317C00CE000230AE0F0239B0107E0F02305E08E
S11317D0104B03E0D323DB0100E00F4B009AD3400E
S11317E00122134005D10D4A0D4B1100180000F0E1
S11317F079FE0C486B4607331A780121009B994007
S11318001300DB009B189B00C31810331960C046FB
S113181003B000BD1FEF0000070700001304000021
S1131820207000000060004010B588B00190009165
S1131830019B4B4A93420ED14A4B0121180001F0FF
S113184029FA1120FFF722FF1220FFF71FFF464B52
S1131850212200219954019B444A93420ED1444BC6
S11318600121180001F016FA0820FFF70FFF0920E4
S1131870FFF70CFF3F4B212200219954019B1B6C65
S11318800122134010D1019B01225A64019B1B6C5D
S11318900122134004D1384B2221180000F022FE0B
S11318A0019B01229A640CE0019B01229A64019B32
S11318B01B6C0122134004D02F4B2621180000F08A
S11318C011FE019B180002F00BFB02AB2B4A13CA5A
S11318D013C313CA13C3009B5A7C02AB5A73009BF5
S11318E05A7E02AB5A75009B1A7E02AB1A75009B96
S11318F0DA6802AB9A60009B1A7C02AB1A7302ABE3
S113190000221A70009B9A7C02AB9A73009BDA7DCA
S113191002ABDA74009B9A7D02AB9A74009B9A68BE
S113192002AB5A60009B9A8A02AB1A8202AA019BFC
S11319301100180002F060FA019BC0221201DA6063
S1131940009B1B680B221A43019B5A65009B1A7962
S1131950019B1100180002F01DFAC04608B010BD2A
S113196000C0004000320400E804002000C400402D
S1131970004204001805002098700000A4700000C4
S113198000B587B00390029101920093039B374AFC
S1131990934201D1364B0593039B364A934201D1BE
S11319A0354B0593C046059B21229B5CDBB2002B83
S11319B0F9D101F007FD03000493059B21220121C5
S11319C09954059B009A5A61059B089A1A61059BD4
S11319D0029ADA60059B019A9A60059B039A5A6001
S11319E0059B01221A70059B009A9A61059B0022AF
S11319F0DA61059B09AA202112785A54059B0A9A98
S1131A005A62059B0BAA282112785A54059B0C9AFA
S1131A10DA62059B1B6900221A60039BC022120133
S1131A20DA60059B28229A5C059BDB6A190010008A
S1131A30FFF746FE039B0222DA6409AB1B78002BF6
S1131A4006D0039BDB6C04221A43039BDA6406E092
S1131A50039BDB6C042293431A00039BDA64049B0C
S1131A60180001F0BBFCC04607B000BD00C0004038
S1131A70E804002000C400401805002082B0019052
S1131A80019B0A4A934204D1094B21229B5CDBB29D
S1131A9009E0019B074A934204D1074B21229B5C36
S1131AA0DBB200E00023180002B0704700C0004021
S1131AB0E804002000C400401805002000B583B0ED
S1131AC0094B1A6C084BDB6C13400193064B019ACB
S1131AD09A64019B0422134003D0044B180000F0C5
S1131AE031F9C04603B000BD00C00040E804002046
S1131AF000B583B0094B1A6C084BDB6C134001939F
S1131B00064B019A9A64019B0422134003D0044BB0
S1131B10180000F017F9C04603B000BD00C400402F
S1131B201805002000B583B0124B1A6C114BDB6C06
S1131B30134001930F4B019A9A64019B02221340B4
S1131B4003D00D4B180000F049F8019B012213400B
S1131B500DD0084B1B6C0122134004D0074B962177
S1131B60180000F0BFFC044B180000F0BFF8C0469A
S1131B7003B000BD00C00040E804002098700000DD
S1131B8000B583B0124B1A6C114BDB6C13400193FC
S1131B900F4B019A9A64019B0222134003D00D4B10
S1131BA0180000F01BF8019B012213400DD0084BD4
S1131BB01B6C0122134004D0074BA421180000F031
S1131BC091FC044B180000F091F8C04603B000BD2E
S1131BD000C40040180500209870000000B583B0D0
S1131BE00190019B1B78012B02D0022B10D071E0D5
S1131BF0019B02221A70019B20229B5CDB011900CD
S1131C00019BDB685A00019B5B680A435A6368E0E6
S1131C10019B20229B5C002B29D0019BDB695A1C71
S1131C20019BDA61019BDA69019B5B699A420BD3E0
S1131C30019B5B68DA6C019B5B6802218A43DA646E
S1131C40019B5B6800225A63019BDA69019B5B6913
S1131C509A4245D2019B20229B5CDB011900019B27
S1131C60DB685A00019B5B680A435A6338E0019BB6
S1131C70DB695A1C019BDA61019BDA69019B5B6990
S1131C809A4212D3019B5B68DA6C019B5B68022168
S1131C908A43DA64019B03221A70019B5B68DA6C45
S1131CA0019B5B6801210A43DA64019BDA69019BA9
S1131CB05B699A4214D8019B9A68019B5969019BFC
S1131CC0DB69CB1ADB00DA40019B5B68FF210A4029
S1131CD05A6305E0044BCB21180000F003FC00E03C
S1131CE0C046C04603B000BD9870000000B583B084
S1131CF00190019B1B78032B18D1019B04221A70BD
S1131D00019B5B68DA6C019B5B6801218A43DA649E
S1131D10019B212200219954019B28229A5C019B5A
S1131D20DB6A19001000FFF725FD05E0044BE021F4
S1131D30180000F0D7FBC046C04603B000BDC04643
S1131D409870000000B585B00190019B5B68DB6969
S1131D500393019B1B78022B42D1019B9A69019B3F
S1131D605B699A4205D1019B9B695A1E019B9A614A
S1131D703FE0019B1B691968019B9B69DB00039A87
S1131D809A40019B1B690A431A60019B9B69002BC3
S1131D9020D1019B5B68DA6C019B5B6804218A4358
S1131DA0DA64019B5B68DA6C019B5B6802218A43FD
S1131DB0DA64019B212200219954019B28229A5C18
S1131DC0019BDB6A19001000FFF7D4FC019B04227D
S1131DD01A700EE0019B9B695A1E019B9A6108E0F0
S1131DE00623FF331A00044B1100180000F07AFB9D
S1131DF0C046C04605B000BD9870000010B505216E
S1131E00112001F049F9094B0121180000F042FFAB
S1131E10074B0321180001F03FF9064B032118007A
S1131E2001F03AF90023180010BDC046D0233E004B
S1131E3002001E0003002000024BDB6C1B0EDBB211
S1131E4018007047B081E00F10B582B00C4B01222E
S1131E501A646B46DC1DFFF7EFFF030023706B462B
S1131E6007331B78812B08D8064B074A1A60074BA7
S1131E701A68064B06490A401A60C04602B010BDF3
S1131E8000000C4018600C4005000004E4800C4085
S1131E90FFFFFFFE10B5FFF7D7FF02F0EFF8FFF7E3
S1131EA0ADFF02F071F8C04610BD10B500F014F893
S1131EB0C04610BD10B502F005F9C04610BDC046BD
S1131EC07047C0467047C0467047C0467047C0461A
S1131ED07047C0467047000010B5034B180000F06F
S1131EE0EBF8C04610BDC046BC70000000B585B01C
S1131EF000F0CAF80C4B03930C4B02930B4B019369
S1131F000B4B00930AE0039A131D0393029B191DC4
S1131F10029112681A60019B04330193019A009B99
S1131F209A42F0D3FEF7E0F8E879000000040020BC
S1131F307C040020FEE7000000B583B000F01CF82C
S1131F4003000193074B5B680F221340019ADA40A8
S1131F5013000193044B019A1A60019B180003B00B
S1131F6000BDC04600800C400C040020014B18004A
S1131F707047C04600366E0100B583B0384BDB6A4B
S1131F80384A13408022D204934220D08022D204C3
S1131F9093421FD88022920193420CD08022920156
S1131FA0934217D88022120193420CD0802252010E
S1131FB0934204D00EE02C4B1B68019341E0802334
S1131FC01B0201933DE0294B1B68019339E0284B28
S1131FD0019336E0224BDA68E023DB0013408022D1
S1131FE0D20093421AD08022D200934225D8C02234
S1131FF09200934215D0C022920093421DD88022B1
S11320009200934210D080229200934215D8002B64
S113201010D080225200934209D00EE0154B019358
S11320200EE0154B01930BE0144B019308E0144BA5
S1132030019305E0134B019302E000230193C04692
S1132040C046074B1B689B0B072213400133190042
S1132050019802F0A3FD0300180003B000BDC046C0
S113206000800C40003C000408040020040400200C
S113207000366E01406F4001809FD500C0D8A70094
S113208040B56400804F1200024B034A9A60C04678
S11320907047C04600ED00E00000000080231B02F2
S11320A018007047FA239B0018007047014B1B6807
S11320B0180070470804002000B583B00190019B0C
S11320C05A68019B1B68180090470300180003B06E
S11320D000BD82B001900091019B1A68009BDA4018
S11320E0130001221340180002B0704700B583B0FA
S11320F0020000916B4607331A706B4607331B7856
S1132100002B26D06B4607331B78012B1ED06B4661
S113211007331B78022B17D06B4607331B78032B2E
S113212010D06B4607331B78042B08D06B4607335B
S11321301B78052B01D13F230CE000230AE0F02398
S11321409B0107E0F02305E0114B03E0D323DB01FF
S113215000E0104B009AD3400122134006D1F9232A
S11321609A000D4B1100180000F0BCF90B486B46A7
S113217007331A780121009B99401300DB009B1858
S11321809B00C31814331960C04603B000BDC04699
S11321901FEF000007070000D4700000006000403B
S11321A000B583B0020000916B4607331A706B468A
S11321B007331B78002B26D06B4607331B78012B83
S11321C01ED06B4607331B78022B17D06B460733A0
S11321D01B78032B10D06B4607331B78042B08D0D5
S11321E06B4607331B78052B01D13F230CE00023FA
S11321F00AE0F0239B0107E0F02305E0124B03E023
S1132200D323DB0100E0114B009AD3400122134099
S113221005D10F4A0F4B1100180000F063F96B460B
S113222007331A781300DB009B189B000C330A4A0F
S113223094466344009A11001800FFF74AFF030014
S1132240180003B000BDC0461FEF000007070000E0
S1132250FE030000D47000000060004000B583B0AD
S1132260020000916B4607331A706B4607331B78E4
S1132270002B26D06B4607331B78012B1ED06B46F0
S113228007331B78022B17D06B4607331B78032BBD
S113229010D06B4607331B78042B08D06B460733EA
S11322A01B78052B01D13F230CE000230AE0F02327
S11322B09B0107E0F02305E0104B03E0D323DB018F
S11322C000E00F4B009AD3400122134005D10D4A80
S11322D00D4B1100180000F005F90C486B4607334C
S11322E01A780121009B99401300DB009B189B0086
S11322F0C31810331960C04603B000BD1FEF0000BF
S11323000707000013040000D470000000600040C0
S113231000B583B0020000916B4607331A706B4618
S113232007331B78002B26D06B4607331B78012B11
S11323301ED06B4607331B78022B17D06B4607332E
S11323401B78032B10D06B4607331B78042B08D063
S11323506B4607331B78052B01D13F230CE0002388
S11323600AE0F0239B0107E0F02305E0104B03E0B3
S1132370D323DB0100E00F4B009AD340012213402A
S113238005D10D4A0D4B1100180000F0ABF80C48B4
S11323906B4607331A780121009B99401300DB0038
S11323A09B189B00C31818331960C04603B000BDC6
S11323B01FEF0000070700002E040000D470000087
S11323C00060004000B585B00190019B03930D4B64
S11323D00121180000F05EFC0B4B0121180000F0F5
S11323E059FC039B1878039B5B781900039B9B782B
S11323F05A425341DBB2042201F0C4F8002318000E
S113240005B000BD408104000082040000B585B021
S11324100190019B0393039B9B78002B08D1039BA2
S11324201A78039B5B7819001000FFF75FFE07E042
S1132430039B1A78039B5B7819001000FFF70EFFCB
S1132440C04605B000BD00B585B00190019B039363
S1132450039B9B78002B08D1039B1A78039B5B7822
S113246019001000FFF7FAFE07E0039B1A78039B9C
S11324705B7819001000FFF739FEC04605B000BDB7
S113248000B585B00190019B0393039B1A78039BCD
S11324905B7819001000FFF73BFFC04605B000BD94
S11324A000B585B00190019B0393039B1A78039BAD
S11324B05B7819001000FFF773FE02000B236B44D6
S11324C01A70039B9B78002B06D10B236B441B785B
S11324D05A425341DBB202E00B236B441B781800D1
S11324E005B000BD82B001900091FEE700B583B055
S11324F00190019B1F2B07D93023FF331A00064B91
S113250011001800FFF7EEFF0122019B9A4013000F
S1132510180003B000BDC0464C71000000B587B080
S1132520039002910192029B1F2B04D90D4B912120
S11325301800FFF7D7FF039B1B6805930122029B3A
S11325409A401300DB431A00059B1A40019B0121AA
S11325501940029B99400B001A43039B1A60C04622
S113256007B000BDC871000082B001900091019BCA
S11325701A68009BDA40130001221340180002B0CD
S11325807047000000B585B00190019B002B04D07A
S1132590019A80231B029A4205D9094A094B11006A
S11325A01800FFF79FFF019802F084FB0300DBB2E1
S11325B01A001F239B1A0393039B180005B000BD48
S11325C0350C000040720000024BDB6C1B0EDBB2CA
S11325D018007047B081E00F00B583B0274B5A69EB
S11325E0E023DB001340E022D200934236D0E02205
S11325F0D200934235D8C0229200934212D0C02216
S1132600920093422DD880229200934215D08022CA
S11326109200934225D8002B1DD080225200934271
S113262016D01EE0FFF7D0FF0300122B02D9144B83
S113263001931FE0134B01931CE0FFF7C5FF030058
S1132640122B02D9104B019314E0104B019311E0AB
S11326500F4B01930EE00F4B01930BE00E4B0193D4
S113266008E0002301930D4A0D4B11001800FFF7F9
S113267039FFC046019B180003B000BD00800C4028
S1132680804F120040420F0040B56400C0CF6A0082
S1132690C0D8A700809FD500406F4001C21200003F
S11326A0B872000010B582B06B46DC1C114B1800E8
S11326B000F01CFC030023706B4603331B78072BCC
S11326C006D0092B09D1FFF757FC030001930DE055
S11326D0FFF782FF0300019308E000230193064AF9
S11326E0064B11001800FFF7FDFEC046019B1800C1
S11326F002B010BD06000E00FC120000B87200000B
S113270084B0019000910F4B5B6807221340039340
S1132710019B0D4A934202D80023039305E0019BD9
S11327200A4A934201D801230393064B5B680722AC
S113273093431900034B039A0A435A60C04604B0FA
S11327407047C04600000C400024F4000048E80133
S113275000B583B00D4BDA6B6B460733511E8A41CB
S11327601A700A4B0A4ADA63FFF700FC03000021DF
S11327701800FFF7C5FF6B4607331B78002B02D008
S1132780024B0022DA63C04603B000BD00000C40D7
S1132790711B000000B585B0019000910D4BDA6B00
S11327A00F236B44511E8A411A700A4B0A4ADA639A
S11327B0009A019B11001800FFF7A2FF0F236B443E
S11327C01B78002B02D0034B0022DA63C04605B00D
S11327D000BDC04600000C40711B000000B585B070
S11327E0019000230293019B494A934212D0019B1A
S11327F0474A934207D8019B464A93420AD0019B19
S1132800454A934206D0454A454B11001800FFF74C
S113281069FE00E0C046019B180000F067FB03005E
S11328200393019B3A4A934219D0019B384A93423D
S11328301CD8019B374A934204D0019B364A9342E9
S113284006D013E0374B9B6A03221340039314E032
S1132850344B9B6A9B080322134003930DE0314BD6
S11328609B6A1B0903221340039306E02E4A2C4B58
S113287011001800FFF736FEC046039B032B18D047
S1132880039B032B36D8039B022B0DD0039B022BF7
S113289030D8039B002B12D0039B012B2AD1FFF7C6
S11328A0FDFB030002932FE0FFF700FC03000293FB
S11328B02AE0FFF741FB03005B08029324E00023B6
S11328C00293019B134A934203D0019B124A934201
S11328D019D1144B9A6A019B0E498B4201D11023E2
S11328E000E01423DA40131E0DD0FFF7DBFB0300D6
S11328F0029308E0002302930C4A094B11001800CC
S1132900FFF7F0FD00E0C046029B180005B000BDD3
S11329100400220002001E00030020003A150000FB
S1132920B872000000800C40691500009415000086
S113293082B00190074B5B6D0122134006D1C04663
S1132940044B1B6D019A1340FAD100E0C04602B05B
S11329507047C04600800C40C0467047C046704770
S113296000B585B00190019B1B090F22134002930F
S1132970029B0D2B67D8029B9A00394BD3181B6816
S11329809F46384B1B689B0B07221340013303936C
S113299062E0344B9B680F2213400393039B18009F
S11329A0FFF7A4FD0300039356E02E4B5B680F2250
S11329B013400393039B1800FFF798FD0300039350
S11329C04AE0284B5B681B0A012213400393039BD4
S11329D001331800FFF78AFD030003933CE0019BD9
S11329E0214A93420BD11F4B9B6E0F22134003933A
S11329F0039B1800FFF77AFD0300039308E001230B
S1132A0003931A4A1A4B11001800FFF76BFDC046D6
S1132A1022E0019B174A93420BD1124B1B6F0322F6
S1132A2013400393039B1800FFF760FD0300039317
S1132A3008E001230393104A0D4B11001800FFF71F
S1132A4051FDC04608E0012303930C4A084B1100D2
S1132A501800FFF747FDC046039B180005B000BDF2
S1132A603073000000800C408006120056180000ED
S1132A70B872000090071A006F1800007618000062
S1132A8000B585B001900091019B1B090F221340F2
S1132A900393039B0D2B00D9D3E0039B9A006E4B49
S1132AA0D3181B689F46009B002B02D0009B082B69
S1132AB005D96A4A6A4B11001800FFF713FDFFF7A6
S1132AC047FE684B1B68684A13401900009B013B92
S1132AD09A03644B0A431A60FFF72EFA0300029329
S1132AE0029B00211800FFF755FEB1E0009B002B6C
S1132AF004D0009A80239B009A4205D95B4A584B24
S1132B0011001800FFF7EEFC009B1800FFF73AFDD8
S1132B1003000093534B9B680F2293431900514BBE
S1132B20009A0A439A6093E0009B1800FFF72AFD7D
S1132B300300013B00934B4B5B684D4A1340190063
S1132B40009B1A02474B0A435A6081E0009B002B0A
S1132B5004D0009A80239B009A4205D9454A404BF1
S1132B6011001800FFF7BEFCFFF7F2FD009B1800F0
S1132B70FFF708FD030000933A4B5B680F22934371
S1132B801900384B009A0A435A60FFF7D5F903003D
S1132B900293029B00211800FFF7FCFD58E0019B03
S1132BA0354A93421DD1009A80231B029A4205D9CB
S1132BB0324A2B4B11001800FFF794FC0420FFF756
S1132BC0B7FE009B1800FFF7DDFC03000093254BC4
S1132BD09B6E0F2293431900224B009A0A439A6674
S1132BE006E0274A1E4B11001800FFF77BFCC04685
S1132BF02EE0019B234A93421BD1009B082B05D94D
S1132C00214A174B11001800FFF76CFC4020FFF716
S1132C108FFE009B1800FFF7B5FC03000093114BD7
S1132C201B6F0322934319000E4B009A0A431A6741
S1132C3006E0164A0A4B11001800FFF753FCC04681
S1132C4006E0134A064B11001800FFF74BFCC04680
S1132C50C04605B000BDC04668730000A31800005C
S1132C60B872000000800C40FF3FFEFFB618000061
S1132C70FFFEFFFFCC18000080061200EA180000D7
S1132C802519000090071A002E1900004B190000A6
S1132C905119000000B587B001900A006B46033358
S1132CA01A7000230493019B1B0A0F2213400A2B62
S1132CB020D89A001E4BD3181B689F461D4B0593C2
S1132CC01FE01D4B05931CE01C4B059319E01C4BA6
S1132CD005930123049314E01A4B059310230493E2
S1132CE00FE0194B059380235B00049309E0174B15
S1132CF0059306E0164A174B11001800FFF7F2FB84
S1132D0013E0019B1B0B1F2213400393049B002B16
S1132D1003D0049B1800FFF70BFE6B4603331A78AD
S1132D200399059B1800FFF7F9FB07B000BDC046E7
S1132D30A073000040800C4008800C4044800C408C
S1132D4058800C4060800C4064800C4078800C40BB
S1132D50D7190000B872000010B584B00190019A30
S1132D60F8239B031340F8229203934200D196E088
S1132D70F8229203934200D9A0E080229203934266
S1132D8000D16CE080229203934200D996E0F022B5
S1132D90520393424DD0F0225203934200D98DE066
S1132DA0D0225203934261D0D0225203934200D9DD
S1132DB084E090225203934242D0902252039342E1
S1132DC000D97BE080225203934263D080225203D5
S1132DD0934200D972E0E0221203934255D0E022DC
S1132DE0120393426AD88022D20293420FD08022E7
S1132DF0D202934262D8002B04D0802292029342E2
S1132E0012D05BE0FFF7B8F8030003935FE0FFF72D
S1132E10B3F803000393304B9B680F221340039ACB
S1132E20DA401300039352E0FFF786F8030003939C
S1132E304DE02A4B1800FFF7D1FC0300039346E052
S1132E40264B1800FFF7CAFC03000393224B9B6E2A
S1132E500F221340039ADA401300039337E0204B08
S1132E601800FFF7BBFC0300039330E01C4B180071
S1132E70FFF7B4FC03000393174B1B6F03221340AB
S1132E80039ADA401300039321E0FFF70BFC0300DD
S1132E9003931CE0FFF7A0FB0300039317E0FFF785
S1132EA04BF80400019B1800FFF75AFD03001900BA
S1132EB0200001F073FE0300039308E00023039352
S1132EC0084A094B11001800FFF70CFBC046039B8E
S1132ED0180004B010BDC04600800C4002001E0063
S1132EE003002000071B0000B872000000B585B085
S1132EF001900F236B4401221A70019B0F2213408F
S1132F000293029B062B00D9AAE0029B9A005D4B18
S1132F10D3181B689F465C4BDB6A5C4A13408022D3
S1132F20D204934223D08022D204934224D8802214
S1132F30920193420CD08022920193421CD88022A9
S1132F40120193420ED080225201934205D013E025
S1132F500F236B4402221A7013E00F236B440322E5
S1132F601A700EE00F236B4404221A7009E00F2339
S1132F706B440B221A7004E00F236B4405221A7071
S1132F80C04678E0404B9B6A03221340032B0FD0CA
S1132F9013D8012B02D0022B05D00EE00F236B4473
S1132FA003221A7015E00F236B4402221A7010E0FA
S1132FB00F236B4406221A700BE0334B9A6A80236A
S1132FC05B02134004D00F236B440C221A7000E000
S1132FD0C04650E02C4B9B6A0C2213400C2B0FD0A4
S1132FE013D8042B02D0082B05D00EE00F236B441A
S1132FF003221A7015E00F236B4402221A7010E0AA
S11330000F236B4406221A700BE01F4B9A6A80232D
S11330105B03134004D00F236B440C221A7000E0AE
S1133020C04628E0184B9B6A30221340102B02D074
S1133030202B05D009E00F236B4403221A7009E00A
S11330400F236B4402221A7004E00F236B44012205
S11330501A70C0460FE00F236B4407221A700AE06F
S11330600F236B4400221A70094A0A4B11001800FE
S1133070FFF738FAC0460F236B441B78180005B0DD
S113308000BDC046CC73000000800C40003C00042E
S1133090271F0000B872000000B589B001900A0033
S11330A06B4603331A70032307931B236B440322D9
S11330B01A7000230493019B0F2213400393039B74
S11330C0042B00D1B6E0039B042B00D9E2E0039B60
S11330D0012B09D0039B002B00D1DBE0039B023BB7
S11330E0012B00D9D6E055E06B4603331B780C2B3B
S11330F02ED89A006C4BD3181B689F460423079361
S11331001B236B4400221A7029E0032307931B231B
S11331106B4401221A7022E0022307931B236B44A1
S113312002221A701BE0012307931B236B44032222
S11331301A7014E0052307931B236B4405221A70AD
S11331400DE05A4A5A4B11001800FFF7CBF9A8E0DA
S1133150584A574B11001800FFF7C4F9A1E01B238C
S11331606B441B7801220121180000F0B5F8FFF729
S1133170EFFAFFF7F1FB504B079A5A62FEF7DCFEB9
S113318003000293029B00211800FFF703FBFFF7E3
S1133190E5FB86E06B4603331B780C2B25D89A009D
S11331A0464BD3181B689F460023059324E0012255
S11331B00121002000F090F8022305931CE0012275
S11331C00121012000F088F80123059314E03C4B11
S11331D0012202211800FFF7A1F9032305930BE054
S11331E0002305930123049306E0364A304B110073
S11331F01800FFF777F954E0039B022B0CD12E4BF8
S11332009B6A314A1A40059B1A431100049B1A0415
S1133210294B0A439A6244E0274B9B6A2B4A1A4083
S1133220059B9B001A431100049B1A05224B0A4379
S11332309A6236E06B4603331B78032B10D017DCFD
S1133240012B02D0022B03D012E00023059316E0D9
S113325001220121002000F03FF8022305930EE033
S113326001220121012000F037F80123059306E033
S1133270174A0F4B11001800FFF734F911E00E4BF9
S11332809B6A302293431900059B1A010A4B0A4397
S11332909A6206E00F4A064B11001800FFF722F964
S11332A0C04609B000BDC046E8730000E81F000036
S11332B0B8720000ED1F000000800C401C74000078
S11332C040800C4096200000FCFFFEFFF3FFEFFF60
S11332D0C72000002622000010B586B004000800B4
S11332E011006B460733221C1A706B460633021C0E
S11332F01A706B4605330A1C1A706B4607331B7829
S1133300052B32D89A002A4BD3181B689F460123F9
S1133310049302230393012305932DE004230493D0
S1133320082303930323059326E010230493202307
S11333300393052305931FE0402304938023039301
S11333400723059318E080235B00049380239B00EC
S11333500393092305930FE08023DB000493802368
S11333601B0103931623059306E0124A124B110026
S11333701800FFF7B7F819E06B4606331B78002BEB
S113338011D00E4B049A1A626B4605331B78002B3E
S11333900CD0C046059B0A4A19001000FFF7E4F858
S11333A0031EF7D002E0054B039A1A6206B010BD63
S11333B05074000074260000B872000000800C40B5
S11333C02C800C4082B0EFF310830093009B019398
S11333D072B6C046019B180002B0704782B00190DB
S11333E0019B002B01D162B6C046C04602B07047B3
S11333F082B0EFF310830093009B019372B6C04632
S1133400019B180002B0704782B00190019B002B11
S113341001D162B6C046C04602B0704700B583B061
S1133420020000916B4607331A706B4607331B7812
S1133430002B26D06B4607331B78012B1ED06B461E
S113344007331B78022B17D06B4607331B78032BEB
S113345010D06B4607331B78042B08D06B46073318
S11334601B78052B01D13F230CE000230AE0F02355
S11334709B0107E0F02305E0114B03E0D323DB01BC
S113348000E0104B009AD3400122134006D1F923E7
S11334909A000D4B11001800FFF724F80B486B46F7
S11334A007331A780121009B99401300DB009B1815
S11334B09B00C31814331960C04603B000BDC04656
S11334C01FEF000007070000E074000000600040E8
S11334D000B583B0020000916B4607331A706B4647
S11334E007331B78002B26D06B4607331B78012B40
S11334F01ED06B4607331B78022B17D06B4607335D
S11335001B78032B10D06B4607331B78042B08D091
S11335106B4607331B78052B01D13F230CE00023B6
S11335200AE0F0239B0107E0F02305E0104B03E0E1
S1133530D323DB0100E00F4B009AD3400122134058
S113354005D10D4A0D4B11001800FEF7CBFF0C48B6
S11335506B4607331A780121009B99401300DB0066
S11335609B189B00C31810331960C04603B000BDFC
S11335701FEF00000707000013040000E0740000C0
S11335800060004000B585B00291110001930F2343
S11335906B44021C1A700E236B440A1C1A700F230E
S11335A06B441B78002B26D00F236B441B78012B14
S11335B01ED00F236B441B78022B17D00F236B44B0
S11335C01B78032B10D00F236B441B78042B08D0DB
S11335D00F236B441B78052B01D13F230CE0002300
S11335E00AE0F0239B0107E0F02305E04C4B03E0E5
S11335F0D323DB0100E04B4B029AD340012213405A
S113360007D11E23FF331A00474B11001800FEF7A1
S113361069FF0E236B441B78002B13D0019B002BF6
S113362008D0029A0F236B441B7811001800FFF78F
S11336304FFF07E0029A0F236B441B781100180018
S1133640FFF7ECFE029B072B26D838490F236B4467
S11336501A781300DB009B189B00CB1804331B68FB
S1133660029A92000F2191400A00D24313400E2285
S11336706A441178029A920091400A0011002B4882
S11336800F226A44127819431300DB009B189B0035
S1133690C3180433196027E024490F236B441A78B4
S11336A01300DB009B189B00CB1808331B68029A9D
S11336B0083A92000F2191400A00D24313400E228F
S11336C06A441178029A083A920091400A00110063
S11336D016480F226A44127819431300DB009B1822
S11336E09B00C318083319600E236B441B78002B0E
S11336F013D1019B002B08D0029A0F236B441B7833
S113370011001800FFF7E4FE07E0029A0F236B4450
S11337101B7811001800FFF781FEC04605B000BDFC
S11337201FEF00000707000058750000006000400C
S113373082B001900091019B009A1A63C04602B0C6
S11337407047000000B587B0039002910192029B7C
S11337501F2B04D90D4B91211800FEF7C3FE039BC8
S11337601B6805930122029B9A401300DB431A0055
S1133770059B1A40019B01211940029B99400B00B3
S11337801A43039B1A60C04607B000BDD075000001
S113379000B587B0039002910192FFF713FE030076
S11337A00593039B1B68029AD2431A40019B02991A
S11337B00B401A43039B1A60059B1800FFF70EFE8B
S11337C0C04607B000BD000000B589B00390029167
S11337D001921A006B4603331A70019B002B07D128
S11337E01023FF331A00614B11001800FEF77AFE14
S11337F0019B002B00D1B5E06B4603336A460332CC
S1133800127803210A401A70039B1B68584A1A4015
S1133810039B1A6003986B4603331B781B021A0040
S1133820C0239B001900FFF7B3FF029B002B12D1AA
S1133830039B504A934206D14F4B1800FFF78CFA72
S11338400300029307E02A23FF331A00474B1100B9
S11338501800FEF747FE01235B420793039B1B6896
S11338600222134013D06B4603331B78022B0BD078
S113387021DC002B02D0012B03D01CE03F4B07932B
S11338801CE03F4B079319E03E4B079316E06B4651
S113389003331B78022B0BD00FDC002B02D0012B3F
S11338A003D00AE0384B079308E0384B079305E050
S11338B0374B079302E0C04600E0C046029A079BDC
S11338C09A4206D8AF235A00284B11001800FEF77D
S11338D009FE6B4603331B782E4AD35C0593059B84
S11338E0019A53430493049B002B08D17023FF33A4
S11338F01A001E4B11001800FEF7F4FD33E0019B83
S11339009B00029AD21A049BD318013B0499180015
S113391001F044F90300013B0693069B002B07DAF0
S11339207623FF331A00114B11001800FEF7DAFD5D
S1133930069A80239B009A4206D3BB235A000B4B62
S113394011001800FEF7CEFD039B1B6802221340F2
S113395004D0069B002B01D101230693069A039BF6
S11339601A6100E0C04609B000BDC04648760000B8
S1133970FFFCFFFF00A0004000B20400401640001E
S1133980C0D8A7008050740180841E004054890070
S1133990002D31017876000000B583B001900A0053
S11339A06B4603331A70019B0A4A934207D0902353
S11339B0FF331A00084B11001800FEF793FD01981D
S11339C06B4603331B781A000021FFF7BBFEC04689
S11339D003B000BD00A000404876000000B583B0ED
S11339E001900091019B184A934206D0D2235A00B9
S11339F0164B11001800FEF775FD019B00225A6357
S1133A00134A019B11001800FFF792FE0198009BD6
S1133A105B7801225340DBB21A000121FFF792FECA
S1133A20009B5968009B9A68009B1B7B0198FFF7D9
S1133A30CBFE009B1A78019B11001800FFF7ACFF26
S1133A40C04603B000BDC04600A000404876000058
S1133A50FFFF010000B585B001900091019B012B8F
S1133A6004D9104BA4211800FEF73CFD009B1B0E4B
S1133A701B0604D00B4BA9211800FEF733FD019B54
S1133A80002B03D0019B012B03D008E0064B0393CA
S1133A9002E0064B0393C046039B009A1A6005B0EC
S1133AA000BDC046F4760000080008400C00084041
S1133AB084B00190019B1B78002B02D00123039357
S1133AC001E000230393019B5B78002B03D0039B4D
S1133AD0022213430393019B9B78002B03D0039B87
S1133AE0042213430393034B039A1A60C04604B0A1
S1133AF07047C0460000084082B00190019B0A4A0A
S1133B00934207D0019B094A934203D0019B084A80
S1133B10934201D1012300E000231A1C0123134026
S1133B20DBB2180002B070470000014000040140FD
S1133B300008014000B585B001900091019B180078
S1133B40FFF7DAFF031E04D1374B9A211800FEF762
S1133B50C9FC00230393009B1B7801225340DBB272
S1133B60002B02D0019B02225A60019B00225A6260
S1133B70009B9B781A06009BDB781B041A43009B6E
S1133B809B799B021A43009BDB791B021343009A27
S1133B90127A1A43009B5B78002B01D0402300E08B
S1133BA000231A43009B5B7A002B01D0802300E0A2
S1133BB000231A43009B9B7A002B01D0202300E0B2
S1133BC000231A43009BDB7A002B01D0102300E072
S1133BD000231A43009B1B7B002B01D0082300E029
S1133BE0002313430393009B1B79002B02D08023F3
S1133BF09A0100E00022009B5B79002B02D0802315
S1133C005B0500E000231343039A13430393019BD2
S1133C10039A1A60009B1B78002B02D0019B01229F
S1133C205A60C04605B000BDE477000000B585B019
S1133C30039002910192039B1800FFF75DFF031E9E
S1133C4004D12B4BEA211800FEF74CFC029B022BFB
S1133C5004D9274BEB211800FEF744FC019B1B7889
S1133C609A06019B5B781B061A43019B9B781B04F5
S1133C701A43019BDB781B031A43019B1B799B02AC
S1133C801A43019B5B791B021343019A92791A43ED
S1133C90019BDB79002B02D080239B0300E00023EF
S1133CA01A43019B1B7A002B02D080235B0300E0A4
S1133CB000231A43019B5B7A002B01D0102300E000
S1133CC000231A43019B9B7A002B01D0042300E0BC
S1133CD000231A43019BDB7A1B071A431100039B41
S1133CE0029A03321201D150C04605B000BDC0464D
S1133CF0E477000082B001900A006B4603331A7027
S1133D006B4603331B7810221343DBB21A00019B6A
S1133D109A65C04602B0704700B587B0039002911F
S1133D200192019B002B06D1A2239A00154B11008E
S1133D301800FEF7D7FB029B002B05D1124B18008D
S1133D40FFF70AF803000293029B5A1E019B5B00D3
S1133D501900100000F022FF03000593059B1B02CD
S1133D600593059B094A134005D0094A054B1100E8
S1133D701800FEF7B7FB039B059A5A61C04607B0CB
S1133D8000BDC04618780000408104000700E0FF31
S1133D90A502000000B585B001900A006B4603330C
S1133DA01A70019B104A934209D0019B0F4A934217
S1133DB005D00F4A0F4B11001800FEF793FB6B461A
S1133DC003331B78DB430393039B052213400393C4
S1133DD0039B5A00019BDA606B4603331A78019BFC
S1133DE0DA60C04605B000BD00C0004000C4004019
S1133DF0BE0200001878000000B583B00190009165
S1133E00019B344A93420AD0019B334A934206D021
S1133E10D6239A00314B11001800FEF763FB019B77
S1133E20180000F05DF8019B1A68009B1B8A0121B1
S1133E300B439BB21900009B9B7B002B02D0802379
S1133E40DB0000E000230B431A43019B1A60019B33
S1133E501A68009B1B7D002B02D080239B0500E089
S1133E6000231A43019B1A60009B9B7C002B06D005
S1133E70009BDA7C019B11001800FFF73BFF009BBD
S1133E801B7B1A0080235B011A43019B5A60009B31
S1133E905968009B9A68019B1800FFF73DFF009B3F
S1133EA05B7B002B02D0019B1022DA60009B5B7DC0
S1133EB0002B06D0019B1B68802252021A43019BEF
S1133EC01A60009B1B781A00019BDA60C04603B09D
S1133ED000BDC04600C0004000C400401878000087
S1133EE000B583B00190019B204A934209D0019B05
S1133EF01F4A934205D01F4A1F4B11001800FEF7BA
S1133F00F1FA019B1D4ADA60019B00221A60019BB1
S1133F101B4A5A60019B00229A60019B00225A614D
S1133F20019B0022DA64019B164A9A64019B0022D9
S1133F305A65019B0D4A934203D0019B0C4A93425C
S1133F4002D1019B00221A65019B00229A65019B04
S1133F50064A934203D0019B054A934202D1019B36
S1133F600022DA65C04603B000BDC04600C0004070
S1133F7000C400402E04000018780000AA0E0000BF
S1133F8005100000F91F000000231800704700000E
S1133F9010B582B0020000916B4607331A706B466D
S1133FA007331B787F2B2CD8324A6B4607331B7898
S1133FB05BB29B08C0339B009B586A460732127859
S1133FC0110003220A40D200FF2191400A00D2438B
S1133FD01A401100009B9B01FF221A406B460733D5
S1133FE01B78180003230340DB009A4021486B46EA
S1133FF007331B785BB29B080A43C0339B001A50FB
S113400035E01D4A6B4607331B7819000F230B401C
S1134010083B9B0806339B00D31804331B686A468D
S113402007321278110003220A40D200FF21914086
S11340300A00D2431A401100009B9B01FF221A4040
S11340406B4607331B78180003230340DB009A40B8
S113405009486B4607331B781C000F232340083B99
S11340609B080A4306339B00C31804331A60C046F6
S113407002B010BD00E100E000ED00E000B583B047
S11340806B460733FB221A7011E06B4607331B782B
S11340905BB201211800FFF77BFF6B4607331B78E7
S11340A05BB2DBB20133DAB26B4607331A706B468C
S11340B007331B785BB2142BE7DD0023180003B031
S11340C000BD000030B583B0FFF792F903000193FF
S11340D01E4B1B7801225340DBB2002B2ED01C4B0D
S11340E000221A601B4B00221A601B4B00221A800C
S11340F000F0C0FB012000F061FC00F0B7FC0200FE
S1134100164B1A60154B1B68002B05D1019B180038
S1134110FFF77AF9232316E0104B1B681C000023D9
S11341201D0022002B000E480E4900F0E1FD0200A4
S11341300B000D4B1A60054B01221A70019B1800ED
S1134140FFF762F90023180003B030BD58050020C2
S11341505005002054050020480500204C0500208F
S113416018FCFFFFE70300005C05002010B58AB0CF
S1134170079006910592049327236B4400221A703A
S1134180079B002B01D122231DE027226A44079BB1
S11341901100180000F01AF827236B441B78002B39
S11341A001D002230FE0059C069A069907980DABEF
S11341B01B8802930CAB1B780193049B0093230090
S11341C000F062FA030018000AB010BD00B585B013
S11341D001900091019B002B02D0009B002B01D188
S11341E0222324E0009B00221A70FFF701F9030048
S11341F00293104B1B6803930AE0039A019B9A42B3
S113420003D1009B01221A7002E0039B9B68039375
S1134210039B002B06D0009B1B7801225340DBB28A
S1134220002BEAD1029B1800FFF7EEF800231800D8
S113423005B000BD5005002030B583B00190009159
S113424013490968019888421DD801990C0000217E
S11342500D00104909680A0000210B002000290004
S113426000F066FD02000B0010001900FA22920013
S1134270002300F03DFD02000B0013005A1C009BBC
S11342801A60002300E02123180003B030BDC046AB
S11342905C0500204C050020F0B58DB002006B4693
S11342A007331A706B4607331B78012213400ED074
S11342B07E4B1B889BB201339AB27C4B1A8000F070
S11342C0ABF97B4B1B68002B01D000F08BF96B46DC
S11342D007331B780222134000D1E4E000230A9341
S11342E00023099322236B4400221A80FFF780F8ED
S11342F003000B9300F090F9AFE06D4B1B6807933C
S11343006B4B1B680A93002306930022002304923C
S113431005930F236B4400221A700AE00A9B1A7952
S1134320079B1B799A4201D9079B0A93079B9B68B9
S11343300793079B002B03D0079B5B69002BEDD0F1
S11343400B9B1800FFF760F80A9B1B69002B23D016
S11343500A9B1B6904930023059300F0BDFA020035
S11343600A9B9B69D31A0693069B1C00DB171D004E
S1134370059BAB4205DB059BAB420DD1049BA342DD
S11343800AD20F236B4401221A700A9B9A690A9B72
S11343901B69D2180A9B9A610F236B441B78012274
S11343A05340DBB2002B0BD0FFF722F803000B9332
S11343B00A9B180000F0DCF80B9B1800FFF724F8A8
S11343C00A9B1B69002B2FD00F236B441B780122FF
S11343D05340DBB2002B27D0069B1E00DB171F00C7
S11343E0049A059B921BBB4104920593059B002BE9
S11343F005DA304A304B11001800FEF773F8FEF767
S1134400F7FF03000B93049A0A9B1100180000F0B5
S113441057F80A9B9A690A9B1B69D2180A9B9A61EE
S11344200B9B1800FEF7F0FF22236B440A9AD288F4
S11344301A80099B013309930A9BDB68002B06D081
S11344400A9BDA680A9B19680A9B18009047FEF7D2
S1134450CFFF03000B9300F0DFF8154B1B68002B14
S113446005D0134B1B685B69002B00D145E7134B48
S113447000221A70099B012B07D122236B441B884D
S1134480022B02D10D4B01221A70094B1B68002B21
S113449002D000F0A7F802E0022000F0BFFA0B9B64
S11344A01800FEF7B1FFC0460DB0F0BD480500206E
S11344B050050020020400004C7800006005002034
S11344C086B001900091009B0593019B059A5A6167
S11344D0264B1B68002B40D000230493234B1B68FE
S11344E003930CE0039B5B69059AD31A0593019B24
S11344F0059A5A61039B0493039B9B680393039B54
S1134500002B13D0039B5B69059A9A42EAD2039B62
S11345105B69002BE6D0039B5B69059A9A4205D13F
S1134520019B1A79039B1B799A42DBD8049B002BCD
S113453003D0049B019A9A6002E00C4B019A1A6022
S1134540019B039A9A60039B002B0CD0039B5A692E
S1134550059BD21A039B5A6105E0044B019A1A6029
S1134560019B00229A60C04606B0704750050020A7
S113457084B0019000230393194B1B68029304E059
S1134580029B0393029B9B680293029B002B03D024
S1134590029A019B9A42F3D1029A019B9A4201D05A
S11345A0022319E0039B002B04D0019B9A68039B10
S11345B09A6003E0019B9A68094B1A60019B9B680F
S11345C0002B08D0019B9B685969019B5A69019B88
S11345D09B688A185A610023180004B07047C046CB
S11345E05005002000B583B0094B1B685A69094B7C
S11345F01B68D3180193022000F0E0F9019B180016
S113460000F092F900F098F8C04603B000BDC0462F
S1134610500500205405002000B585B000F05CF979
S113462003000193164B1B680393164B1B68019AF6
S1134630D31A029318E0039B5B69029A9A4208D842
S1134640039B5A69029BD21A039B5A61002302936B
S113465007E0039B5B69029AD31A0293039B00222F
S11346605A61039B9B680393039B002B02D0029B1C
S1134670002BE0D1034B019A1A60C04605B000BD7F
S1134680500500205405002000B587B00390029126
S113469001920093039B09AA12781A71039B089A4A
S11346A01A60039B00229A60039B019A1A61039B80
S11346B0009ADA60039B0AAA1288DA8000F00CF9E7
S11346C00200019BD218039B9A61029B002B15D117
S11346D0039B00225A61039BDB68002B06D0039BDB
S11346E0DA68039B1968039B18009047019B002B11
S11346F002D0019B029301E0002317E0FEF778FE4D
S113470003000593FFF788FF029A039B110018002A
S1134710FFF7D6FE074B1B68039A9A4201D1FFF7B5
S113472061FF059B1800FEF76FFE0023180007B019
S113473000BDC0465005002082B0134B1B68019396
S113474000230093114B00221A7014E0019BDB88B4
S11347501A000223134003D00C4B01221A700FE0FD
S1134760019B9B680193019B002B08D0019B5B6913
S1134770009AD3180093009B012BE7D900E0C046B0
S1134780C04602B07047C0465005002059050020BD
S113479082B002006B4607331A706B4607331B78EE
S11347A07F2B0AD86B4607331B781A001F231A4045
S11347B0034B012191400A001A60C04602B07047C1
S11347C000E100E082B002006B4607331A706B46CA
S11347D007331B787F2B0BD86B4607331B781A00E3
S11347E01F231340044901229A40C0235B00CA508E
S11347F0C04602B07047C04600E100E0014B5B6870
S1134800180070470000084082B00190024B019AE2
S11348105A60C04602B070470000084082B0019060
S1134820024B019A9A61C04602B0704700000840EA
S113483082B00190044BDA69019BD943024B0A40D0
S1134840DA61C04602B070470000084082B00190AF
S1134850044BD969034B019A0A43DA61C04602B09A
S11348607047C04600000840014B1B6918007047A0
S11348700000084000B583B001AB154A11881980C7
S113488092789A70134B01211800FEF7F9F8114B36
S113489001211800FEF7FEF901AB00229A7001AB6A
S11348A001221A7001AB1800FFF702F90720FFF785
S11348B0BFFF0720FFF7B2FF0020FFF7A5FF0C2082
S11348C0FFF780FF0C20FFF763FFC04603B000BD75
S11348D0D87800008006120000B583B0FFF78EFF81
S11348E0030001930F4B1B78DAB26B4602331A8034
S11348F0FFF7BAFF0300012213400AD0FFF77EFF3F
S1134900030001936B4602331A886B46023301326B
S11349101A806B4602331B881A06019B1343180046
S113492003B000BD6105002000B585B00190FFF71C
S1134930D3FF03000293019B0393FFF795FF03004A
S1134940042213400ED11C4B1B68029A110018005C
S113495000F002F90300032B04D8174B1B68029ADA
S11349609A4226D1029A039B1100180000F0F4F831
S11349700300022B02D8029B03330393039B5A1EAA
S11349800D4B1A600C4B1A68029BD21A80235B04ED
S11349909A420BD2084B1B681B021B0A1900012008
S11349A0FFF758F8022000F009F802E0022000F0B6
S11349B035F8C04605B000BD6405002000B585B0DB
S11349C002006B4607331A70002303936B460733C8
S11349D01B780122134003D0039B0122134303934A
S11349E06B4607331B78022213400DD00A4B1B7809
S11349F0002B05D00420FFF711FF074B00221A708B
S1134A00039B042213430393039B1800FFF71EFF29
S1134A10C04605B000BDC0461004002000B585B0F6
S1134A2002006B4607331A70002303936B46073367
S1134A301B780122134003D0039B012213430393E9
S1134A406B4607331B780222134006D0039B0422D3
S1134A5013430393044B01221A70039B1800FFF7BE
S1134A60E7FEC04605B000BD1004002010B5034B9E
S1134A701800FEF771F90300180010BD800612003B
S1134A8000B585B00F236B4400221A7000230293F3
S1134A90FEF7AEFC03000193FFF7E6FE030000936C
S1134AA0009B012213402ED0294B1B78DBB21A063F
S1134AB0FF231B069A4207D10F236B440F226A443B
S1134AC0127801210A431A70214B1B78DBB201339F
S1134AD0DAB21F4B1A701F4B1B6802931C4B1B78D6
S1134AE0DBB21B061A00029B9B1A0293029A8023D4
S1134AF05B049A4207D2029B19000120FEF7AAFF29
S1134B000220FFF75BFF009B0422134007D00F2312
S1134B106B440F226A44127802210A431A70009BE4
S1134B20052213401800FFF779FE0F236B441B780E
S1134B30002B05D00F236B441B781800FFF7ACFB48
S1134B40019B1800FEF760FCC04605B000BDC046DE
S1134B50610500206405002082B001900091019A53
S1134B60009BD31A180002B0704710B5FDF792F9F4
S1134B70FDF79BF9FDF79EF9FDF7A1F9FDF7A1F902
S1134B80C04610BD10B5FDF79EF9FDF79EF9FDF77F
S1134B909EF9FDF79EF9C04610BD000000224308AF
S1134BA08B4274D303098B425FD3030A8B4244D3F1
S1134BB0030B8B4228D3030C8B420DD3FF22090233
S1134BC012BA030C8B4202D31212090265D0030BF2
S1134BD08B4219D300E0090AC30B8B4201D3CB03E8
S1134BE0C01A5241830B8B4201D38B03C01A52412A
S1134BF0430B8B4201D34B03C01A5241030B8B422C
S1134C0001D30B03C01A5241C30A8B4201D3CB0216
S1134C10C01A5241830A8B4201D38B02C01A5241FB
S1134C20430A8B4201D34B02C01A5241030A8B42FE
S1134C3001D30B02C01A5241CDD2C3098B4201D316
S1134C40CB01C01A524183098B4201D38B01C01A94
S1134C50524143098B4201D34B01C01A524103090B
S1134C608B4201D30B01C01A5241C3088B4201D3BA
S1134C70CB00C01A524183088B4201D38B00C01A67
S1134C80524143088B4201D34B00C01A5241411A8E
S1134C9000D20146524110467047FFE701B500209B
S1134CA000F006F802BDC0460029F7D076E7704749
S1134CB07047C0461C2101231B04984201D3000CF9
S1134CC010391B0A984201D3000A08391B0998427B
S1134CD001D30009043902A2105C40187047C04691
S1134CE004030202010101010000000000000000B1
S1134CF0002B11D1002A0FD1002900D1002802D0A5
S1134D000021C943080007B4024802A140180290D8
S1134D1003BDC0469DFFFFFF03B4684601B502987A
S1134D2000F052F8019B9E4602B00CBC7047C0468E
S1134D30F0B5CE46474680B5070099463B0C9C46E5
S1134D4013041B0C1D000E0061460004140C000C1F
S1134D5045434B4360436143C0182C0C20188C46D8
S1134D60834203D980235B029846C444494679436D
S1134D707243030C63442D042D0CC918000440191C
S1134D808918C0BCB946B046F0BDC04670B5002213
S1134D900C4B04000D0001F00FFF002804D120008B
S1134DA0290001F079FE70BD064B00222000290085
S1134DB001F0E0FA01F070FE80231B069C4660447B
S1134DC0F1E7C0460000E041F0B557464E4645467F
S1134DD0DE46E0B504000D009246994683B08B424E
S1134DE030D82DD04946504601F0F0FE2900060087
S1134DF0200001F0EBFE331A9846203B9B4633D447
S1134E005A465346934042461F00534693401E0061
S1134E10AF423AD8AF4200D178E05B46A41BBD4113
S1134E20002B00DA75E00022002300920193012395
S1134E305A4693400193012342469340009328E04D
S1134E408242CFD900220023009201930C9B002BB5
S1134E5001D01C605D600098019903B0F0BCBB46B2
S1134E60B246A946A046F0BD424620239B1A5246AC
S1134E70DA40414613004A468A40170042461F431F
S1134E80534693401E00AF42C4D90022002300922F
S1134E9001934346002BD9D0FB0772081A434646B8
S1134EA07B080EE0AB4201D1A2420CD8A41A9D416A
S1134EB0012024196D410021013E24184D41002E8A
S1134EC006D0AB42EED9013E24196D41002EF8D133
S1134ED0009801995B4600196941002B24DB2B00E3
S1134EE05A464446D3402A00E2401C005B46150063
S1134EF0002B2ADB26009E40330026004746BE4096
S1134F003200801A9941009001919FE7A342BCD8D6
S1134F1083E74246202300219B1A0022009101923C
S1134F200122DA40019286E7424620239B1A2A0096
S1134F3046469A402300F340444613432A00E24085
S1134F401C005B461500002BD4DA42462F002023B8
S1134F50260097409B1ADE403B003343CDE7C04612
S1134F60F0B5C64643025B0A4E0245004F00DA0024
S1134F70C40F9C46700A904600B52D0E3F0EC90F13
S1134F80B6098C424BD0EA1B002A36DD002F61D0D3
S1134F90FF2D00D1ADE08023DB041E431B2A00DC7F
S1134FA0D3E001204346181A430100D48CE0800169
S1134FB087093800FFF77EFE05388740854200DC0C
S1134FC0B6E02D1AB3483840430704D00F230340FA
S1134FD0042B00D00430430100D478E06A1CFE2D79
S1134FE065D08001430A9C46D2B26346D00518437B
S1134FF0E407204380BCB846F0BD002A35D07A1BB4
S1135000002D00D0AFE04346002B00D1A7E0531E93
S1135010012A00D12FE1FF2A69D01A00AAE0E91B76
S1135020002970DD002F37D0FF2D62D08023DB04F0
S11350301E431B2900DCB0E001204044430143D55A
S11350400135FF2D33D00123934A0340400810401B
S11350501843B9E7002E00D183E0511E012A00D184
S1135060D8E0FF2A45D00A0098E7FE276A1C1742B9
S113507000D086E0002D00D0B7E04346002B00D1DD
S1135080F3E00022002EB0D0981B430100D4FAE0D4
S113509043460C00F01A97E7002E00D1C8E04A1EE0
S11350A0012900D1AEE0FF2923D01100C1E700237C
S11350B0FF229C4699E7FE216A1C114277D0FF2A01
S11350C0F5D0150046447008430700D07EE7C308B6
S11350D0FF2D0ED05B025B0A9C46EAB285E7002EE8
S11350E007D08022D203134203D0104201D10C0016
S11350F00300002BDBD08020C00318434002430A86
S11351009C46FF2271E70029D5D07A1B002D60D17F
S11351104346002B24D0531E012A73D0FF2AE7D024
S11351201A001B2A00DC85E001203D00801985E778
S113513020233A00451B38000135EA405D1BA84096
S1135140431E9841002510433EE7202330009B1A5C
S113515031009840D140431E9841084322E70C0097
S113516003001500B4E7FF2FC1D080234046DB04C1
S1135170184380461B2A51DD01200C003D00301AE3
S113518012E743469F1B7B012BD4002F00D010E76E
S11351900023002400229C4627E72023320030000D
S11351A0CA40591A8840431E9841104345E7002DD0
S11351B04AD14346002B63D00022002E00D114E7CD
S11351C030004044430100D47EE7324B013518409F
S11351D07AE7FF2F8CD080234146DB0419438846AD
S11351E09FE743460C00F71AE3E64246002A00D044
S11351F075E7002E00D07AE78023DB0300249C4669
S1135200FF22F2E6300040440125430100D45BE76D
S1135210022518E743460125981BC5E6202344468A
S11352204046D4409A1A9040431E98412043A4E734
S11352300D004DE7202341464046D1409A1A904044
S1135240431E9841084370E74246002A00D14FE7C5
S1135250002E00D14DE78022D203134200D148E74B
S1135260104200D045E7030043E7002E90D00C0025
S113527084460022B9E643460C00F01A013593E651
S113528084460022B1E6002800D01DE70023002454
S11352909C46AAE6FFFFFFFBFFFFFF7DF0B54F46EC
S11352A04646D6464502C0B547000C1C6D0A3F0E63
S11352B0C60F002F00D170E0FF2F00D175E0EB0086
S11352C08025ED041D43002399469A467F3F6002E2
S11352D0430A984663001B0EE40F002B4ED0FF2BAD
S11352E046D04246D0008022D20402439046002297
S11352F07F3B3100FF1A4B466140C9B213430F2B69
S113530000D9B5E06E489B00C3589F4600239846D9
S11353102600454692465346022B00D189E0032BD2
S113532000D19EE0012B18D03B007F33002B69DDB8
S11353306A0704D00F222A40042A00D004352A0127
S113534003D5604B1D403B008033FE2B00DD70E035
S1135350AD016D0AD8B202E00E0000200025C005A0
S11353602843F6073043E0BCBA46B146A846F0BD30
S11353704346002B3FD10222FF3F03E04346002B6C
S11353802DD1012231004B466140C9B213430F2B8A
S113539034D84D489B00C3589F46002D13D1042395
S11353A09946033B00279A4691E7002D05D108232F
S11353B09946063BFF279A4689E70C239946093B01
S11353C0FF279A4683E72800FFF774FC7627431FDC
S11353D09D4000237F4299469A463F1A77E740460C
S11353E0FFF768FC4246431F9A4076235B4290468F
S11353F01B1A00227DE7FF2303227AE70E00FF2019
S11354000025ACE70120C01A1B28A6DC9E372A0021
S1135410BD40C2406B1E9D4115436B0704D00F2352
S11354202B40042B00D004356B0144D5012000250A
S113543095E7FF20002592E780250026FF20ED0355
S11354408DE7002398468020C003054209D04346D7
S1135450034206D1454605436D022600FF206D0A2E
S11354607DE78020C00305436D02FF206D0A76E7C7
S113547042466B015001834219D21B220025013F91
S113548001261C006D005B00002C01DB984201D852
S11354901B1A3543013A002AF3D15A1E93411D4386
S11354A03B007F330E00002B00DD41E7AAE71A2200
S11354B001251B1AE4E7AD0100206D0A4FE7C04641
S11354C0DC780000FFFFFFF71C790000F8B5CE463A
S11354D0474643025B0A4E02DA009446720A91463A
S11354E045004A0080B52D0E1F00C40F120EC90FCF
S11354F0B609FF2A5BD0012041408C4239D0A81A5A
S113550000285ADD002A6AD0FF2D00D1D9E080227C
S1135510D20416431B2800DCE9E001206346181A74
S1135520430100D4B4E0800187093800FFF7C2FBCF
S113553005388740854200DCCCE02D1AB548384058
S1135540430704D00F230340042B00D0043043014D
S113555000D4A0E06A1CFE2D00D18DE08001470A32
S1135560D2B2D0053843E4072043C0BCB946B046A4
S1135570F8BDA81A8046002845DD002A70D0FF2D0A
S113558000D19EE08023DB041E4343461B2B00DC3A
S1135590D2E00120604443017AD50135FF2D6BD060
S11355A001239D4A0340400810401843C8E7002ED9
S11355B020D08C4223D02800FF38002839D0571B34
S11355C0002D00D09DE06346002B00D1DBE07B1E64
S11355D0012F00D10DE1FF2F71D01F0098E0002EA4
S11355E000D1A7E0421E012800D1E6E0FF2868D0E0
S11355F010008FE701204140A14200D07FE7FF2047
S113560040428046A8444046002838D0511B002D13
S113561000D1AEE0FF2A00D1DFE080236046DB0446
S1135620184384461B2900DCD9E0012015008019A9
S1135630B1E7FE206A1C104271D1002D00D0A6E013
S11356406346002B00D1D9E00022002E00D188E768
S1135650981B430100D4E1E063460C00F01A6FE7A5
S1135660002E00D1B7E00200013A012800D19CE0ED
S1135670FF2826D0904688E7FF22002771E7FE2006
S11356806A1C104264D0FF2AF6D0150066447008E4
S1135690430700D056E7C308FF2D12D05B025F0A10
S11356A0EAB25EE76246002A00D196E0002E08D0F6
S11356B08022D203134204D04846104201D10C0088
S11356C04B46002BD8D08027FF031F437F02FF22C5
S11356D07F0A46E720233A00451B38000135EA409B
S11356E05D1BA840431E98410025104328E7202352
S11356F01B1A32009E40C2403000431E98411043A2
S11357000CE7FF2ADBD080236046DB041843844681
S11357101B2F56DD01200C001500301A00E76346EC
S11357209F1B7B013DD4002F00D0FEE60024002205
S1135730002716E70500AFE7320043464146DA404A
S113574020235B1A9E403000431E9841104321E7FA
S1135750002DA7D16346002B59D00022002E00D182
S1135760FFE630006044430192D52A4B01351840CE
S11357708EE76346002B47D04B1E012915D0FF2925
S11357802BD019004EE70C004B463D0084E76246DF
S1135790002A8BD1002E92D180270024FF22FF0300
S11357A0DFE663460C00F71ABFE6300060440125CB
S11357B0430100D46CE70225F2E663460125981BF9
S11357C0AEE6202364466046FC40DF1BB840431E1F
S11357D0984120439FE705005EE74B4671E720238D
S11357E065466046CD40591A8840431E9841284377
S11357F01CE763460C000125F01A91E6002E95D0B3
S11358000C004F460022ACE64B460D0044E74F46E1
S11358100022A6E6FFFFFFFBFFFFFF7D002800D06C
S113582036E7002400279CE670B5051E0ED0FFF76E
S113583041FA9E2304001B1A962B0CDC082801DD78
S1135840083CA5406D026D0AD8B201E00020002595
S1135850C005284370BD992B09DD020029001B32C5
S113586091404A1E91410522121AD5400D43052C40
S113587012DC29000C4E31406A0709D00F20284061
S1135880042805D004314A0102D59F2331401B1B53
S113589089014D0AD8B2DBE7621F95402900024E08
S11358A031406A07F4D0E9E7FFFFFFFBF0B5574644
S11358B04E464546DE46E0B5814605000C034800E9
S11358C092461F0085B0240B400DCE0F002800D156
S11358D056E1D44B984200D172E16B0FE4001C43B3
S11358E080231B0423439846CF4BED009B460023A3
S11358F09946834400933C037B005046240B5B0D84
S1135900FF0F002B00D11FE1C64A934200D162E190
S1135910C549420F8C46E40059461443802263442F
S11359201204CB1A14439B46C200002033007B4070
S11359309A464B460F2B27D8BC499B00CB589F4611
S1135940B246009B022B16D0032B00D18EE2012B12
S113595000D0D9E000230024002552461B05234330
S1135960D20713432800190005B0F0BCBB46B24669
S1135970A946A046F0BD00240025AA4BEDE7BA468F
S1135980A04615000090DCE7444500D2C7E100D1F1
S1135990C2E101235B429C462E0040460025E344BD
S11359A02302140E1C431B0C994623041F0C1202E1
S11359B0494600920197FFF777F902007A430B04F6
S11359C0310C804619438A4207D901235B429C4625
S11359D00919E0448C4200D807E2881A4946FFF7C7
S11359E063F909048C4631046646019A090C424362
S11359F0030031438A4204D90919013B8C4200D87F
S1135A00EDE1881A424612041A4390464146009B2F
S1135A100E041B0C1F000293009B360C1B04190C74
S1135A200B007343120C7E43039151437A431F0CC2
S1135A30BC4676186644B14203D9802149028C469B
S1135A406244310C8A1831041E04360C8E199042BB
S1135A5002D312D1B54210D24346591E009B9C4634
S1135A6065441F009D429B415B421B19C018844240
S1135A7000D2A0E100D19BE18846AE1BB542AD4106
S1135A80801A6D42401B844200D1D5E14946FFF79C
S1135A900BF9019A0B044243310C050019438A4265
S1135AA000D96CE1881A4946FFF7FEF8019A3604DA
S1135AB042430904360C03000E43B24200D953E1B9
S1135AC00398B61A02002D041D43029F2B041B0CDD
S1135AD05A437B439C46290C4843130C8444634437
S1135AE07943984203D98020400284466144180CCB
S1135AF012041B04120C41189B188E4200D2FFE0C2
S1135B0000D1FAE001231D43494A5A44002A00DC2B
S1135B10AAE06B0700D03DE1ED084346DB0106D562
S1135B204246444B1A4090468022D2005A44424B8B
S1135B309A4200DD1FE743465B071D434346520577
S1135B405C02240B530D08E75246224300D17BE04C
S1135B50002C00D1FAE02000FFF7ACF802000B3A69
S1135B601D2301009B1A52460839DA408C40144325
S1135B7052468A40314B58449B4683440020D5E624
S1135B804B462343984644D0002C00D1CEE020005D
S1135B90FFF790F8010002000B391D235B1A4946F8
S1135BA01000D940083884400B004D4623439846E2
S1135BB085402348831A9B460023994600939AE61E
S1135BC04B46234398461DD108239946063B00259E
S1135BD0834600938FE65246224309D10223494665
S1135BE01943184B89469C4600240220E3449DE651
S1135BF003234A461A43134B91469C4652460320BC
S1135C00E34493E60C239946093BA046834600935C
S1135C1071E60423994600239B4601330025009333
S1135C2069E6C046FF07000001FCFFFF5C79000045
S1135C30FF030000FFFFFFFEFE070000F303000068
S1135C400DFCFFFF01F8FFFF494601231943894674
S1135C50002401206AE6002380249A4600258A4B0A
S1135C6024037AE601256D4201239B1A382B00DDBB
S1135C7070E61F2B00DCBFE01F2149428A1A41460F
S1135C80D1400A00202B04D04146804B5B4499400C
S1135C900D436B1E9D4107232A431D00002415401C
S1135CA0134200D1D4E00F2100231140042900D174
S1135CB0CBE0111D9142924152429B180A001902F5
S1135CC000D4C2E001230024002546E68023414697
S1135CD01B03194208D01C4206D11C432403BA46B4
S1135CE01500694B240B38E68024434624031C43E7
